:1000000007C1000013C60000E6C50000B9C5000026
:100010008CC500005FC5000032C5000005C50000AA
:10002000D8C4000026C1000024C1000022C1000085
:1000300020C100001EC100001CC100001AC1000048
:1000400018C1000016C1000014C1000012C1000058
:1000500010C100000EC100000CC1000070C40000FF
:1000600008C1000001C30000D6C2000002C10000A8
:1000700000C10000FEC00000FCC00000FAC000008B
:10008000F8C00000F6C00000F4C00000F2C000009C
:10009000F0C00000EEC00000ECC00000EAC00000AC
:1000A000E8C00000E6C00000E4C00000E2C00000BC
:1000B000E0C00000DEC00000DCC00000DAC00000CC
:1000C000D8C00000D6C00000D4C00000D2C00000DC
:1000D000D0C00000CEC00000CCC00000CAC00000EC
:1000E000C8C0000099039C038B038F039303D303C1
:1000F000A003A403AA03AE03B203B803BC03C00366
:10010000D303C603CA03CE0300000A0B02090C0D79
:100110000E080703040100000000000000000000BA
:1001200000000000000000000000000000000000CF
:10013000000000001211100000000000000000008C
:1001400000000000000000000000000000000000AF
:100150002200250028002B002E003100340002016F
:100160000000050108010B01000021002400270008
:100170002A002D00300033000101000004010701B6
:100180000A0105050505070508080808020202021C
:100190000A0A080804040404010101010101010123
:1001A0000303030303030303040707070C0C0C0CEE
:1001B0000C0C0C0C020202020606060606060606D7
:1001C0000B0B0B0B0B0B0B0B010210202008081064
:1001D00020401020408002010201080402010102B7
:1001E0000408102040808040201008040201800490
:1001F00002018040201008040201080402010102EB
:1002000004081020408001020408102040808C0E59
:1002100011241FBECFEFD1E2DEBFCDBF00E00CBF87
:1002200012E0A0E0B2E0EEE3F1E200E00BBF02C0BA
:1002300007900D92A43FB107D9F726E0A4EFB2E0F2
:1002400001C01D92A739B207E1F711E0C8E0D1E083
:1002500000E006C021970109802FFE010E94DF0FF8
:10026000C730D10780E00807A9F70E94A1090C94C4
:100270009D10C6CEFC01918D828D981761F0828D04
:10028000DF01A80FB11D5D968C91928D9F5F9F73CA
:10029000928F90E008958FEF9FEF0895FC01918D6C
:1002A000828D981731F0828DE80FF11D858D90E0D9
:1002B00008958FEF9FEF0895FC01918D228D892F76
:1002C00090E0805C9F4F821B91098F73992708955E
:1002D0008EEF92E0F1DF21E0892B09F420E0822FFC
:1002E0000895FC01848DDF01A80FB11DA35ABF4FF3
:1002F0002C91848D90E001968F739927848FA68925
:10030000B7892C93A089B1898C9180648C93938D4B
:10031000848D981306C00288F389E02D80818F7D3B
:1003200080830895EF92FF920F931F93CF93DF93F3
:10033000EC0181E0888F9B8D8C8D981305C0E88936
:10034000F989808185FD23C0F62E0B8D10E00F5FAB
:100350001F4F0F731127E02E8C8DE8120BC00FB6C4
:1003600007FCFACFE889F989808185FFF5CFCE01B6
:10037000B8DFF2CF8B8DFE01E80FF11DE35AFF4F7E
:10038000F0820B8FEA89FB898081806207C0EE8949
:10039000FF896083E889F98980818064808381E0B6
:1003A00090E0DF91CF911F910F91FF90EF90089512
:1003B000CF93DF93EC01888D8823C1F0EA89FB8914
:1003C000808185FD05C0A889B9898C9186FD0EC004
:1003D0000FB607FCF5CF808185FFF2CFA889B989D8
:1003E0008C9185FFEDCFCE017CDFE8CFDF91CF91FF
:1003F000089580E090E0892B19F06ADF811125C013
:1004000080E090E0892B41F080E090E0892B21F0A2
:100410000E94000081111CC080E090E0892B41F017
:1004200080E090E0892B21F00E940000811113C030
:1004300080E090E0892BA1F080E090E0892B81F0B2
:100440000E94000081110AC008950E940000D8CFC8
:100450000E940000E1CF0E940000EACF0C9400004F
:10046000089508950895CF93DF931F92CDB7DEB717
:100470006983DC01ED91FC910280F381E02D41E084
:1004800050E0BE016F5F7F4F19950F90DF91CF91C4
:100490000895089508958F929F92AF92BF92CF9240
:1004A000DF92EF92FF920F931F93CF93DF937C0124
:1004B000EB016C0182E0C80ED11C4701E5E08E0E15
:1004C000911C00E010E0F60141916F0150E060E006
:1004D00070E02AE0CE01EED65C01E881F98101905E
:1004E000F081E02D6EE2CE0119958A0D9B1D080F5B
:1004F000191FC814D90439F7F701458150E060E0AD
:1005000070E02AE0CE01D6D6800F911FDF91CF9107
:100510001F910F91FF90EF90DF90CF90BF90AF9021
:100520009F908F9008950E94E70FCF92DF92EF92F5
:10053000FF92CF93C62F853681F56AE372E08EEF86
:1005400092E0A3D68DE6C89FF0011124EC5CFB4F2E
:10055000C0800C2C000CDD08EE08FF08F7FE14C06C
:10056000E091FE02F091FF020190F081E02D6DE23A
:100570008EEF92E0199544275527BA014C195D0971
:100580006E097F092AE003C02AE0B701A6018EEFB9
:1005900092E090D685E592E019C08636E9F46FE5E1
:1005A00072E08EEF92E071D64C2F50E060E070E088
:1005B0002AE08EEF92E07ED66BE872E08EEF92E05A
:1005C00064D68EE892E07FD480EB92E0CF91FF90EA
:1005D000EF90DF90CF9077C48836B9F466ED72E083
:1005E0008EEF92E052D64C2F50E060E070E02AE0AF
:1005F0008EEF92E05FD66BE872E08EEF92E0CF91E3
:10060000FF90EF90DF90CF9040C6CF91FF90EF909A
:10061000DF90CF9008951F920F920FB60F92112482
:100620000BB60F922F933F934F935F936F937F93EC
:100630008F939F93AF93BF93EF93FF938EEF92E0CF
:1006400050DEFF91EF91BF91AF919F918F917F917C
:100650006F915F914F913F912F910F900BBE0F9033
:100660000FBE0F901F9018951F920F920FB60F920A
:1006700011240BB60F922F938F939F93EF93FF93B9
:10068000E0910E03F0910F038081E0911403F0914B
:10069000150382FD12C09081809117038F5F8F73C5
:1006A00020911803821751F0E0911703F0E0E25017
:1006B000FD4F958F8093170301C08081FF91EF91CB
:1006C0009F918F912F910F900BBE0F900FBE0F90A7
:1006D0001F901895362F90E0FC01E85FFE4F449183
:1006E000FC01E853FE4F2491FC01EE57FE4F94911C
:1006F000992309F46BC0442309F455C050E0FA0172
:100700003197E231F10508F04EC08827EE58FF4FCF
:100710008F4F0C94DF0F809180008F7707C08091FE
:1007200080008F7D03C080918000877F8093800050
:100730003AC084B58F7702C084B58F7D84BD33C045
:100740008091B0008F7703C08091B0008F7D80933F
:10075000B00029C0809190008F7707C080919000F1
:100760008F7D03C080919000877F809390001BC095
:100770008091A0008F7707C08091A0008F7D03C07B
:100780008091A000877F8093A0000DC08091200100
:100790008F7707C0809120018F7D03C08091200159
:1007A000877F80932001E92FF0E0EE0FFF1FE25BCF
:1007B000FE4FA591B4918FB7F894EC91311103C01D
:1007C00020952E2301C02E2B2C938FBF08953FB769
:1007D000F8948091FA029091FB02A091FC02B091F2
:1007E000FD0226B5A89B05C02F3F19F00196A11D5B
:1007F000B11D3FBFBA2FA92F982F8827820F911DB7
:10080000A11DB11DBC01CD0142E0660F771F881FFD
:10081000991F4A95D1F708958F929F92AF92BF92F8
:10082000CF92DF92EF92FF926B017C01D0DF4B0100
:100830005C01C114D104E104F104E9F0C8DFDC017A
:10084000CB0188199909AA09BB09883E9340A105E3
:10085000B10578F321E0C21AD108E108F10888EE69
:10086000880E83E0981EA11CB11CC114D104E104C0
:10087000F10421F7DECFFF90EF90DF90CF90BF9093
:10088000AF909F908F900895CF93DF93FC0180816C
:10089000823409F051C080912E04882309F43FC0AE
:1008A000EAE9F4E020E030E040815181452B49F550
:1008B0009DE6929FE001939FD00D1124AE014C5C08
:1008C0005B4F6FE274E0FCD3009749F1C954DC4FF1
:1008D000FE01E352FF4F9183808336968AE490E0D5
:1008E0009183808374DFFE01E152FF4F6083718347
:1008F00082839383CB51DF4F188219821A821B8225
:100900000EC02F5F3F4FE359FF4F2530310561F691
:10091000E0915506F091560665E086E6199561E08E
:100920008DE0D8DE65E070E080E090E075DF60E0AB
:100930008DE0DF91CF91CECEDF91CF9108951F92C0
:100940000F920FB60F9211242F933F938F939F9383
:10095000AF93BF938091F6029091F702A091F802B5
:10096000B091F9023091F50223E0230F2D3720F4E6
:100970000196A11DB11D05C026E8230F0296A11DF9
:10098000B11D2093F5028093F6029093F702A09395
:10099000F802B093F9028091FA029091FB02A091C3
:1009A000FC02B091FD020196A11DB11D8093FA02D7
:1009B0009093FB02A093FC02B093FD02BF91AF9114
:1009C0009F918F913F912F910F900FBE0F901F908D
:1009D00018951F920F920FB60F9211240BB60F921B
:1009E0002F933F934F935F936F937F938F939F9337
:1009F000AF93BF93EF93FF93E0910E02F0910F023C
:100A00001995FF91EF91BF91AF919F918F917F9138
:100A10006F915F914F913F912F910F900BBE0F906F
:100A20000FBE0F901F9018951F920F920FB60F9246
:100A300011240BB60F922F933F934F935F936F93B5
:100A40007F938F939F93AF93BF93EF93FF93E09127
:100A50000C02F0910D021995FF91EF91BF91AF91AA
:100A60009F918F917F916F915F914F913F912F91C6
:100A70000F900BBE0F900FBE0F901F9018951F92F6
:100A80000F920FB60F9211240BB60F922F933F9334
:100A90004F935F936F937F938F939F93AF93BF9386
:100AA000EF93FF93E0910202F09103021995FF91F9
:100AB000EF91BF91AF919F918F917F916F915F91D6
:100AC0004F913F912F910F900BBE0F900FBE0F9043
:100AD0001F9018951F920F920FB60F9211240BB60C
:100AE0000F922F933F934F935F936F937F938F93C7
:100AF0009F93AF93BF93EF93FF93E0910002F09128
:100B000001021995FF91EF91BF91AF919F918F9144
:100B10007F916F915F914F913F912F910F900BBEFD
:100B20000F900FBE0F901F9018951F920F920FB647
:100B30000F9211240BB60F922F933F934F935F9315
:100B40006F937F938F939F93AF93BF93EF93FF9395
:100B5000E0910A02F0910B021995FF91EF91BF917C
:100B6000AF919F918F917F916F915F914F913F9145
:100B70002F910F900BBE0F900FBE0F901F901895E6
:100B80001F920F920FB60F9211240BB60F922F9354
:100B90003F934F935F936F937F938F939F93AF9305
:100BA000BF93EF93FF93E0910802F091090219952A
:100BB000FF91EF91BF91AF919F918F917F916F9135
:100BC0005F914F913F912F910F900BBE0F900FBEF1
:100BD0000F901F9018951F920F920FB60F9211242D
:100BE0000BB60F922F933F934F935F936F937F9327
:100BF0008F939F93AF93BF93EF93FF93E091060280
:100C0000F09107021995FF91EF91BF91AF919F91DC
:100C10008F917F916F915F914F913F912F910F90A5
:100C20000BBE0F900FBE0F901F9018951F920F9242
:100C30000FB60F9211240BB60F922F933F934F9341
:100C40005F936F937F938F939F93AF93BF93EF9334
:100C5000FF93E0910402F09105021995FF91EF9145
:100C6000BF91AF919F918F917F916F915F914F91C4
:100C70003F912F910F900BBE0F900FBE0F901F90C2
:100C80001895EF92FF921F93CF93DF931F92CDB7EA
:100C9000DEB77C01162F60E0FC01868549831ADDF2
:100CA000F701948585859CBD8DBD1EBD00004981E1
:100CB0000DB407FEFDCF8EB54EBD00000DB407FE8E
:100CC000FDCF1EB561E0F701868504DD812F0F9011
:100CD000DF91CF911F91FF90EF9008956F7740E0E3
:100CE000D0CFEF92FF921F93CF93DF931F92CDB798
:100CF000DEB77C01DC01ED91FC910480F581E02DF3
:100D00001995892B81F06DE0C701E8DF482F60E07D
:100D1000C7014983E3DF182F49816DE8C701B1DFBF
:100D2000812F90E002C08FEF9FEF0F90DF91CF9166
:100D30001F91FF90EF900895CF93DF93EC01E8812E
:100D4000F9810480F581E02D1995892B51F08E8968
:100D50009F8901969F8B8E8B60E0CE01BFDF90E074
:100D600002C08FEF9FEFDF91CF910895CF93DF9374
:100D7000EC0163E1B3DF282F30E08E899F89A90160
:100D8000481B590BCA01DF91CF9108958F929F9212
:100D9000AF92BF92CF92DF92FF920F931F93CF93A8
:100DA000DF931F92CDB7DEB76C01B62E4A0162E227
:100DB000798394DFF82E90E09C01280D391D79810C
:100DC0002F3F310531F028F02FEF30E04901881A2C
:100DD000990A0B2D172F5801A80CB91C0A151B05D1
:100DE00039F0F80141918F0160E8C6014ADFF6CF82
:100DF000482D4F0D62EAC60144DFC4010F90DF9118
:100E0000CF911F910F91FF90DF90CF90BF90AF9047
:100E10009F908F9008956F3F710519F4FC016081D8
:100E20007181CB018270992760FF04C0892B31F456
:100E300085E007C0892B21F481E003C08AE001C06E
:100E400082E066FD02C091E001C092E0890F67FD7B
:100E500002C091E001C092E0890F65FD02C091E0FF
:100E600001C094E0890F63FD02C090E001C092E0F0
:100E7000890F0895FC01680F791F90E05CE8E61780
:100E8000F70789F0419188E0A92FA427292F30E0A6
:100E900035952795922FA0FF02C0952F9227459553
:100EA000815091F7ECCF892F08951092B4031092DE
:100EB000B3036DE18BE993E011DF482F4E7F6DE9BD
:100EC0008BE993E0DECECF93DF93BC018EEF92E00F
:100ED000DCD1EC016BE872E08EEF92E0D6D18C0FA2
:100EE0009D1FDF91CF91089590E0FC01E853FE4FE4
:100EF0002491FC01EE57FE4F8491882399F090E0F5
:100F0000880F991FFC01E859FE4FA591B491FC018F
:100F1000E25BFE4F859194918FB7F894EC91E22BB0
:100F2000EC938FBF0895CF93DF9362E18BE993E059
:100F3000D5DEC82FBADF4C2F62E98BE993E0A1DE42
:100F4000C6FF23C0C5FD21C01092B2031092B103A9
:100F50008091B3039091B403892B11F062E201C038
:100F600063E18BE993E0BADEC82FD0E060E18BE962
:100F700093E0B4DE482F6DE88BE993E082DE41E830
:100F800061E88BE993E07DDE12C061E08BE993E0DC
:100F9000A5DE863851F040E06DE88BE993E071DE24
:100FA00046E861E88BE993E06CDEC0E0D0E0CE017A
:100FB000DF91CF91089541E861E88BE993E061DE2C
:100FC00074DF40E06DE88BE993E05BDE40E062EACD
:100FD0008BE993E056DE81E090E0089543E861E814
:100FE0008BE993E04EDE62E18BE993E077DE83FFED
:100FF000FACF48E062E98BE993E043DE81E090E0DC
:101000000895CF92DF92EF92FF92FC019C01260F90
:10101000371F8FEF9FEFDC01E217F307D9F0419103
:10102000842749E04150C1F36C017D01F694E794B7
:10103000D794C79480FF0BC0D701C60150E2852723
:1010400053E8952758EBA5275DEEB527EBCFD701E1
:10105000C601E8CFBC01CD01609570958095909553
:10106000FF90EF90DF90CF900895CF92DF92EF92B4
:10107000FF920F931F93CF93DF936C017A018B0143
:10108000C0E0D0E0CE15DF0589F0D8016D918D016B
:10109000D601ED91FC910190F081E02DC6011995EA
:1010A000892B11F47E0102C02196ECCFC701DF919C
:1010B000CF911F910F91FF90EF90DF90CF90089507
:1010C0008F929F92AF92BF92CF92DF92EF92FF9258
:1010D0000F931F93CF93DF93982E6B017A010091AA
:1010E000BB031091BC030F3F110511F008F000681D
:1010F000911001C0037FB8018BEB93E08CDEC82F09
:10110000D0E02196C801880F892F881F990B9195EF
:10111000282F2170A22E980146E0369527954A95F2
:10112000E1F7822F8170B82EC031D10528F105FD7D
:1011300008C00062B8018BEB93E06DDEC82FD0E0F1
:101140002196C115A1E0DA0751F4B1100BC000647B
:10115000B8018BEB93E05FDEC82FD0E02196C0365C
:10116000D10550F0E0915506F09156066C2F88E6B7
:10117000199580E090E07CC0F7019082AA2019F0D8
:101180000183128301C001838A2D90E0F701E80FEB
:10119000F91FBB2019F01282C38301C0C283A801CA
:1011A0004270552700FF28C02B2D30E0FC013396FC
:1011B000E20FF31FEE0DFF1DD6018D909D90AD90B7
:1011C000BC9080829182A282B382452BF9F08E0D71
:1011D0009F1DFC01E20FF31F8091BD039091BE03A0
:1011E000A091BF03B091C00387839087A187B28786
:1011F00080915E0683870AC0452B41F08E0D9F1DAE
:10120000FC01EB0DF11D80915E068383BE016150F0
:10121000710998012072332705FD03C081E090E039
:1012200002C084E090E0FB01E81BF90BEE0DFF1D0E
:1012300082E48083232BA1F08E0104501109B801B0
:10124000C701DFDEF701E00FF11F9083EC0EFD1EFA
:10125000F70133978083319670833196608307C09E
:101260008701060F171FC70105DEF8018083CE0135
:10127000DF91CF911F910F91FF90EF90DF90CF9072
:10128000BF90AF909F908F9008956115710579F090
:10129000FB0101900020E9F73197AF01461B570B86
:1012A000DC01ED91FC910280F381E02D199480E046
:1012B00090E008954F925F926F927F92EF92FF922B
:1012C0000F931F93CF93DF93CDB7DEB7A1970FB6E0
:1012D000F894DEBF0FBECDBF7C01FA01CB0119A28D
:1012E000223008F42AE08E010F5D1F4F422E512C50
:1012F000612C712CBF01A3019201EED6F901CA0144
:10130000015011096A3014F4605D01C0695CD801B4
:101310006C93232B242B252B69F7B801C701B5DF6C
:10132000A1960FB6F894DEBF0FBECDBFDF91CF916F
:101330001F910F91FF90EF907F906F905F904F9073
:101340000895CF93DF93CDB7DEB727970FB6F89404
:10135000DEBF0FBECDBF789484B5826084BD84B5F6
:10136000816084BD85B5826085BD85B5816085BDA0
:1013700080916E00816080936E0010928100809158
:1013800081008260809381008091810081608093E0
:101390008100809180008160809380008091B10005
:1013A00084608093B1008091B00081608093B00030
:1013B0008091910082608093910080919100816082
:1013C0008093910080919000816080939000809143
:1013D000A10082608093A1008091A1008160809330
:1013E000A1008091A00081608093A00080912101E4
:1013F000826080932101809121018160809321018D
:101400008091200181608093200180917A00846026
:1014100080937A0080917A00826080937A00809134
:101420007A00816080937A0080917A00806880934E
:101430007A001092C1008DE057DD60E08DE04AD95E
:1014400085E992E0909356068093550684E494E0F3
:1014500090935C0680935B068091A90345DD8091A3
:10146000AB0342DD60E08091AB0334D96AE070E009
:1014700080E090E0D1D961E08091AB032BD96AE0A4
:1014800070E080E090E0C8D961E08091A90322D9A2
:101490001FB7F8948091F402811120C0E7EBF1E0CE
:1014A0008491EDEFF1E09491E82FF0E0EE0FFF1F53
:1014B000E859FE4FA591B491EC91E92319F461E04C
:1014C00085E308D985E310DD8CB580618CBD8CB5D2
:1014D00080648CBD84E308DD83E306DD8091F40243
:1014E0008F5F8093F4021FBF62E48BE993E0F6DB29
:1014F000823109F03DC040E861E88BE993E0C1DB4F
:1015000080EA97E29093B0038093AF0349ED66E8D9
:101510008BE993E0B6DB46E067E88BE993E0B1DB6B
:1015200046E668E88BE993E0ACDB40E06EE88BE9E7
:1015300093E0A7DB40E06FE88BE993E0A2DB6CE08F
:101540008BE993E0CBDB482F43606CE88BE993E0B9
:1015500098DB44E066EA8BE993E093DB4FE869E8C7
:101560008BE993E08EDB41E861E88BE993E089DB6E
:101570006DE18BE993E0B2DB8F70482F40686DE935
:101580008BE993E07EDB80915A06863308F0865320
:1015900090917B00282F2870977F922B90937B004F
:1015A0008770806480937C0080917A00806480934F
:1015B0007A0080917A0086FDFCCF6091780080915E
:1015C000790070E0782B80915E06680F711D072E00
:1015D000000C880B990B611571058105910509F0C7
:1015E00046D510915E0640D528EE33E040E050E04D
:1015F00047D5212F30E0620F731F6230710540F034
:10160000660F771F660F771FCB0105970197F1F7DC
:10161000EAE9F4E080E090E020813181232B49F574
:101620002DE6289F8001299F100D1124A8014C5CF4
:101630005B4F6DEB73E08CE243DD009739F10954A9
:101640001C4FF801E352FF4F9183808336968AE462
:1016500090E091838083BBD8F801E152FF4F608313
:101660007183828393833696108211821282138251
:101670000DC00196E359FF4F8530910569F6E09161
:101680005506F091560665E086E61995E0910E0341
:10169000F0910F0382E08083E0910A03F0910B0345
:1016A0001082E0910C03F0910D0380E18083109291
:1016B0001603E0911203F091130386E08083E0911A
:1016C0001003F0911103808180618083E091100309
:1016D000F0911103808188608083E0911003F09184
:1016E0001103808180688083E0911003F0911103E1
:1016F00080818F7D80836BD82B013C0168D8DC0111
:10170000CB0184199509A609B70981329E44A10528
:10171000B10508F099C135ECA32E33E0B32E10E0EB
:1017200000E040E6242E312CE12CF12C80E090E00A
:101730000097E1F4F8DB6C01882381F045018BE927
:1017400093E014DB892B39F08BE993E0F5DAF401AF
:1017500081934F01F4CFC601992702C08FEF9FEF0D
:101760009C01215031092E3F3F4F40F60197E11473
:10177000F10469F42091C50330915E06231791F1BD
:10178000222381F120915D0621112CC0B7CF21E0E9
:10179000E216F10439F51091C6032091BB03309194
:1017A000BC03212720FF05C020915D06222309F4F8
:1017B000A5CF2091C503211104C0212F2C7009F061
:1017C0009DCF13FF02C011FF99CF212F207416FF68
:1017D00002C015FF93CF01E0211101C000E0111FED
:1017E0001127111FC12ED12C96012E5F3F4FE216FB
:1017F000F30661F401110AC0F5012080312CA1012A
:10180000455051094C35510508F078CFA6014D5F80
:101810005F4FE416F50691F4002381F0F50131974E
:10182000408150E0342E2224F5014081242AA10178
:10183000455051094C35510508F060CF4091BB032C
:101840005091BC034A01F1E08F22992440FF24C04B
:101850004091C60340FF20C040915D0641111CC06D
:10186000402F50E0240F351F2E153F05A8F4960198
:10187000295F3F4F240F351FE216F30668F49701E6
:101880002C193D09241B350BF901E954FC4F338118
:10189000F5012081321332CFFFEFEF1AFF0A2FEF4D
:1018A000A21AB20AE214F30408F442CF1091C6035C
:1018B000B10115FF28C06450710985EC93E0A1DBEC
:1018C000F101EF53FC4FE12CF12CA191570138E1CC
:1018D000A30EB11C9B01AC0104C0569547953795EA
:1018E0002795AA94D2F72C833D834E835F83A2135E
:1018F0000FC038E0E31AF10840EEE4164FEFF406AB
:1019000021F721E006C085EC93E0B4DA21E08111F3
:1019100020E012FF2CC08091C503882341F1809103
:101920005706863921F180915D06811120C08928F2
:10193000A9F010FF1CC0F601E00FF11DE853FC4FA9
:10194000ADEBB3E0CF01049641913D9143130FC03D
:10195000E817F907C9F7222309F4D0CE29832BDB36
:1019600066E08BE993E00E94330238DB2981222371
:1019700009F4C4CE8091C50380932904F090C60376
:101980008F2D881F8827881FF6FAEE27E0F96F2D24
:1019900070E0882329F09091C7039B01392B01C087
:1019A0009B013093260420932504E80FA90142707F
:1019B000552720FF27C08E2F90E0FC01E853FC4FF5
:1019C000008111812281338100932A0410932B041A
:1019D00020932C0430932D04452BE1F0FC01E453BB
:1019E000FC4F008111812281338100932F041093D9
:1019F00030042093310430933204FC01E954FC4F4D
:101A0000818D06C0452B31F0F0E0E954FC4F81890F
:101A100080932E0400915B0610915C068BEB93E0A3
:101A2000FAD990E0B101681B790BF5FC03C021E005
:101A300030E002C024E030E0821B930B45E254E02A
:101A40008B539C4FF801199503E314E024E934E02B
:101A50003B832A8394E3E92E94E0F92E25E3222E9A
:101A600024E0322ED12CEA81FB8186819781892B5B
:101A700009F436C1F101C0800E94E7034B015C010B
:101A8000F801A0814A2E512C612C712CB0E0A301E9
:101A9000920112D39B01AC0183D29B01AC01EA817C
:101AA000FB8182819381A481B581881A990AAA0A4F
:101AB000BB0AC301B20174D240845184628473842E
:101AC000DC01CB01840D951DA61DB71D8815990558
:101AD000AA05BB0508F004C1BB24B3948C2D8A7001
:101AE0008A3009F0B12CC2FE09C0BB2039F0EA816E
:101AF000FB8186819781069709F46BC0EA81FB819F
:101B0000C080E114F10419F48FEF9FEF5EC0809163
:101B10005706863919F44FDA47011BC004DA181644
:101B200019060CF450C00E94E7034090B703509090
:101B3000B8036090B9037090BA03DC01CB0184193B
:101B40009509A609B709803C9648A140B10518F748
:101B50003AC0882D8E198C1540F4F40161914F0123
:101B60008BE993E00E943302F4CF38DAF7018081E9
:101B7000811103C086E090E028C0F101808182FFDE
:101B8000F9CF809157068639A9F30E94E7032B010C
:101B90003C010E94E703DC01CB0184199509A609E9
:101BA000B709803A9648A140B10508F0ADCFBBD93E
:101BB000882379F38BE993E0BFD886309105D1F281
:101BC000019609F4A1CF8AE992E0EA81FB8197832B
:101BD0008683F80180818F5F8083EA81FB81868123
:101BE00097818630910509F093C080859185A28503
:101BF000B385892B8A2B8B2BD9F4809154068823AB
:101C000009F483C0F101C0806C2D0C2C000C770B03
:101C10008BEB93E000D990E0EA81FB812081318158
:101C20002817390711F4B11006C0C3FE04C06DC0F7
:101C3000B11022C047C0F8011082EA81FB811182F5
:101C40001082128213821482158217821682BB20A0
:101C500009F446C009D220E230E040E050E010D262
:101C60006230710548F0660F771F660F771F655069
:101C70007109CB010197F1F7F8018081853180F17D
:101C8000E0915506F09156066D2D85E61995EA818D
:101C9000FB8180859185A285B385892B8A2B8B2B2F
:101CA00089F4809154068823D9F0F8011082EA81E2
:101CB000FB81118210821282138214821582178294
:101CC00016820EC0F80110820E94E703EA81FB81B0
:101CD00062837383848395832AE430E03783268389
:101CE00003591F4F4A815B8143595F4F5B834A838E
:101CF0005DE6E50EF11C6DE6260E311CD39485E001
:101D0000D812B1CE0E94F901F6CCBB2049F3B4CF72
:101D1000019609F09FCFB0CF88E392E090936006E0
:101D200080935F061092610610926206109263061D
:101D300010926406109201031092000348EE53E0E3
:101D400060E070E040930203509303036093040348
:101D50007093050328E132E03093FF022093FE02E6
:101D600025EC30E030930B0320930A0324EC30E0A1
:101D700030930D0320930C0320EC30E030930F03DD
:101D800020930E0321EC30E03093110320931003D5
:101D900022EC30E0309313032093120326EC30E062
:101DA0003093150320931403109217031092180315
:101DB0001092190310921A0310929E0310929D0321
:101DC00028E232E030939C0320939B0320E520938C
:101DD000A70321E02093A8034AE050E05093AA0310
:101DE0004093A90349E050E05093AC034093AB0308
:101DF00042E050E05093AE034093AD031092B00325
:101E00001092AF031092B2031092B1031092B40378
:101E10001092B3031092B6031092B50310929F0371
:101E20001092A0031092A1031092A2039093660651
:101E300080936506109267061092680610926906F4
:101E400010926A0690936C0680936B0610926D0652
:101E500010926E0610926F061092700690937206A2
:101E60008093710610927306109274061092750694
:101E7000109276069093800680937F0610928106DA
:101E80001092820610928306109284069093780630
:101E9000809377061092790610927A0610927B064C
:101EA00010927C0690938606809385061092870692
:101EB000109288061092890610928A0690938C06DA
:101EC00080938B0610928D0610928E0610928F06CC
:101ED000109290069093920680939106109293062A
:101EE0001092940610929506109296061092B703DF
:101EF0001092B8031092B9031092BA0386E090E0F2
:101F00009093BC038093BB031092BD031092BE0359
:101F10001092BF031092C0031092C1031092C2032B
:101F20001092C3031092C403109226041092250449
:101F300010922804109227041092290410922E0463
:101F400020935406109259061092580686E3809307
:101F50005A0610925D068DE280935E0687E98093B3
:101F6000570689E492E090935606809355068AE4DA
:101F700092E090935C0680935B06EAE9F4E01182BC
:101F800010821282138214821582DF01A756B109D2
:101F90001C92E359FF4F86E0EB3BF80781F7089569
:101FA000DB018F939F9388D0BF91AF91A29F800D4B
:101FB000911DA39F900DB29F900D11240895EE0FD7
:101FC000FF1F881F8BBF0790F691E02D199481E0C9
:101FD00090E0F894B2C08F929F92AF92BF92CF924E
:101FE000DF92EF92FF92CF93DF93EC0168817981CA
:101FF0008A819B81611571058105910521F464E257
:1020000079ED8BE597E02DE133EF41E050E038D0FA
:1020100049015A019B01AC01A7EAB1E44DD06B0123
:102020007C01ACEEB4EFA501940152D0DC01CB01F0
:102030008C0D9D1DAE1DBF1DB7FF03C00197A109EB
:10204000B04888839983AA83BB83BC01CD019F7765
:10205000DF91CF91FF90EF90DF90CF90BF90AF9046
:102060009F908F900895B7CF80E192E0B4CF6093B6
:10207000100270931102809312029093130208953C
:10208000052E97FB16F400940FD057FD05D024D0F1
:1020900007FC02D046F408C0509540953095219534
:1020A0003F4F4F4F5F4F0895909580957095619584
:1020B0007F4F8F4F9F4F089531D0A59F900DB49FB4
:1020C000900DA49F800D911D11240895B7FFF4CFAA
:1020D000F3DF821B930B0895A1E21A2EAA1BBB1BF0
:1020E000FD010DC0AA1FBB1FEE1FFF1FA217B307E4
:1020F000E407F50720F0A21BB30BE40BF50B661FFA
:10210000771F881F991F1A9469F7609570958095BD
:1021100090959B01AC01BD01CF010895A29FB00134
:10212000B39FC001A39F700D811D1124911DB29F0B
:0E213000700D811D1124911D0895F894FFCFAC
:10213E0031023102310231023102310231023102F9
:10214E000100000000000000920135085C013A0118
:10215E004E01D801000000003302C606B6069C06EA
:10216E0071063202000000004B02436F6E6E656313
:10217E0074696F6E2077697468206465766963652B
:10218E002049442000206973206C6F73742E005018
:10219E0061636B6574206275666665722069732073
:1021AE0066756C6C2C20686173206E6F77206120D1
:1021BE006C656E677468206F6620000D0A00506FA4
:1021CE00737369626C652077726F6E6720627573C8
:1021DE0020636F6E66696775726174696F6E210038
:1021EE0068696768657220504A4F4E5F4D41585F6F
:1021FE005041434B455453206966206E65636573A9
:10220E00736172792E00436F6E74656E74206973FC
:10221E0020746F6F206C6F6E672C206C656E677408
:04222E00683A2000EA
:00000001FF
