:1000000007C10000A1C7000074C7000047C7000077
:100010001AC70000EDC60000C0C6000093C600006D
:1000200066C6000025C1000023C1000021C10000F8
:100030001FC100001DC100001BC1000019C100004C
:1000400017C1000015C1000013C1000011C100005C
:100050000FC100000DC100000BC10000FEC5000073
:1000600007C10000EAC40000BFC4000001C10000D5
:10007000FFC00000FDC00000FBC00000F9C0000090
:10008000F7C00000F5C00000F3C00000F1C00000A0
:10009000EFC00000EDC00000EBC00000E9C00000B0
:1000A000E7C00000E5C00000E3C00000E1C00000C0
:1000B000DFC00000DDC00000DBC00000D9C00000D0
:1000C000D7C00000D5C00000D3C00000D1C00000E0
:1000D000CFC00000CDC00000CBC00000C9C00000F0
:1000E000C7C0000082058505740578057C05BC0540
:1000F00089058D05930597059B05A105A505A9050E
:10010000BC05AF05B305B705000022002500280097
:100110002B002E003100340002010000050108010F
:100120000B0100002100240027002A002D003000D0
:10013000330001010000040107010A01050505055E
:10014000070508080808020202020A0A080804044F
:10015000040401010101010101010303030303037D
:100160000303040707070C0C0C0C0C0C0C0C02020C
:10017000020206060606060606060B0B0B0B0B0B09
:100180000B0B010210202008081020401020408096
:10019000020102010804020101020408102040804B
:1001A00080402010080402018004020180402010D9
:1001B0000804020108040201010204081020408022
:1001C000010204081020408000000A0B02090C0DF7
:1001D0000E080703040100000000000000000000FA
:1001E000000000000000000000000000000000000F
:1001F00000000000121110000000000000000000CC
:100200000000000000000000000000000000FA0CE8
:1002100011241FBECFEFD1E2DEBFCDBF00E00CBF87
:1002200014E0A0E0B2E0E0E3F2E200E00BBF02C0C5
:1002300007900D92A033B107D9F727E0A0E3B4E00F
:1002400001C01D92AF3DB207E1F711E0C8E0D1E077
:1002500000E006C021970109802FFE010E943E0E9A
:10026000C730D10780E00807A9F792D70C94161180
:10027000C7CE8F929F92AF92BF92CF92DF92EF92B2
:10028000FF920F931F93CF93DF937C018B016C013F
:1002900082E0C80ED11C4701E5E08E0E911CC0E043
:1002A000D0E0F60141916F0150E060E070E02AE09B
:1002B000C801FCD05C016EE2C801C7D08A0D9B1D4D
:1002C000C80FD91FC814D90461F7F701458150E060
:1002D00060E070E02AE0C801E9D08C0F9D1FDF913B
:1002E000CF911F910F91FF90EF90DF90CF90BF9033
:1002F000AF909F908F90089581E494E04FD221E0D9
:10030000892B09F420E0822F0895CF92DF92EF929B
:10031000FF920F931F93CF93DF936C017A018B01B0
:10032000C0E0D0E0CE15DF0589F0D8016D918D01D8
:10033000D601ED91FC910190F081E02DC601199557
:10034000892B11F47E0102C02196ECCFC701DF9109
:10035000CF911F910F91FF90EF90DF90CF90089574
:1003600090E0FC01EE57FE4F2491FC01E45CFE4F4F
:100370008491882399F090E0880F991FFC01EE5D2D
:10038000FE4FA591B491FC01E85FFE4F85919491D9
:100390008FB7F894EC91E22BEC938FBF08951092F5
:1003A000F7041092F6046DE18EED94E025D6482F07
:1003B0004E7F6DE98EED94E0F2C5CF93DF9362E15D
:1003C0008EED94E019D6C82FEADF4C2F62E98EED4E
:1003D00094E0E5D5C6FF23C0C5FD21C01092F50409
:1003E0001092F4048091F6049091F704892B11F097
:1003F00062E201C063E18EED94E0FED5C82FD0E04B
:1004000060E18EED94E0F8D5482F6DE88EED94E034
:10041000C6D541E861E88EED94E0C1D512C061E037
:100420008EED94E0E9D5863851F040E06DE88EED30
:1004300094E0B5D546E861E88EED94E0B0D5C0E033
:10044000D0E0CE01DF91CF910895DC01ED91FC91D8
:100450000190F081E02D19946115710579F0FB018F
:1004600001900020E9F73197AF01461B570BDC01E3
:10047000ED91FC910280F381E02D199480E090E0F1
:100480000895BC0181E494E0E7CFCF93DF93BC01F2
:1004900081E494E0E1DFEC0161E972E081E494E061
:1004A000DBDF8C0F9D1FDF91CF9108954F925F92FC
:1004B0006F927F92EF92FF920F931F93CF93DF93F0
:1004C000CDB7DEB7A1970FB6F894DEBF0FBECDBF94
:1004D0007C01FA01CB0119A2223008F42AE08E0136
:1004E0000F5D1F4F422E512C612C712CBF01A301B7
:1004F00092010E94E510F901CA01015011096A3008
:1005000014F4605D01C0695CD8016C93232B242B2B
:10051000252B61F7B801C7019FDFA1960FB6F894AC
:10052000DEBF0FBECDBFDF91CF911F910F91FF9026
:10053000EF907F906F905F904F900895CF92DF92F1
:10054000EF92FF92CF93DF936C01990FEE08FF08B3
:10055000F7FE14C06DE281E494E077DFEC014427FC
:100560005527BA014C195D096E097F092AE081E41B
:1005700094E09CDF7C01EC0EFD1E07C02AE0B70171
:10058000A60181E494E092DF7C0161E972E081E4FC
:1005900094E062DF8E0D9F1DDF91CF91FF90EF9071
:1005A000DF90CF9008954F925F926F927F928F92DB
:1005B0009F92AF92BF92CF92DF92EF92FF926B0128
:1005C0007C01B42E9B01AC010E94430F882319F0DB
:1005D0006DE673E027C026013701E89477F82FEF26
:1005E0003FEF4FE75FE7C301B2010E94430F811164
:1005F0000DC02FEF3FEF4FE75FE7C301B2010E944D
:10060000A00F18161CF461E773E00CC02FEF3FEF4A
:100610004FE75FE4C701B6010E943F0F18168CF444
:1006200065E773E081E494E0FF90EF90DF90CF9076
:10063000BF90AF909F908F907F906F905F904F9002
:100640000BCF2FEF3FEF4FE75FECC701B6010E94E2
:10065000A00F87FDE5CF20E030E0A901C701B6017A
:100660000E94A00F87FF0AC06DE281E494E0EDDEF6
:100670004C01F7FAF094F7F8F09402C0812C912C19
:10068000A12C60E070E080E09FE3AB1441F020E03B
:1006900030E040E251E40E94AB0EA394F6CF9B0100
:1006A000AC01C701B6010E94470E2B013C010E941C
:1006B000130F6B017C010E94A40F9B01AC01C301CD
:1006C000B2010E94460E2B013C012AE0B701A601AF
:1006D00081E494E0EBDE7C01E80CF91CBB2031F0F6
:1006E0006EE281E494E0B1DEE80EF91EDB2CDD2041
:1006F00029F120E030E040E251E4C301B2010E9460
:1007000005102B013C010E94130F4B01A12CB12CB1
:100710002AE0B501A40181E494E0C8DEE80EF91EE8
:10072000C501B4010E94A40F9B01AC01C301B20139
:100730000E94460E2B013C01DA94D9CFC701FF90ED
:10074000EF90DF90CF90BF90AF909F908F907F9071
:100750006F905F904F900895FC01918D828D981756
:1007600061F0828DDF01A80FB11D5D968C91928D95
:100770009F5F9F73928F90E008958FEF9FEF089592
:10078000FC01918D828D981731F0828DE80FF11D5B
:10079000858D90E008958FEF9FEF0895FC01918D76
:1007A000228D892F90E0805C9F4F821B91098F736F
:1007B00099270895FC01848DDF01A80FB11DA35A6C
:1007C000BF4F2C91848D90E001968F739927848F71
:1007D000A689B7892C93A089B1898C9180648C9368
:1007E000938D848D981306C00288F389E02D808153
:1007F0008F7D80830895EF92FF920F931F93CF9385
:10080000DF93EC0181E0888F9B8D8C8D981305C060
:10081000E889F989808185FD23C0F62E0B8D10E0D3
:100820000F5F1F4F0F731127E02E8C8DE8120BC046
:100830000FB607FCFACFE889F989808185FFF5CFEB
:10084000CE01B8DFF2CF8B8DFE01E80FF11DE35A28
:10085000FF4FF0820B8FEA89FB898081806207C09D
:10086000EE89FF896083E889F989808180648083CB
:1008700081E090E0DF91CF911F910F91FF90EF9079
:100880000895CF93DF93EC01888D8823C1F0EA8926
:10089000FB89808185FD05C0A889B9898C9186FD79
:1008A0000EC00FB607FCF5CF808185FFF2CFA88977
:1008B000B9898C9185FFEDCFCE017CDFE8CFDF9148
:1008C000CF91089580E090E0892B19F015DD81111A
:1008D00025C080E090E0892B41F080E090E0892BFA
:1008E00021F00E94000081111CC080E090E0892B63
:1008F00041F080E090E0892B21F00E9400008111FE
:1009000013C080E090E0892BA1F080E090E0892B7B
:1009100081F00E94000081110AC008950E94000029
:10092000D8CF0E940000E1CF0E940000EACF0C94D3
:100930000000089508950895CF93DF931F92CDB7D7
:10094000DEB76983DC01ED91FC910280F381E02D3B
:1009500041E050E0BE016F5F7F4F19950F90DF912E
:10096000CF910895089508950E94470FCF93C62F01
:10097000853671F489E793E084DD4C2F50E060E028
:1009800070E02AE081E494E091DD84E993E015C011
:100990008636A9F48EE993E074DD8DE6C89FF001F8
:1009A0001124E958FA4F8081082E000C990BC6DDFE
:1009B0008AEC93E06ADD8CEE93E0CF9166CD8836C9
:1009C00089F482E194E05DDD4C2F50E060E070E05E
:1009D0002AE081E494E06ADD61E972E081E494E078
:1009E000CF913ACDCF9108951F920F920FB60F92EB
:1009F00011240BB60F922F933F934F935F936F93F6
:100A00007F938F939F93AF93BF93EF93FF9381E473
:100A100094E0D0DEFF91EF91BF91AF919F918F91C4
:100A20007F916F915F914F913F912F910F900BBEEE
:100A30000F900FBE0F901F9018951F920F920FB638
:100A40000F9211240BB60F922F938F939F93EF93D6
:100A5000FF93E0915104F09152048081E09157049A
:100A6000F091580482FD12C0908180915A048F5FEA
:100A70008F7320915B04821751F0E0915A04F0E0EB
:100A8000EF5BFB4F958F80935A0401C08081FF91EB
:100A9000EF919F918F912F910F900BBE0F900FBEF2
:100AA0000F901F901895362F90E0FC01E853FE4FF1
:100AB0004491FC01EE57FE4F2491FC01E45CFE4F93
:100AC0009491992309F46BC0442309F455C050E074
:100AD000FA013197E231F10508F04EC08827EE584F
:100AE000FF4F8F4F0C943E0E809180008F7707C090
:100AF000809180008F7D03C080918000877F8093EC
:100B000080003AC084B58F7702C084B58F7D84BDE4
:100B100033C08091B0008F7703C08091B0008F7D8B
:100B20008093B00029C0809190008F7707C080919A
:100B300090008F7D03C080919000877F809390000C
:100B40001BC08091A0008F7707C08091A0008F7D8F
:100B500003C08091A000877F8093A0000DC080918A
:100B600020018F7707C0809120018F7D03C0809185
:100B70002001877F80932001E92FF0E0EE0FFF1F17
:100B8000E85FFE4FA591B4918FB7F894EC913111C5
:100B900003C020952E2301C02E2B2C938FBF0895C8
:100BA0003FB7F8948091DB079091DC07A091DD07B7
:100BB000B091DE0726B5A89B05C02F3F19F001961E
:100BC000A11DB11D3FBFBA2FA92F982F8827820FD3
:100BD000911DA11DB11DBC01CD0142E0660F771F23
:100BE000881F991F4A95D1F708958F929F92AF92CF
:100BF000BF92CF92DF92EF92FF926B017C01D0DF28
:100C00004B015C01C114D104E104F104E9F0C8DF37
:100C1000DC01CB0188199909AA09BB09883E9340D8
:100C2000A105B10578F321E0C21AD108E108F10865
:100C300088EE880E83E0981EA11CB11CC114D1045B
:100C4000E104F10421F7DECFFF90EF90DF90CF9029
:100C5000BF90AF909F908F9008951F920F920FB604
:100C60000F9211242F933F938F939F93AF93BF9332
:100C70008091300490913104A0913204B0913304FA
:100C80003091DA0723E0230F2D3720F40196A11DC0
:100C9000B11D05C026E8230F0296A11DB11D2093AA
:100CA000DA078093300490933104A0933204B09318
:100CB00033048091DB079091DC07A091DD07B091B0
:100CC000DE070196A11DB11D8093DB079093DC0721
:100CD000A093DD07B093DE07BF91AF919F918F91F5
:100CE0003F912F910F900FBE0F901F9018951F925C
:100CF0000F920FB60F9211240BB60F922F933F93C2
:100D00004F935F936F937F938F939F93AF93BF9313
:100D1000EF93FF93E0912302F09124021995FF9144
:100D2000EF91BF91AF919F918F917F916F915F9163
:100D30004F913F912F910F900BBE0F900FBE0F90D0
:100D40001F9018951F920F920FB60F9211240BB699
:100D50000F922F933F934F935F936F937F938F9354
:100D60009F93AF93BF93EF93FF93E0912102F09194
:100D700022021995FF91EF91BF91AF919F918F91B1
:100D80007F916F915F914F913F912F910F900BBE8B
:100D90000F900FBE0F901F9018951F920F920FB6D5
:100DA0000F9211240BB60F922F933F934F935F93A3
:100DB0006F937F938F939F93AF93BF93EF93FF9323
:100DC000E0911702F09118021995FF91EF91BF91F0
:100DD000AF919F918F917F916F915F914F913F91D3
:100DE0002F910F900BBE0F900FBE0F901F90189574
:100DF0001F920F920FB60F9211240BB60F922F93E2
:100E00003F934F935F936F937F938F939F93AF9392
:100E1000BF93EF93FF93E0911502F091160219959D
:100E2000FF91EF91BF91AF919F918F917F916F91C2
:100E30005F914F913F912F910F900BBE0F900FBE7E
:100E40000F901F9018951F920F920FB60F921124BA
:100E50000BB60F922F933F934F935F936F937F93B4
:100E60008F939F93AF93BF93EF93FF93E0911F02F4
:100E7000F09120021995FF91EF91BF91AF919F9151
:100E80008F917F916F915F914F913F912F910F9033
:100E90000BBE0F900FBE0F901F9018951F920F92D0
:100EA0000FB60F9211240BB60F922F933F934F93CF
:100EB0005F936F937F938F939F93AF93BF93EF93C2
:100EC000FF93E0911D02F0911E021995FF91EF91A1
:100ED000BF91AF919F918F917F916F915F914F9152
:100EE0003F912F910F900BBE0F900FBE0F901F9050
:100EF00018951F920F920FB60F9211240BB60F92F6
:100F00002F933F934F935F936F937F938F939F9311
:100F1000AF93BF93EF93FF93E0911B02F0911C02FC
:100F20001995FF91EF91BF91AF919F918F917F9113
:100F30006F915F914F913F912F910F900BBE0F904A
:100F40000FBE0F901F9018951F920F920FB60F9221
:100F500011240BB60F922F933F934F935F936F9390
:100F60007F938F939F93AF93BF93EF93FF93E09102
:100F70001902F0911A021995FF91EF91BF91AF916B
:100F80009F918F917F916F915F914F913F912F91A1
:100F90000F900BBE0F900FBE0F901F901895EF9201
:100FA000FF921F93CF93DF931F92CDB7DEB77C01E3
:100FB000162F60E0FC018685498375DDF701948575
:100FC00085859CBD8DBD1EBD000049810DB407FE09
:100FD000FDCF8EB54EBD00000DB407FEFDCF1EB592
:100FE00061E0F70186855FDD812F0F90DF91CF9162
:100FF0001F91FF90EF9008956F7740E0D0CFEF9270
:10100000FF921F93CF93DF931F92CDB7DEB77C0182
:10101000DC01ED91FC910480F581E02D1995892B7F
:1010200081F06DE0C701E8DF482F60E0C701498328
:10103000E3DF182F49816DE8C701B1DF812F90E010
:1010400002C08FEF9FEF0F90DF91CF911F91FF9024
:10105000EF900895CF93DF93EC01E881F98104804C
:10106000F581E02D1995892B51F08E899F89019684
:101070009F8B8E8B60E0CE01BFDF90E002C08FEFD0
:101080009FEFDF91CF910895CF93DF93EC0163E160
:10109000B3DF282F30E08E899F89A901481B590BA7
:1010A000CA01DF91CF9108958F929F92AF92BF9224
:1010B000CF92DF92FF920F931F93CF93DF931F92F4
:1010C000CDB7DEB76C01B62E4A0162E2798394DFB8
:1010D000F82E90E09C01280D391D79812F3F3105B4
:1010E00031F028F02FEF30E04901881A990A0B2DD2
:1010F000172F5801A80CB91C0A151B0539F0F80167
:1011000041918F0160E8C6014ADFF6CF482D4F0DAF
:1011100062EAC60144DFC4010F90DF91CF911F91B5
:101120000F91FF90DF90CF90BF90AF909F908F90E6
:1011300008956F3F710519F4FC0160817181CB0145
:101140008270992760FF04C0892B31F485E007C0C5
:10115000892B21F481E003C08AE001C082E066FDB2
:1011600002C091E001C092E0890F67FD02C091E0EA
:1011700001C092E0890F65FD02C091E001C094E0DA
:10118000890F63FD02C090E001C092E0890F0895CD
:10119000789484B5826084BD84B5816084BD85B552
:1011A000826085BD85B5816085BD80916E0081605E
:1011B00080936E0010928100809181008260809304
:1011C0008100809181008160809381008091800006
:1011D0008160809380008091B10084608093B10031
:1011E0008091B00081608093B00080919100826016
:1011F0008093910080919100816080939100809113
:1012000090008160809390008091A1008260809323
:10121000A1008091A10081608093A1008091A00035
:1012200081608093A00080912101826080932101E0
:101230008091210181608093210180912001816052
:101240008093200180917A00846080937A0080915D
:101250007A00826080937A0080917A008160809326
:101260007A0080917A00806880937A001092C100A1
:101270008091EC0475D88091EE0472D860E0809182
:10128000EE0411DC6AE070E080E090E0AEDC61E04A
:101290008091EE0408DC6AE070E080E090E0A5DC7C
:1012A00061E08091EC04FFDBCFB7F89480913404C7
:1012B000811120C0E1E7F1E08491E7EBF1E0949146
:1012C000E82FF0E0EE0FFF1FEE5DFE4FA591B49109
:1012D000EC91E92319F461E085E3E5DB85E340D88F
:1012E0008CB580618CBD8CB580648CBD84E338D8AE
:1012F00083E336D8809134048F5F80933404CFBF6A
:1013000062E48EED94E078DE823109F03DC040E881
:1013100061E88EED94E043DE80EA97E29093F30477
:101320008093F20449ED66E88EED94E038DE46E005
:1013300067E88EED94E033DE46E668E88EED94E0F3
:101340002EDE40E06EE88EED94E029DE40E06FE8AE
:101350008EED94E024DE6CE08EED94E04DDE482FBF
:1013600043606CE88EED94E01ADE44E066EA8EEDB0
:1013700094E015DE4FE869E88EED94E010DE41E878
:1013800061E88EED94E00BDE6DE18EED94E034DEED
:101390008F70482F40686DE98EED94E000DE86EB9B
:1013A00094E0909399078093980780919D078633E6
:1013B00008F0865390917B00282F2870977F922BFE
:1013C00090937B008770806480937C0080917A008A
:1013D000806480937A0080917A0086FDFCCF6091D2
:1013E00078008091790070E0782B8091A107680FD8
:1013F000711D072E000C880B990B61157105810575
:10140000910509F094D5C091A1078ED528EE33E05F
:1014100040E050E0AED62C2F30E0620F731F6230F8
:10142000710540F0660F771F660F771FCB01059798
:101430000197F1F7E0915104F091520482E080832A
:10144000E0914D04F0914E041082E0914F04F09130
:10145000500480E1808310925904E0915504F0918A
:10146000560486E08083E0915304F0915404808117
:1014700080618083E0915304F091540480818860FE
:101480008083E0915304F0915404808180688083CC
:10149000E0915304F091540480818F7D80838FE428
:1014A00092E00E94450287E692E00E94450261E9CF
:1014B00072E081E494E00E942C02ACE8DA2EB8E0FD
:1014C000EB2EB5E0FB2E8FB7F8948090300490900F
:1014D0003104A0903204B09033048FBF8CE2C82E48
:1014E0002FB7F8948091300490913104A091320488
:1014F000B09133042FBF88199909AA09BB0988380C
:101500009341A105B10508F06BC10091FE04109153
:10151000FF040F3F110511F008F00068B8018EEFCD
:1015200094E007DE9801220F232F221F330B319501
:10153000922F9170692E9801F6E036952795FA95CD
:10154000E1F7B22FB1707B2E05FD05C00062B80136
:101550008EEF94E0EEDDC82FD0E06496CF3FD1054A
:1015600059F050F071100BC00064B8018EEF94E098
:10157000E0DDC82FD0E06496C036D10540F0E091A0
:101580009807F09199076C2F88E619951FC1C092B2
:10159000080500930905611010930A05862D90E057
:1015A000FC017096E650FB4F772039F01082FC0169
:1015B0007196E650FB4FC08301C0C083A801427002
:1015C000552700FF2CC0272D30E0F901E80FF91F47
:1015D000E55FFA4F409000055090010560900205CC
:1015E000709003054082518262827382452B11F113
:1015F000F901E80FF91FE15FFA4F409100055091A2
:101600000105609102057091030540835183628357
:101610007383820F931FFC01ED5EFA4F08C0452BC8
:1016200049F0FC013396E70DF11DE85FFA4F809118
:10163000A1078083DE015497C8018072992705FDB8
:1016400003C021E030E002C024E030E0A21BB30B75
:10165000A85FBA4F24E1E0E0F2E001900D922A95F4
:10166000E1F7892BE9F1CE010497E8E0F5E09E016E
:101670004FEF5FEFBA01A1914A27A9E0A150B1F065
:101680002A013B01769467945794479440FF0BC01E
:10169000B301A201B0E24B27B3E85B27B8EB6B279D
:1016A000BDEE7B27EBCFB301A201E8CF215031097A
:1016B0002430310501F74095509560957095FC01F7
:1016C000E85FFA4F7083FE01EB5FFA4F6083FE0123
:1016D000EA5FFA4F5083FE01E95FFA4F408323C06F
:1016E000AE0141505109FE01E95FFA4F60E020E090
:1016F00030E0D901A650BB4F1E96AC9178E0B62FD2
:10170000BA27862F90E095958795682FB0FF02C085
:101710006D2D6827A595715091F72F5F3F4F2417C6
:10172000350738F36083E114F10409F44FC0809168
:101730009A07863909F015C11C2F41E861E88EED42
:1017400094E02DDC0E94CF0140E06DE88EED94E046
:1017500026DC40E062EA8EED94E021DCC8E0D5E0D2
:1017600069918EED94E0E8D88C2F8E198117C0F323
:1017700043E861E88EED94E012DC62E18EED94E0E6
:101780003BDC83FFFACF48E062E98EED94E007DCB2
:1017900080910805882309F40DC18091090582FF15
:1017A00009C180919A07863909F404C1F9D92B013E
:1017B0003C01F6D9DC01CB0184199509A609B709CA
:1017C000803A9648A140B10508F4E6C080913504FE
:1017D00090913604019690933604809335047ECE22
:1017E00084E992E00E94410220E030E040ED51E4C3
:1017F00060913D0470913E0480913F0490914004BB
:1018000004D420E030E040EA50E4A5D242E00E9457
:10181000D30289EA92E00E9445028DEA92E00E949A
:10182000410220E030E040EA51E460913D047091D3
:101830003E0480913F0490914004E7D320E030E0E3
:1018400040EA50E488D242E00E94D30289EA92E062
:101850000E94450283EC92E00E94410260913D04A7
:1018600070913E0480913F049091400442E00E94B8
:10187000D30261E972E081E494E00E942C0282EDDF
:1018800092E00E9441026091390470913A04809183
:101890003B0490913C0442E00E94D30261E972E073
:1018A00081E494E00E942C0283EF92E00E944102C6
:1018B00080913504909136040E949E0283E193E06A
:1018C0000E94410280913704909138040E949E0248
:1018D00087E493E00E9441022091390430913A0458
:1018E00040913B0450913C0460913D0470913E0452
:1018F00080913F04909140042ED29B01AC0160E0A6
:1019000070E088EC92E427D29B01AC0160E070E0CB
:1019100088EC92E4BBD142E00E94D30282E593E0DE
:101920000E94450285E593E00E94450210923D0425
:1019300010923E0410923F04109240041092390419
:1019400010923A0410923B0410923C041092380416
:101950001092370410923604109235040E946204EB
:10196000B2CD0E94DD0118161906D4F119D90091E3
:10197000FA041091FB042091FC043091FD04DC0179
:10198000CB01801B910BA20BB30B803C9648A1406E
:10199000B10508F0D1CE24C00E94DD01882309F4EE
:1019A00008CF8EED94E056DB8630910519F0019654
:1019B000B9F40CCF20E030E040E85FE360913D04F3
:1019C00070913E0480913F049091400460D16093F7
:1019D0003D0470933E0480933F049093400480CD77
:1019E0008091370490913804019690933804809345
:1019F000370476CD8DE492E09093A3078093A207FD
:101A00001092A4071092A5071092A6071092A7079C
:101A1000109244041092430448EE53E060E070E0FA
:101A200040934504509346046093470470934804E0
:101A30002DE232E0309342042093410425EC30E063
:101A400030934E0420934D0424EC30E03093500446
:101A500020934F0420EC30E0309352042093510443
:101A600021EC30E0309354042093530422EC30E016
:101A7000309356042093550426EC30E030935804FC
:101A80002093570410925A0410925B0410925C0445
:101A900010925D041092E1041092E0042DE332E014
:101AA0003093DF042093DE0420E52093EA0421E054
:101AB0002093EB044AE050E05093ED044093EC0493
:101AC00049E050E05093EF044093EE0442E050E0D0
:101AD0005093F1044093F0041092F3041092F20436
:101AE0001092F5041092F4041092F7041092F60488
:101AF0001092F9041092F8041092E2041092E30498
:101B00001092E4041092E5049093A9078093A8072B
:101B10001092AA071092AB071092AC071092AD0773
:101B20009093AF078093AE071092B0071092B10761
:101B30001092B2071092B3079093B5078093B40741
:101B40001092B6071092B7071092B8071092B90713
:101B50009093C3078093C2071092C4071092C507E1
:101B60001092C6071092C7079093BB078093BA07DD
:101B70001092BC071092BD071092BE071092BF07CB
:101B80009093C9078093C8071092CA071092CB0799
:101B90001092CC071092CD079093CF078093CE0779
:101BA0001092D0071092D1071092D2071092D3074B
:101BB0009093D5078093D4071092D6071092D70739
:101BC0001092D8071092D9071092FA041092FB04D1
:101BD0001092FC041092FD0486E090E09093FF04C4
:101BE0008093FE04109200051092010510920205E8
:101BF0001092030510920405109205051092060537
:101C000010920705109269051092680510926B05F5
:101C100010926A0510926C05109271052093970737
:101C200010929C0710929B0786E380939D07109269
:101C3000A0078DE28093A10787E980939A0782EB42
:101C400094E0909399078093980783EB94E09093A6
:101C50009F0780939E07EDEDF5E0118210821282BE
:101C6000138214821582DF01A756B1091C92E35931
:101C7000FF4F87E0EE3FF80781F70895EE0FFF1F53
:101C8000881F8BBF0790F691E02D19945058BB2701
:101C9000AA270ED034C225D230F02AD220F031F457
:101CA0009F3F11F41EF41AC20EF4E095E7FB10C238
:101CB000E92F36D280F3BA176207730784079507B6
:101CC00018F071F49EF54EC20EF4E0950B2EBA2F6B
:101CD000A02D0B01B90190010C01CA01A001112432
:101CE000FF27591B99F0593F50F4503E68F11A16DE
:101CF000F040A22F232F342F4427585FF3CF46956F
:101D000037952795A795F0405395C9F77EF41F1690
:101D1000BA0B620B730B840BBAF09150A1F0FF0F5A
:101D2000BB1F661F771F881FC2F70EC0BA0F621F46
:101D3000731F841F48F4879577956795B795F79536
:101D40009E3F08F0B3CF9395880F08F09927EE0FC8
:101D50009795879508950CD0D2C1CAD140F0C1D1D2
:101D600030F021F45F3F19F0B3C15111FCC1B6C18D
:101D7000D7D198F39923C9F35523B1F3951B550B8C
:101D8000BB27AA2762177307840738F09F5F5F4F4E
:101D9000220F331F441FAA1FA9F333D00E2E3AF08F
:101DA000E0E830D091505040E695001CCAF729D0A9
:101DB000FE2F27D0660F771F881FBB1F26173707F8
:101DC0004807AB07B0E809F0BB0B802DBF01FF2728
:101DD00093585F4F2AF09E3F510568F079C1C3C107
:101DE0005F3FECF3983EDCF3869577956795B79562
:101DF000F7959F5FC9F7880F911D9695879597F97D
:101E00000895E1E0660F771F881FBB1F62177307F5
:101E10008407BA0720F0621B730B840BBA0BEE1F0A
:101E200088F7E095089584D188F09F5790F0B92FF6
:101E30009927B751A0F0D1F0660F771F881F991F1F
:101E40001AF0BA95C9F712C0B13081F08BD1B1E068
:101E5000089588C1672F782F8827B85F39F0B93F78
:101E6000CCF3869577956795B395D9F73EF4909521
:101E70008095709561957F4F8F4F9F4F0895A1D0AA
:101E800008F48FEF08959DD0880B990B089581E099
:101E900090E0F894CBC18F929F92AF92BF92CF9275
:101EA000DF92EF92FF92CF93DF93EC01688179810B
:101EB0008A819B81611571058105910521F464E298
:101EC00079ED8BE597E02DE133EF41E050E051D122
:101ED00049015A019B01AC01A7EAB1E466D16B014B
:101EE0007C01ACEEB4EFA50194016BD1DC01CB0118
:101EF0008C0D9D1DAE1DBF1DB7FF03C00197A1092D
:101F0000B04888839983AA83BB83BC01CD019F77A6
:101F1000DF91CF91FF90EF90DF90CF90BF90AF9087
:101F20009F908F900895B7CF85E292E0B4CF6093F1
:101F30002502709326028093270290932802089529
:101F400040D008F481E00895E89409C097FB3EF47E
:101F500090958095709561957F4F8F4F9F4F9923F6
:101F6000A9F0F92F96E9BB279395F6958795779574
:101F70006795B795F111F8CFFAF4BB0F11F460FF34
:101F80001BC06F5F7F4F8F4F9F4F16C0882311F08C
:101F900096E911C0772321F09EE8872F762F05C0A0
:101FA000662371F096E8862F70E060E02AF09A953B
:101FB000660F771F881FDAF7880F9695879597F930
:101FC0000895990F0008550FAA0BE0E8FEEF1616CA
:101FD0001706E807F907C0F012161306E407F5071D
:101FE00098F0621B730B840B950B39F40A2661F091
:101FF000232B242B252B21F408950A2609F4A14034
:10200000A6958FEF811D811D08950BD078C069D0F2
:1020100028F06ED018F0952309F05AC05FC0112443
:10202000A2C07ED0A0F3959FD1F3950F50E0551F2D
:10203000629FF001729FBB27F00DB11D639FAA271D
:10204000F00DB11DAA1F649F6627B00DA11D661F6C
:10205000829F2227B00DA11D621F739FB00DA11D8D
:10206000621F839FA00D611D221F749F3327A00D47
:10207000611D231F849F600D211D822F762F6A2FE3
:1020800011249F5750408AF0E1F088234AF0EE0F68
:10209000FF1FBB1F661F771F881F91505040A9F775
:1020A0009E3F510570F014C05EC05F3FECF3983E58
:1020B000DCF3869577956795B795F795E7959F5FDC
:1020C000C1F7FE2B880F911D9695879597F9089576
:1020D00097F99F6780E870E060E008959FEF80ECDB
:1020E000089500240A94161617061806090608957E
:1020F00000240A9412161306140605060895092EE4
:102100000394000C11F4882352F0BB0F40F4BF2B52
:1021100011F460FF04C06F5F7F4F8F4F9F4F089592
:1021200057FD9058440F551F59F05F3F71F0479588
:10213000880F97FB991F61F09F3F79F0879508956D
:10214000121613061406551FF2CF4695F1DF08C08C
:10215000161617061806991FF1CF869571056105A9
:1021600008940895E894BB2766277727CB0197F951
:102170000895052E97FB16F400940FD057FD05D057
:1021800024D007FC02D046F408C050954095309505
:1021900021953F4F4F4F5F4F0895909580957095D3
:1021A00061957F4F8F4F9F4F089531D0A59F900D20
:1021B000B49F900DA49F800D911D11240895B7FF29
:1021C000F4CFF3DF821B930B0895A1E21A2EAA1B12
:1021D000BB1BFD010DC0AA1FBB1FEE1FFF1FA217D7
:1021E000B307E407F50720F0A21BB30BE40BF50BD4
:1021F000661F771F881F991F1A9469F7609570955D
:10220000809590959B01AC01BD01CF010895A29FDF
:10221000B001B39FC001A39F700D811D1124911DBA
:10222000B29F700D811D1124911D0895F894FFCF68
:102230003031323334353637383930313233343562
:1022400036373839009A049A049A049A049A049A00
:10225000049A049A040100000000000000FB0385BA
:1022600001CE03AC03C0034104000000009C0454F1
:102270000844082A08FF079B0400000000390150A9
:102280004A4F4E202D204E6574776F726B20616E21
:10229000616C79736973005374617274696E67203D
:1022A000612035207365636F6E6420636F6D6D759B
:1022B0006E69636174696F6E20746573742E2E2E5F
:1022C000000D0A004162736F6C75746520636F6D59
:1022D0002073706565643A2000422F73005072616C
:1022E00063746963616C2062616E647769647468A9
:1022F0003A20005061636B6574732073656E743AA5
:1023000020004D697374616B657320286572726F6C
:102310007220666F756E642077697468204352433B
:102320002920004661696C20286E6F20616E7377EA
:1023300065722066726F6D2072656365697665727D
:102340002920004275737920284368616E6E656CA0
:102350002069732062757379206F722061666665EB
:102360006374656420627920696E74657266657253
:10237000656E636529200041636375726163793A14
:102380002000202500202D2D2D2D2D2D2D2D2D2D06
:102390002D2D2D2D2D2D2D2D2D2D2D20006E616EF1
:1023A00000696E66006F766600436F6E6E656374DB
:1023B000696F6E207769746820646576696365204B
:1023C00049442000206973206C6F73742E005061A3
:1023D000636B65742062756666657220697320663A
:1023E000756C6C2C20686173206E6F772061206C97
:1023F000656E677468206F662000506F7373696242
:102400006C652077726F6E672062757320636F6EE4
:1024100066696775726174696F6E210068696768C3
:10242000657220504A4F4E5F4D41585F5041434BBB
:10243000455453206966206E6563657373617279D4
:102440002E00436F6E74656E7420697320746F6F15
:10245000206C6F6E672C206C656E6774683A200084
:020000023000CC
:10E000000D9489F10D94B2F10D94B2F10D94B2F129
:10E010000D94B2F10D94B2F10D94B2F10D94B2F1F0
:10E020000D94B2F10D94B2F10D94B2F10D94B2F1E0
:10E030000D94B2F10D94B2F10D94B2F10D94B2F1D0
:10E040000D94B2F10D94B2F10D94B2F10D94B2F1C0
:10E050000D94B2F10D94B2F10D94B2F10D94B2F1B0
:10E060000D94B2F10D94B2F10D94B2F10D94B2F1A0
:10E070000D94B2F10D94B2F10D94B2F10D94B2F190
:10E080000D94B2F10D94B2F10D94B2F10D94B2F180
:10E090000D94B2F10D94B2F10D94B2F10D94B2F170
:10E0A0000D94B2F10D94B2F10D94B2F10D94B2F160
:10E0B0000D94B2F10D94B2F10D94B2F10D94B2F150
:10E0C0000D94B2F10D94B2F10D94B2F10D94B2F140
:10E0D0000D94B2F10D94B2F10D94B2F10D94B2F130
:10E0E0000D94B2F141546D656761323536300041AF
:10E0F000726475696E6F206578706C6F72657220DE
:10E1000073746B3530305632206279204D4C530099
:10E11000426F6F746C6F616465723E004875683F52
:10E1200000436F6D70696C6564206F6E203D200048
:10E130004350552054797065202020203D20005FF9
:10E140005F4156525F415243485F5F3D2000415658
:10E1500052204C696243205665723D20004743437C
:10E160002056657273696F6E203D20004350552024
:10E1700049442020202020203D20004C6F7720663D
:10E18000757365202020203D20004869676820665F
:10E190007573652020203D200045787420667573D6
:10E1A00065202020203D20004C6F636B2066757336
:10E1B000652020203D20004D617220203720323024
:10E1C000313300312E362E3800342E332E350056A2
:10E1D00023202020414444522020206F7020636F70
:10E1E00064652020202020696E73747275637469E1
:10E1F0006F6E2061646472202020496E74657272B3
:10E20000757074006E6F20766563746F7200726A49
:10E210006D702020006A6D70200057686174207056
:10E220006F72743A00506F7274206E6F7420737541
:10E2300070706F72746564004D7573742062652030
:10E2400061206C6574746572002000577269747483
:10E25000696E672045450052656164696E672045B7
:10E26000450045452065727220636E743D00504F35
:10E27000525400303D5A65726F2061646472003FF1
:10E280003D43505520737461747300403D454550C3
:10E29000524F4D207465737400423D426C696E6B41
:10E2A000204C454400453D44756D70204545505215
:10E2B0004F4D00463D44756D7020464C415348001B
:10E2C000483D48656C70004C3D4C69737420492F83
:10E2D0004F20506F72747300513D51756974005234
:10E2E0003D44756D702052414D00563D73686F7707
:10E2F00020696E7465727275707420566563746FF0
:10E30000727300593D506F727420626C696E6B00BD
:10E310002A0011241FBECFEFD1E2DEBFCDBF01E046
:10E320000CBF12E0A0E0B2E0EEE1FDEF03E00BBFB6
:10E3300002C007900D92A030B107D9F712E0A0E01B
:10E34000B2E001C01D92AE30B107E1F70F9460F367
:10E350000D948DFE01E20EBF0FEF0DBF11241FBE05
:10E360000D9460F30D9400F020E030E040ED57E0B4
:10E3700005C0FA013197F1F72F5F3F4F2817390792
:10E38000C0F308959C01260F311DC901A0E0B0E043
:10E390002F5F3F4FABBFFC018791882361F08093D3
:10E3A000C6008091C00086FFFCCF8091C0008064D1
:10E3B0008093C000EACF08958DE08093C6008091DD
:10E3C000C00086FFFCCF8091C00080648093C000B5
:10E3D0008AE08093C6008091C00086FFFCCF8091C8
:10E3E000C00080648093C00008950F94C2F10F9420
:10E3F000DCF10895FC019081992359F09093C600B7
:10E400008091C00086FFFCCF8091C0008064809323
:10E41000C0003196992379F70895282F982F929567
:10E420009F70892F805D8A3308F0895F8093C600D2
:10E430008091C00086FFFCCF8091C00080648093F3
:10E44000C000822F8F70982F905D9A3308F0995FEB
:10E450009093C6008091C00086FFFCCF8091C000E1
:10E4600080648093C00008959C01FB01853691056E
:10E470001CF46330710594F0C90164E670E00F94F8
:10E480002EFE605D7F4F6093C6008091C00086FFC6
:10E49000FCCF8091C00080648093C0002B30310598
:10E4A00014F43297B4F0C90164E670E00F942EFEC4
:10E4B0006AE070E00F942EFE605D7F4F6093C600AF
:10E4C0008091C00086FFFCCF8091C0008064809363
:10E4D000C000C9016AE070E00F942EFEC0968093E0
:10E4E000C6008091C00086FFFCCF8091C000806490
:10E4F0008093C00008951F93182F8EE692EE60E07F
:10E500000F94C2F11093C6008091C00086FFFCCF2B
:10E510008091C00080648093C0000F94DCF11F9153
:10E5200008952F923F924F925F926F927F928F92B7
:10E530009F92AF92BF92CF92DF92EF92FF920F9392
:10E540001F93DF93CF93CDB7DEB762970FB6F894E2
:10E55000DEBF0FBECDBF382E622ECA01DB015C01CB
:10E560006D01772420E2222E2E010894411C511CBB
:10E570008BC081E0A81680E0B80681E0C80680E084
:10E58000D80628F0C601AA27BB270F940DF2BB2797
:10E59000AD2D9C2D8B2D0F940DF28A2D0F940DF225
:10E5A0002092C6008091C00086FFFCCF8091C00001
:10E5B00080648093C0009DE29093C6008091C0006B
:10E5C00086FFFCCF8091C00080648093C0002092C1
:10E5D000C6008091C00086FFFCCF8091C00080649F
:10E5E0008093C00019828601750188249924A1E0D6
:10E5F0003A1651F03A1620F0B2E03B1661F409C029
:10E600000BBFF701779007C0C7010F9477FE782EF4
:10E6100002C0F7017080872D0F940DF22092C60082
:10E620008091C00086FFFCCF8091C0008064809301
:10E63000C000872D8052F401EF70F0708F3520F408
:10E64000E40DF51D708204C0E40DF51D8EE280839B
:10E650000894E11CF11C011D111D0894811C911CE2
:10E6600090E18916910409F0C2CF80E190E0A0E02A
:10E67000B0E0A80EB91ECA1EDB1E198AC2010F9493
:10E68000FAF10F94DCF16A94662009F072CF629679
:10E690000FB6F894DEBF0FBECDBFCF91DF911F91B3
:10E6A0000F91FF90EF90DF90CF90BF90AF909F9031
:10E6B0008F907F906F905F904F903F902F90089534
:10E6C0002F923F924F925F926F927F928F929F9282
:10E6D000AF92BF92CF92DF92EF92FF920F931F9370
:10E6E000DF93CF93CDB7DEB7CD53D1400FB6F894BB
:10E6F000DEBF0FBECDBF01E20EBF0FEF0DBF94B75F
:10E70000F894A89514BE80916000886180936000A1
:10E7100010926000789493FF05C0E0910002F091A0
:10E7200001021995279A2F9A8091C00082608093E8
:10E73000C00080E18093C40088E18093C1000000A4
:10E74000EE24FF24870144E0A42EB12CCC24DD2448
:10E7500024C0C5010197F1F70894E11CF11C011DCB
:10E76000111D21E2E2162EE4F20620E0020720E06D
:10E77000120718F031E0C32ED12CC801B70127ECE5
:10E780003BE140E050E00F9441FE611571058105C9
:10E79000910519F485B1805885B98091C00087FD35
:10E7A00003C0C114D104A9F2A6014F5F5F4FC25E3E
:10E7B000DE4F59834883CE51D140C25EDE4F8881FF
:10E7C0009981CE51D140019711F00D9410FEC05D9A
:10E7D000DE4F19821882C053D14060E0C15DDE4F28
:10E7E0001882CF52D14088249924C35DDE4F19820C
:10E7F0001882CD52D140C05EDE4F188219821A8233
:10E800001B82C052D140CE5CDE4F188219821A8220
:10E810001B82C253D140EE24FF2487010BBFF701B6
:10E8200007911691C45CDE4F19830883CC53D14005
:10E830000D940BFEC25EDE4F28813981CE51D1404E
:10E840002130310509F52091C600C25EDE4F1982E4
:10E850001882CE51D14022C02F5F3F4F4F4F5F4FA4
:10E86000213082E138078AE7480780E0580780F0C6
:10E87000C45CDE4FE881F981CC53D140EF5FFF4F9C
:10E8800019F0EE27FF27099420E030E040E050E047
:10E890008091C00087FFE0CF2091C600C35DDE4FAE
:10E8A00048815981CD52D1404F5F5F4FC35DDE4FEC
:10E8B00059834883CD52D140213209F063C64A3092
:10E8C000510508F05FC60894811C911C53E0851621
:10E8D000910409F059C600E010E018C081E280936D
:10E8E000C6008091C00086FFFCCF8091C00080648C
:10E8F0008093C0002F5F3F4F2931310579F70F9486
:10E90000DCF10F5F1F4F0530110519F020E030E0FA
:10E91000E5CF10920A0210920B0210920C02109294
:10E920000D02109206021092070210920802109235
:10E930000902109202021092030210920402109235
:10E9400005028FEE90EE60E00F94F5F180E191EE1C
:10E9500060E00F94C2F18091C00087FFFCCF9091DE
:10E96000C600903608F09F759032B8F09093C600BC
:10E970008091C00086FFFCCF8091C00080648093AE
:10E98000C000A0E2A093C6008091C00086FFFCCF2B
:10E990008091C00080648093C000983409F4D7C18E
:10E9A0009934B8F4923409F459C1933458F490333B
:10E9B00019F1903308F4E3C59F33A1F1903409F0C5
:10E9C000DEC5BDC0953409F470C1963409F0D7C5D1
:10E9D00098C1923509F42BC2933538F49C3409F46C
:10E9E000F5C1913509F0CBC518C2963509F445C279
:10E9F000993509F0C4C567C483E792EE62E00F94CD
:10EA0000F5F110920602109207021092080210927D
:10EA1000090210920A0210920B0210920C0210923C
:10EA20000D0213C18FE792EE62E00F94F5F18FEEC5
:10EA300090EE60E00F94F5F181E291EE60E00F94CA
:10EA4000C2F187EB91EE60E00F94F5F180E391EE77
:10EA500060E00F94C2F184EE90EE60E00F94F5F167
:10EA60008FE391EE60E00F94C2F186E090E061E008
:10EA700070E00F9434F20F94DCF18DE591EE60E0DC
:10EA80000F94C2F189EC91EE60E00F94F5F18EE401
:10EA900091EE60E00F94C2F183EC91EE60E00F9490
:10EAA000F5F18CE691EE60E00F94C2F18EE10F94E7
:10EAB0000DF288E90F940DF281E00F940DF20F949E
:10EAC000DCF18BE791EE60E00F94C2F119E0E0E039
:10EAD000F0E010935700E4918E2F0F940DF20F94F5
:10EAE000DCF18AE891EE60E00F94C2F1E3E0F0E03F
:10EAF00010935700E4918E2F0F940DF20F94DCF1D8
:10EB000089E991EE60E00F94C2F1E2E0F0E0109349
:10EB10005700E4918E2F0F940DF20F94DCF188EAE8
:10EB200091EE60E00F94C2F1E1E0F0E01093570045
:10EB30001491812F0F940DF20F94DCF107CF8BE825
:10EB400092EE62E00F94F5F18BE492EE60E00F94A8
:10EB5000F5F10F94DCF100E010E019C0C8016F2D51
:10EB60000F947FFEFF2031F489E492EE60E00F9471
:10EB7000C2F10BC0F092C6008091C00086FFFCCFAE
:10EB80008091C00080648093C0000F5F1F4FC80158
:10EB900081519F41A0E0B0E0ABBFFC01F790BAE229
:10EBA000FB1621F0E2E000301E07C1F60F94DCF105
:10EBB0000F94DCF187E592EE60E00F94F5F10F948D
:10EBC000DCF1CC24DD2400E010E01EC0C8010F946D
:10EBD00077FEF82E882331F489E492EE60E00F94FA
:10EBE000C2F10BC08093C6008091C00086FFFCCFAD
:10EBF0008091C00080648093C000FE1419F00894D6
:10EC0000C11CD11C0F5F1F4FC80181519F41A0E063
:10EC1000B0E0ABBFFC01E790FAE2EF1621F022E092
:10EC20000030120799F60F94DCF10F94DCF182E6C4
:10EC300092EE60E00F94C2F1C60161E070E00F94C3
:10EC400034F20F94DCF10F94DCF110920202109276
:10EC50000302109204021092050278CE89E992EE26
:10EC600062E00F94F5F1279A2F9A16C02F9880E052
:10EC700090E0E0EDF7E03197F1F7019684369105E9
:10EC8000C1F72F9A80E090E0E0EDF7E03197F1F7DF
:10EC9000019684369105C1F78091C00087FFE6CFC9
:10ECA0008091C00087FFFCCF64C485EA92EE62E0E9
:10ECB0000F94F5F140910202509103026091040219
:10ECC0007091050281E020E10F9491F2809102029F
:10ECD00090910302A0910402B091050280509F4FD1
:10ECE000AF4FBF4F8093020290930302A0930402A0
:10ECF000B093050280509041A040B04008F426CE69
:10ED0000A4CF83EB92EE62E00F94F5F140910602FE
:10ED100050910702609108027091090280E020E1A1
:10ED20000F9491F28091060290910702A09108023F
:10ED3000B091090280509F4FAF4FBF4F80930602A2
:10ED400090930702A0930802B0930902FFCD80ECD4
:10ED500092EE62E00F94F5F183E792EE60E00F949B
:10ED6000F5F18FE792EE60E00F94F5F18BE892EE0B
:10ED700060E00F94F5F189E992EE60E00F94F5F10F
:10ED800085EA92EE60E00F94F5F183EB92EE60E09D
:10ED90000F94F5F180EC92EE60E00F94F5F187ECC2
:10EDA00092EE60E00F94F5F188ED92EE60E00F9442
:10EDB000F5F18FED92EE60E00F94F5F18AEE92EEB0
:10EDC00060E00F94F5F183E093EEBDCD87EC92EE19
:10EDD00062E00F94F5F181E40F947BF282E40F94EA
:10EDE0007BF283E40F947BF284E40F947BF285E45E
:10EDF0000F947BF286E40F947BF287E40F947BF20E
:10EE000088E40F947BF28AE40F947BF28BE40F94F6
:10EE10007BF28CE40F947BF299CD88ED92EE62E068
:10EE20000F94F5F1772473948824992409C48FED05
:10EE300092EE62E00F94F5F140910A0250910B02BC
:10EE400060910C0270910D0282E020E10F9491F22A
:10EE500080910A0290910B02A0910C02B0910D02D8
:10EE600080509F4FAF4FBF4F80930A0290930B0289
:10EE7000A0930C02B0930D0269CD8AEE92EE62E08F
:10EE80000F94F5F184EE90EE60E00F94F5F18FECC5
:10EE900091EE60E00F94F5F1662477244301CC5D98
:10EEA000DE4F19821882C452D140D401C301B695F5
:10EEB000A79597958795CA5DDE4F88839983AA8326
:10EEC000BB83C652D140CC5DDE4FA881B981C4520C
:10EED000D1401196CC5DDE4FB983A883C452D14096
:10EEE000CD0162E070E00F9434F2B0E2B093C6005E
:10EEF0008091C00086FFFCCF8091C0008064809329
:10EF0000C000EDE2E093C6008091C00086FFFCCF18
:10EF10008091C00080648093C000F0E2F093C6004E
:10EF20008091C00086FFFCCF8091C00080648093F8
:10EF3000C000CA5DDE4FE880F9800A811B81C6529D
:10EF4000D140BB27A12F902F8F2D0F940DF2CA5DBA
:10EF5000DE4F8881C652D1400F940DF2B0E2FB2EF5
:10EF6000F092C6008091C00086FFFCCF8091C00067
:10EF700080648093C0000DE30093C6008091C000C0
:10EF800086FFFCCF8091C00080648093C00010E2B7
:10EF90001093C6008091C00086FFFCCF8091C00016
:10EFA00080648093C0008BBEF3012791C65DDE4F65
:10EFB0002883CA52D140A22EBB24CC24DD2408943D
:10EFC000611C711C811C911C8BBEF3018791282E42
:10EFD0003324442455240894611C711C811C911C09
:10EFE0008BBEF3013791C55DDE4F3883CB52D140E4
:10EFF0000894611C711C811C911C8BBEF30147910C
:10F00000C45DDE4F4883CC52D140ADEFEA2EAFEF66
:10F01000FA2EAFEF0A2FAFEF1A2F6E0C7F1C801E57
:10F02000911E142D032DF22CEE24EA0CFB1C0C1D5A
:10F030001D1D0F940DF220E22093C6008091C000A8
:10F0400086FFFCCF8091C00080648093C000C65DC5
:10F05000DE4F8881CA52D1400F940DF230E23093D6
:10F06000C6008091C00086FFFCCF8091C000806404
:10F070008093C000C45DDE4F8881CC52D1400F9494
:10F080000DF240E24093C6008091C00086FFFCCFA5
:10F090008091C00080648093C000C55DDE4F888190
:10F0A000CB52D1400F940DF250E25093C6008091A4
:10F0B000C00086FFFCCF8091C00080648093C000B8
:10F0C0008FEFE8168FEFF80680E0080780E018075A
:10F0D00031F484E092EE60E00F94C2F1DFC0D80119
:10F0E000C7018070907CA070B0708050904CA040A0
:10F0F000B040D1F52FEF3FE340E050E0E222F322B1
:10F1000004231523CA5DDE4FA880B980CA80DB8046
:10F11000C652D140AE0CBF1CC01ED11EAA0CBB1CD7
:10F12000CC1CDD1C8EE092EE60E00F94C2F1BB2798
:10F13000A12F902F8F2D0F940DF28E2D0F940DF285
:10F1400030E23093C6008091C00086FFFCCF8091F2
:10F15000C00080648093C0004EE34093C60080915D
:10F16000C00086FFFCCF87C08EE09EEFA0E0B0E03D
:10F17000E822F9220A231B239CE0E91694E9F90608
:10F1800090E0090790E0190709F088C0C45DDE4FE0
:10F19000A881CC52D140EA2EFF2400E010E0102FCD
:10F1A0000F2DFE2CEE24C55DDE4FB881CB52D14031
:10F1B000EB0EF11C011D111DD601C501817090706F
:10F1C000A070B070DC0199278827E80EF91E0A1F8D
:10F1D0001B1F20EF30E040E050E0A222B322C42207
:10F1E000D52241E1AA0CBB1CCC1CDD1C4A95D1F7F1
:10F1F000EA0CFB1C0C1D1D1D81E090E0A0E0B0E0BE
:10F20000282239224A225B2235E1220C331C441C7D
:10F21000551C3A95D1F7E20CF31C041D151D57013E
:10F220006801AA0CBB1CCC1CDD1C85E192EE60E0E1
:10F230000F94C2F1C801AA27BB270F940DF2BB2778
:10F24000A12F902F8F2D0F940DF28E2D0F940DF274
:10F2500090E29093C6008091C00086FFFCCF809121
:10F26000C00080648093C000AEE3A093C60080918C
:10F27000C00086FFFCCF8091C00080648093C000F6
:10F28000C601AA27BB270F940DF2BB27AD2D9C2DDD
:10F290008B2D0F940DF28A2D0F940DF20F94DCF14B
:10F2A000CC5DDE4FE881F981C452D140F99709F471
:10F2B0004DCBF4E0EF2EF12C012D112D6E0C7F1CA7
:10F2C000801E911EF2CD83E093EE62E00F94F5F183
:10F2D0008AE192EE60E00F94C2F18091C00087FF56
:10F2E000FCCF1091C6001F751093C6008091C0001E
:10F2F00086FFFCCF8091C00080648093C0000F9493
:10F30000DCF1812F81548A3108F036C1163409F4BA
:10F3100095C0173490F4133409F44EC0143430F40B
:10F320001134F1F0123409F01DC130C0143409F465
:10F3300059C0153409F016C16BC01A3409F4C4C0A1
:10F340001B3438F4173409F48FC0183409F00AC19B
:10F35000A1C01B3409F4D2C01C3409F003C1E8C0B9
:10F360008FEF81B90DC082B1809582B980E090E0C5
:10F37000E0EDF7E03197F1F70196883C9105C1F790
:10F380008091C00087FFEFCF12B8EFC08FEF84B934
:10F390000DC085B1809585B980E090E0E0EDF7E0A3
:10F3A0003197F1F70196883C9105C1F78091C00033
:10F3B00087FFEFCF15B8D9C08FEF87B90DC088B1DF
:10F3C000809588B980E090E0E0EDF7E03197F1F7C3
:10F3D0000196883C9105C1F78091C00087FFEFCF6F
:10F3E00018B8C3C08FEF8AB90DC08BB180958BB9A7
:10F3F00080E090E0E0EDF7E03197F1F70196883C8E
:10F400009105C1F78091C00087FFEFCF1BB8ADC059
:10F410008FEF8DB90DC08EB180958EB980E090E0F0
:10F42000E0EDF7E03197F1F70196883C9105C1F7DF
:10F430008091C00087FFEFCF1EB897C08FEF80BBD1
:10F440000DC081B3809581BB80E090E0E0EDF7E0F6
:10F450003197F1F70196883C9105C1F78091C00082
:10F4600087FFEFCF11BA81C08FEF83BB0DC084B38C
:10F47000809584BB80E090E0E0EDF7E03197F1F714
:10F480000196883C9105C1F78091C00087FFEFCFBE
:10F4900014BA6BC08FEF809301010FC080910201FD
:10F4A00080958093020180E090E0E0EDF7E03197F5
:10F4B000F1F70196883C9105C1F78091C00087FF64
:10F4C000EDCF1092020151C08FEF809304010FC065
:10F4D0008091050180958093050180E090E0E0ED4A
:10F4E000F7E03197F1F70196883C9105C1F78091DB
:10F4F000C00087FFEDCF1092050137C08FEF8093DA
:10F5000007010FC08091080180958093080180E079
:10F5100090E0E0EDF7E03197F1F70196883C910536
:10F52000C1F78091C00087FFEDCF109208011DC088
:10F530008FEF80930A010FC080910B01809580931B
:10F540000B0180E090E0E0EDF7E03197F1F70196F4
:10F55000883C9105C1F78091C00087FFEDCF1092E4
:10F560000B0103C085E292EEEEC98091C00087FFD7
:10F57000FCCF8091C600EAC988E392EEE4C98CE131
:10F5800091EEE1C988249924933011F1943028F444
:10F59000913089F09230B8F408C0953061F195301F
:10F5A000F0F0963009F048C043C02B3109F042C951
:10F5B00091E06BE13FC96227C15DDE4F2883CF52E6
:10F5C000D14092E037C9B22FA0E0622793E032C960
:10F5D000822F90E0A82BB92B622794E02BC92E3004
:10F5E00009F039C3622795E0C05DDE4F19821882A9
:10F5F000C053D1401FC9E1E0F0E0EC0FFD1FC05D3A
:10F60000DE4F08811981C053D140E00FF11F2083E4
:10F610000F5F1F4FC05DDE4F19830883C053D14079
:10F6200062270A171B0709F005C9D80196E002C92D
:10F63000261709F010C303C0973009F0FBC87724E0
:10F640009981933109F412C19431C8F4963009F4C8
:10F65000D8C0973050F4923009F406C1933009F4C1
:10F660006DC0913009F059C253C0913109F477C08F
:10F67000923108F0BBC0903109F04FC2F5C098310B
:10F6800009F487C0993150F4953109F4EFC09531F0
:10F6900008F4C6C1963109F040C2C2C19A3109F4DA
:10F6A0006CC09A3108F491C09B3109F45BC09D3164
:10F6B00009F033C29D81903359F48F81882311F46E
:10F6C0009EE11CC0813011F091E018C098E916C08D
:10F6D000892F807591F0903539F4E0E0F0E089E011
:10F6E0008093570094910AC0983539F4E3E0F0E034
:10F6F00089E080935700949101C090E01A821B82A8
:10F700008D818C831D829E831F8227E030E009C299
:10F710001A8288E08B8381E48C8386E58D8382E581
:10F720008E8389E48F8383E5888780E589878FE5E9
:10F730008A8782E38B872BE030E0F3C18A818139AD
:10F7400041F0823941F0803911F48FE005C080E04A
:10F7500003C082E001C08AE01A828B8344C0772410
:10F76000739482C08D81882311F48EE12CC0813086
:10F7700011F081E028C088E926C01A82E1E0F0E0BB
:10F7800089E08093570084918B831C8224E030E0D1
:10F79000C8C18B81803589F48C81883039F4E2E0EE
:10F7A000F0E089E08093570084910DC0E0E0F0E044
:10F7B00089E080935700849106C0E3E0F0E089E09F
:10F7C0008093570084911A82DFCF8D81836C99E0FA
:10F7D000E1E0F0E0082E90935700E89507B600FCB2
:10F7E000FDCF1A821B8223E030E09BC180EC8A832C
:10F7F000CE5CDE4F188219821A821B82C253D1401E
:10F800008EC18A8190E0A0E0B0E0582F44273327D2
:10F8100022278B8190E0A0E0B0E0DC0199278827C7
:10F82000282B392B4A2B5B2B8D8190E0A0E0B0E098
:10F83000282B392B4A2B5B2B8C8190E0A0E0B0E089
:10F84000BA2FA92F982F8827282B392B4A2B5B2BCF
:10F85000220F331F441F551FC05EDE4F288339839C
:10F860004A835B83C052D1401A8259C13A81C95C34
:10F87000DE4F3883C753D140CA5CDE4F1882C6536F
:10F88000D1408B81C82EDD24CA5CDE4F488159816E
:10F89000C653D140C42AD52A933109F082C0CE5C28
:10F8A000DE4F88819981AA81BB81C253D1408050AB
:10F8B000904CA340B04030F583E0CE5CDE4FE88052
:10F8C000F9800A811B81C253D140F70100935B008C
:10F8D00080935700E89507B600FCFDCFCE5CDE4F65
:10F8E000088119812A813B81C253D14000501F4FAA
:10F8F0002F4F3F4FCE5CDE4F088319832A833B8313
:10F90000C253D140C05EDE4F488159816A817B81FC
:10F91000C052D140DE011B9631E08C9111962C91A2
:10F9200011971296C75CDE4F2883C953D140C85C3B
:10F93000DE4F1882C853D14090E0C85CDE4FE881AA
:10F94000F981C853D1408E2B9F2B0C01FA01609393
:10F950005B0030935700E89511244E5F5F4F6F4F67
:10F960007F4F0EEFE02E0FEFF02ECE0CDF1CC114F8
:10F97000D10499F685E0C05EDE4F088119812A81A5
:10F980003B81C052D140F80120935B008093570027
:10F99000E89507B600FCFDCF81E180935700E8951C
:10F9A00035C0C05EDE4F88819981AA81BB81C0527B
:10F9B000D140B695A795979587957C018601ABE0D8
:10F9C000AA2EB12CAC0EBD1E0BC0D5016D915D01F0
:10F9D000C7010F947FFE0894E11CF11C01501040F8
:10F9E0000115110591F7A60160E070E0440F551F65
:10F9F000661F771FC05EDE4FE880F9800A811B8199
:10FA0000C052D1404E0D5F1D601F711F1A82C05E33
:10FA1000DE4F488359836A837B83C052D1407FC0C5
:10FA2000FA80C55CDE4FF882CB53D140C65CDE4F16
:10FA30001882CA53D1408B81C82EDD24C65CDE4FAC
:10FA400008811981CA53D140C02AD12A1A828981DA
:10FA5000BE016D5F7F4F843121F59601C05EDE4FA0
:10FA6000E880F9800A811B81C052D1400BBFF701A9
:10FA700087919691DB018C9311969C936E5F7F4FDB
:10FA8000D801C7010296A11DB11DC05EDE4F88835B
:10FA90009983AA83BB83C052D14022503040F1F6F3
:10FAA00036C0C05EDE4F288139814A815B81C052F9
:10FAB000D1400894C108D108760100E010E0089414
:10FAC000C11CD11C0894E11CF11C011D111DE20E8A
:10FAD000F31E041F151F21BDBB27A52F942F832FB5
:10FAE00082BD2F5F3F4F4F4F5F4FF89A80B5DB01CC
:10FAF0008D93BD012E153F054007510761F7C05E8C
:10FB0000DE4F288339834A835B83C052D1409601FC
:10FB10002D5F3F4FFB01108204C080EC8A8322E0FE
:10FB200030E08BE18093C6008091C00086FFFCCF5F
:10FB30008091C00080648093C000C15DDE4FF88179
:10FB4000CF52D140F093C6008091C00086FFFCCF19
:10FB50008091C00080648093C000432F3093C60022
:10FB60008091C00086FFFCCF8091C00080648093AC
:10FB7000C000922F2093C6008091C00086FFFCCF6A
:10FB80008091C00080648093C0008EE08093C600A6
:10FB90008091C00086FFFCCF8091C000806480937C
:10FBA000C00065E1C15DDE4FE880CF52D1406E25D7
:10FBB00069276427FE01319610C090819093C6009A
:10FBC0008091C00086FFFCCF31968091C000806498
:10FBD0008093C0006927215030402115310569F715
:10FBE0006093C6008091C00086FFFCCF8091C0006A
:10FBF00080648093C00085B1805885B9772081F4F6
:10FC0000C15DDE4F0881CF52D1400F5FC15DDE4F35
:10FC10000883CF52D14090E0A0E0B0E00D941AF4F8
:10FC200027982F9880E090E020ED37E0F901319798
:10FC3000F1F7019684369105C9F700008091C00064
:10FC40008D7F8093C00081E180935700E895EE2777
:10FC5000FF270994FFCF90E00D941AF497FB092E2B
:10FC600007260AD077FD04D02ED006D000201AF443
:10FC7000709561957F4F0895F6F7909581959F4F08
:10FC80000895A1E21A2EAA1BBB1BFD010DC0AA1FDD
:10FC9000BB1FEE1FFF1FA217B307E407F50720F0F5
:10FCA000A21BB30BE40BF50B661F771F881F991F70
:10FCB0001A9469F760957095809590959B01AC01B9
:10FCC000BD01CF010895AA1BBB1B51E107C0AA1FAC
:10FCD000BB1FA617B70710F0A61BB70B881F991FED
:10FCE0005A95A9F780959095BC01CD010895F99991
:10FCF000FECF92BD81BDF89A992780B50895262F31
:10FD0000F999FECF1FBA92BD81BD20BD0FB6F89400
:0EFD1000FA9AF99A0FBE01960895F894FFCF63
:040000033000E000E9
:00000001FF