:1000000007C1000013C60000E6C50000B9C5000026
:100010008CC500005FC5000032C5000005C50000AA
:10002000D8C4000026C1000024C1000022C1000085
:1000300020C100001EC100001CC100001AC1000048
:1000400018C1000016C1000014C1000012C1000058
:1000500010C100000EC100000CC1000070C40000FF
:1000600008C1000001C30000D6C2000002C10000A8
:1000700000C10000FEC00000FCC00000FAC000008B
:10008000F8C00000F6C00000F4C00000F2C000009C
:10009000F0C00000EEC00000ECC00000EAC00000AC
:1000A000E8C00000E6C00000E4C00000E2C00000BC
:1000B000E0C00000DEC00000DCC00000DAC00000CC
:1000C000D8C00000D6C00000D4C00000D2C00000DC
:1000D000D0C00000CEC00000CCC00000CAC00000EC
:1000E000C8C0000099039C038B038F039303D303C1
:1000F000A003A403AA03AE03B203B803BC03C00366
:10010000D303C603CA03CE0300000A0B02090C0D79
:100110000E080703040100000000000000000000BA
:1001200000000000000000000000000000000000CF
:10013000000000001211100000000000000000008C
:1001400000000000000000000000000000000000AF
:100150002200250028002B002E003100340002016F
:100160000000050108010B01000021002400270008
:100170002A002D00300033000101000004010701B6
:100180000A0105050505070508080808020202021C
:100190000A0A080804040404010101010101010123
:1001A0000303030303030303040707070C0C0C0CEE
:1001B0000C0C0C0C020202020606060606060606D7
:1001C0000B0B0B0B0B0B0B0B010210202008081064
:1001D00020401020408002010201080402010102B7
:1001E0000408102040808040201008040201800490
:1001F00002018040201008040201080402010102EB
:1002000004081020408001020408102040808C0E59
:1002100011241FBECFEFD1E2DEBFCDBF00E00CBF87
:1002200012E0A0E0B2E0EEE3F1E200E00BBF02C0BA
:1002300007900D92A43FB107D9F726E0A4EFB2E0F2
:1002400001C01D92A739B207E1F711E0C8E0D1E083
:1002500000E006C021970109802FFE010E94DF0FF8
:10026000C730D10780E00807A9F70E94A1090C94C4
:100270009D10C6CEFC01918D828D981761F0828D04
:10028000DF01A80FB11D5D968C91928D9F5F9F73CA
:10029000928F90E008958FEF9FEF0895FC01918D6C
:1002A000828D981731F0828DE80FF11D858D90E0D9
:1002B00008958FEF9FEF0895FC01918D228D892F76
:1002C00090E0805C9F4F821B91098F73992708955E
:1002D0008EEF92E0F1DF21E0892B09F420E0822FFC
:1002E0000895FC01848DDF01A80FB11DA35ABF4FF3
:1002F0002C91848D90E001968F739927848FA68925
:10030000B7892C93A089B1898C9180648C93938D4B
:10031000848D981306C00288F389E02D80818F7D3B
:1003200080830895EF92FF920F931F93CF93DF93F3
:10033000EC0181E0888F9B8D8C8D981305C0E88936
:10034000F989808185FD23C0F62E0B8D10E00F5FAB
:100350001F4F0F731127E02E8C8DE8120BC00FB6C4
:1003600007FCFACFE889F989808185FFF5CFCE01B6
:10037000B8DFF2CF8B8DFE01E80FF11DE35AFF4F7E
:10038000F0820B8FEA89FB898081806207C0EE8949
:10039000FF896083E889F98980818064808381E0B6
:1003A00090E0DF91CF911F910F91FF90EF90089512
:1003B000CF93DF93EC01888D8823C1F0EA89FB8914
:1003C000808185FD05C0A889B9898C9186FD0EC004
:1003D0000FB607FCF5CF808185FFF2CFA889B989D8
:1003E0008C9185FFEDCFCE017CDFE8CFDF91CF91FF
:1003F000089580E090E0892B19F06ADF811125C013
:1004000080E090E0892B41F080E090E0892B21F0A2
:100410000E94000081111CC080E090E0892B41F017
:1004200080E090E0892B21F00E940000811113C030
:1004300080E090E0892BA1F080E090E0892B81F0B2
:100440000E94000081110AC008950E940000D8CFC8
:100450000E940000E1CF0E940000EACF0C9400004F
:10046000089508950895CF93DF931F92CDB7DEB717
:100470006983DC01ED91FC910280F381E02D41E084
:1004800050E0BE016F5F7F4F19950F90DF91CF91C4
:100490000895089508958F929F92AF92BF92CF9240
:1004A000DF92EF92FF920F931F93CF93DF937C0124
:1004B000EB016C0182E0C80ED11C4701E5E08E0E15
:1004C000911C00E010E0F60141916F0150E060E006
:1004D00070E02AE0CE01EED65C01E881F98101905E
:1004E000F081E02D6EE2CE0119958A0D9B1D080F5B
:1004F000191FC814D90439F7F701458150E060E0AD
:1005000070E02AE0CE01D6D6800F911FDF91CF9107
:100510001F910F91FF90EF90DF90CF90BF90AF9021
:100520009F908F9008950E94E70FCF92DF92EF92F5
:10053000FF92CF93C62F853681F56AE372E08EEF86
:1005400092E0A3D68DE6C89FF0011124EC5CFB4F2E
:10055000C0800C2C000CDD08EE08FF08F7FE14C06C
:10056000E091FE02F091FF020190F081E02D6DE23A
:100570008EEF92E0199544275527BA014C195D0971
:100580006E097F092AE003C02AE0B701A6018EEFB9
:1005900092E090D685E592E019C08636E9F46FE5E1
:1005A00072E08EEF92E071D64C2F50E060E070E088
:1005B0002AE08EEF92E07ED66BE872E08EEF92E05A
:1005C00064D68EE892E07FD480EB92E0CF91FF90EA
:1005D000EF90DF90CF9077C48836B9F466ED72E083
:1005E0008EEF92E052D64C2F50E060E070E02AE0AF
:1005F0008EEF92E05FD66BE872E08EEF92E0CF91E3
:10060000FF90EF90DF90CF9040C6CF91FF90EF909A
:10061000DF90CF9008951F920F920FB60F92112482
:100620000BB60F922F933F934F935F936F937F93EC
:100630008F939F93AF93BF93EF93FF938EEF92E0CF
:1006400050DEFF91EF91BF91AF919F918F917F917C
:100650006F915F914F913F912F910F900BBE0F9033
:100660000FBE0F901F9018951F920F920FB60F920A
:1006700011240BB60F922F938F939F93EF93FF93B9
:10068000E0910E03F0910F038081E0911403F0914B
:10069000150382FD12C09081809117038F5F8F73C5
:1006A00020911803821751F0E0911703F0E0E25017
:1006B000FD4F958F8093170301C08081FF91EF91CB
:1006C0009F918F912F910F900BBE0F900FBE0F90A7
:1006D0001F901895362F90E0FC01E85FFE4F449183
:1006E000FC01E853FE4F2491FC01EE57FE4F94911C
:1006F000992309F46BC0442309F455C050E0FA0172
:100700003197E231F10508F04EC08827EE58FF4FCF
:100710008F4F0C94DF0F809180008F7707C08091FE
:1007200080008F7D03C080918000877F8093800050
:100730003AC084B58F7702C084B58F7D84BD33C045
:100740008091B0008F7703C08091B0008F7D80933F
:10075000B00029C0809190008F7707C080919000F1
:100760008F7D03C080919000877F809390001BC095
:100770008091A0008F7707C08091A0008F7D03C07B
:100780008091A000877F8093A0000DC08091200100
:100790008F7707C0809120018F7D03C08091200159
:1007A000877F80932001E92FF0E0EE0FFF1FE25BCF
:1007B000FE4FA591B4918FB7F894EC91311103C01D
:1007C00020952E2301C02E2B2C938FBF08953FB769
:1007D000F8948091FA029091FB02A091FC02B091F2
:1007E000FD0226B5A89B05C02F3F19F00196A11D5B
:1007F000B11D3FBFBA2FA92F982F8827820F911DB7
:10080000A11DB11DBC01CD0142E0660F771F881FFD
:10081000991F4A95D1F708958F929F92AF92BF92F8
:10082000CF92DF92EF92FF926B017C01D0DF4B0100
:100830005C01C114D104E104F104E9F0C8DFDC017A
:10084000CB0188199909AA09BB09883E9340A105E3
:10085000B10578F321E0C21AD108E108F10888EE69
:10086000880E83E0981EA11CB11CC114D104E104C0
:10087000F10421F7DECFFF90EF90DF90CF90BF9093
:10088000AF909F908F900895CF93DF93FC0180816C
:10089000823409F051C080912E04882309F43FC0AE
:1008A000EAE9F4E020E030E040815181452B49F550
:1008B0009DE6929FE001939FD00D1124AE014C5C08
:1008C0005B4F6FE274E0FCD3009749F1C954DC4FF1
:1008D000FE01E352FF4F9183808336968AE490E0D5
:1008E0009183808374DFFE01E152FF4F6083718347
:1008F00082839383CB51DF4F188219821A821B8225
:100900000EC02F5F3F4FE359FF4F2530310561F691
:10091000E0915506F091560665E086E6199561E08E
:100920008DE0D8DE65E070E080E090E075DF60E0AB
:100930008DE0DF91CF91CECEDF91CF9108951F92C0
:100940000F920FB60F9211242F933F938F939F9383
:10095000AF93BF938091F6029091F702A091F802B5
:10096000B091F9023091F50223E0230F2D3720F4E6
:100970000196A11DB11D05C026E8230F0296A11DF9
:10098000B11D2093F5028093F6029093F702A09395
:10099000F802B093F9028091FA029091FB02A091C3
:1009A000FC02B091FD020196A11DB11D8093FA02D7
:1009B0009093FB02A093FC02B093FD02BF91AF9114
:1009C0009F918F913F912F910F900FBE0F901F908D
:1009D00018951F920F920FB60F9211240BB60F921B
:1009E0002F933F934F935F936F937F938F939F9337
:1009F000AF93BF93EF93FF93E0910E02F0910F023C
:100A00001995FF91EF91BF91AF919F918F917F9138
:100A10006F915F914F913F912F910F900BBE0F906F
:100A20000FBE0F901F9018951F920F920FB60F9246
:100A300011240BB60F922F933F934F935F936F93B5
:100A40007F938F939F93AF93BF93EF93FF93E09127
:100A50000C02F0910D021995FF91EF91BF91AF91AA
:100A60009F918F917F916F915F914F913F912F91C6
:100A70000F900BBE0F900FBE0F901F9018951F92F6
:100A80000F920FB60F9211240BB60F922F933F9334
:100A90004F935F936F937F938F939F93AF93BF9386
:100AA000EF93FF93E0910202F09103021995FF91F9
:100AB000EF91BF91AF919F918F917F916F915F91D6
:100AC0004F913F912F910F900BBE0F900FBE0F9043
:100AD0001F9018951F920F920FB60F9211240BB60C
:100AE0000F922F933F934F935F936F937F938F93C7
:100AF0009F93AF93BF93EF93FF93E0910002F09128
:100B000001021995FF91EF91BF91AF919F918F9144
:100B10007F916F915F914F913F912F910F900BBEFD
:100B20000F900FBE0F901F9018951F920F920FB647
:100B30000F9211240BB60F922F933F934F935F9315
:100B40006F937F938F939F93AF93BF93EF93FF9395
:100B5000E0910A02F0910B021995FF91EF91BF917C
:100B6000AF919F918F917F916F915F914F913F9145
:100B70002F910F900BBE0F900FBE0F901F901895E6
:100B80001F920F920FB60F9211240BB60F922F9354
:100B90003F934F935F936F937F938F939F93AF9305
:100BA000BF93EF93FF93E0910802F091090219952A
:100BB000FF91EF91BF91AF919F918F917F916F9135
:100BC0005F914F913F912F910F900BBE0F900FBEF1
:100BD0000F901F9018951F920F920FB60F9211242D
:100BE0000BB60F922F933F934F935F936F937F9327
:100BF0008F939F93AF93BF93EF93FF93E091060280
:100C0000F09107021995FF91EF91BF91AF919F91DC
:100C10008F917F916F915F914F913F912F910F90A5
:100C20000BBE0F900FBE0F901F9018951F920F9242
:100C30000FB60F9211240BB60F922F933F934F9341
:100C40005F936F937F938F939F93AF93BF93EF9334
:100C5000FF93E0910402F09105021995FF91EF9145
:100C6000BF91AF919F918F917F916F915F914F91C4
:100C70003F912F910F900BBE0F900FBE0F901F90C2
:100C80001895EF92FF921F93CF93DF931F92CDB7EA
:100C9000DEB77C01162F60E0FC01868549831ADDF2
:100CA000F701948585859CBD8DBD1EBD00004981E1
:100CB0000DB407FEFDCF8EB54EBD00000DB407FE8E
:100CC000FDCF1EB561E0F701868504DD812F0F9011
:100CD000DF91CF911F91FF90EF9008956F7740E0E3
:100CE000D0CFEF92FF921F93CF93DF931F92CDB798
:100CF000DEB77C01DC01ED91FC910480F581E02DF3
:100D00001995892B81F06DE0C701E8DF482F60E07D
:100D1000C7014983E3DF182F49816DE8C701B1DFBF
:100D2000812F90E002C08FEF9FEF0F90DF91CF9166
:100D30001F91FF90EF900895CF93DF93EC01E8812E
:100D4000F9810480F581E02D1995892B51F08E8968
:100D50009F8901969F8B8E8B60E0CE01BFDF90E074
:100D600002C08FEF9FEFDF91CF910895CF93DF9374
:100D7000EC0163E1B3DF282F30E08E899F89A90160
:100D8000481B590BCA01DF91CF9108958F929F9212
:100D9000AF92BF92CF92DF92FF920F931F93CF93A8
:100DA000DF931F92CDB7DEB76C01B62E4A0162E227
:100DB000798394DFF82E90E09C01280D391D79810C
:100DC0002F3F310531F028F02FEF30E04901881A2C
:100DD000990A0B2D172F5801A80CB91C0A151B05D1
:100DE00039F0F80141918F0160E8C6014ADFF6CF82
:100DF000482D4F0D62EAC60144DFC4010F90DF9118
:100E0000CF911F910F91FF90DF90CF90BF90AF9047
:100E10009F908F9008956F3F710519F4FC016081D8
:100E20007181CB018270992760FF04C0892B31F456
:100E300085E007C0892B21F481E003C08AE001C06E
:100E400082E066FD02C091E001C092E0890F67FD7B
:100E500002C091E001C092E0890F65FD02C091E0FF
:100E600001C094E0890F63FD02C090E001C092E0F0
:100E7000890F0895FC01680F791F90E05CE8E61780
:100E8000F70789F0419188E0A92FA427292F30E0A6
:100E900035952795922FA0FF02C0952F9227459553
:100EA000815091F7ECCF892F08951092B4031092DE
:100EB000B3036DE18BE993E011DF482F4E7F6DE9BD
:100EC0008BE993E0DECECF93DF93BC018EEF92E00F
:100ED000DCD1EC016BE872E08EEF92E0D6D18C0FA2
:100EE0009D1FDF91CF91089590E0FC01E853FE4FE4
:100EF0002491FC01EE57FE4F8491882399F090E0F5
:100F0000880F991FFC01E859FE4FA591B491FC018F
:100F1000E25BFE4F859194918FB7F894EC91E22BB0
:100F2000EC938FBF0895CF93DF9362E18BE993E059
:100F3000D5DEC82FBADF4C2F62E98BE993E0A1DE42
:100F4000C6FF23C0C5FD21C01092B2031092B103A9
:100F50008091B3039091B403892B11F062E201C038
:100F600063E18BE993E0BADEC82FD0E060E18BE962
:100F700093E0B4DE482F6DE88BE993E082DE41E830
:100F800061E88BE993E07DDE12C061E08BE993E0DC
:100F9000A5DE863851F040E06DE88BE993E071DE24
:100FA00046E861E88BE993E06CDEC0E0D0E0CE017A
:100FB000DF91CF91089541E861E88BE993E061DE2C
:100FC00074DF40E06DE88BE993E05BDE40E062EACD
:100FD0008BE993E056DE81E090E0089543E861E814
:100FE0008BE993E04EDE62E18BE993E077DE83FFED
:100FF000FACF48E062E98BE993E043DE81E090E0DC
:101000000895CF92DF92EF92FF92FC019C01260F90
:10101000371F8FEF9FEFDC01E217F307D9F0419103
:10102000842749E04150C1F36C017D01F694E794B7
:10103000D794C79480FF0BC0D701C60150E2852723
:1010400053E8952758EBA5275DEEB527EBCFD701E1
:10105000C601E8CFBC01CD01609570958095909553
:10106000FF90EF90DF90CF900895CF92DF92EF92B4
:10107000FF920F931F93CF93DF936C017A018B0143
:10108000C0E0D0E0CE15DF0589F0D8016D918D016B
:10109000D601ED91FC910190F081E02DC6011995EA
:1010A000892B11F47E0102C02196ECCFC701DF919C
:1010B000CF911F910F91FF90EF90DF90CF90089507
:1010C0008F929F92AF92BF92CF92DF92EF92FF9258
:1010D0000F931F93CF93DF93982E6B017A010091AA
:1010E000BB031091BC030F3F110511F008F000681D
:1010F000911001C0037FB8018BEB93E08CDEC82F09
:10110000D0E02196C801880F892F881F990B9195EF
:10111000282F2170A22E980146E0369527954A95F2
:10112000E1F7822F8170B82EC031D10528F105FD7D
:1011300008C00062B8018BEB93E06DDEC82FD0E0F1
:101140002196C115A1E0DA0751F4B1100BC000647B
:10115000B8018BEB93E05FDEC82FD0E02196C0365C
:10116000D10550F0E0915506F09156066C2F88E6B7
:10117000199580E090E07CC0F7019082AA2019F0D8
:101180000183128301C001838A2D90E0F701E80FEB
:10119000F91FBB2019F01282C38301C0C283A801CA
:1011A0004270552700FF28C02B2D30E0FC013396FC
:1011B000E20FF31FEE0DFF1DD6018D909D90AD90B7
:1011C000BC9080829182A282B382452BF9F08E0D71
:1011D0009F1DFC01E20FF31F8091BD039091BE03A0
:1011E000A091BF03B091C00387839087A187B28786
:1011F00080915E0683870AC0452B41F08E0D9F1DAE
:10120000FC01EB0DF11D80915E068383BE016150F0
:10121000710998012072332705FD03C081E090E039
:1012200002C084E090E0FB01E81BF90BEE0DFF1D0E
:1012300082E48083232BA1F08E0104501109B801B0
:10124000C701DFDEF701E00FF11F9083EC0EFD1EFA
:10125000F70133978083319670833196608307C09E
:101260008701060F171FC70105DEF8018083CE0135
:10127000DF91CF911F910F91FF90EF90DF90CF9072
:10128000BF90AF909F908F9008956115710579F090
:10129000FB0101900020E9F73197AF01461B570B86
:1012A000DC01ED91FC910280F381E02D199480E046
:1012B00090E008954F925F926F927F92EF92FF922B
:1012C0000F931F93CF93DF93CDB7DEB7A1970FB6E0
:1012D000F894DEBF0FBECDBF7C01FA01CB0119A28D
:1012E000223008F42AE08E010F5D1F4F422E512C50
:1012F000612C712CBF01A3019201EED6F901CA0144
:10130000015011096A3014F4605D01C0695CD801B4
:101310006C93232B242B252B69F7B801C701B5DF6C
:10132000A1960FB6F894DEBF0FBECDBFDF91CF916F
:101330001F910F91FF90EF907F906F905F904F9073
:101340000895CF93DF93CDB7DEB727970FB6F89404
:10135000DEBF0FBECDBF789484B5826084BD84B5F6
:10136000816084BD85B5826085BD85B5816085BDA0
:1013700080916E00816080936E0010928100809158
:1013800081008260809381008091810081608093E0
:101390008100809180008160809380008091B10005
:1013A00084608093B1008091B00081608093B00030
:1013B0008091910082608093910080919100816082
:1013C0008093910080919000816080939000809143
:1013D000A10082608093A1008091A1008160809330
:1013E000A1008091A00081608093A00080912101E4
:1013F000826080932101809121018160809321018D
:101400008091200181608093200180917A00846026
:1014100080937A0080917A00826080937A00809134
:101420007A00816080937A0080917A00806880934E
:101430007A001092C1008DE057DD60E08DE04AD95E
:1014400084E494E090935C0680935B0685E992E0E7
:1014500090935606809355068091A90345DD8091AF
:10146000AB0342DD60E08091AB0334D96AE070E009
:1014700080E090E0D1D961E08091AB032BD96AE0A4
:1014800070E080E090E0C8D961E08091A90322D9A2
:101490001FB7F8948091F402811120C0E7EBF1E0CE
:1014A0008491EDEFF1E09491E82FF0E0EE0FFF1F53
:1014B000E859FE4FA591B491EC91E92319F461E04C
:1014C00085E308D985E310DD8CB580618CBD8CB5D2
:1014D00080648CBD84E308DD83E306DD8091F40243
:1014E0008F5F8093F4021FBF62E48BE993E0F6DB29
:1014F000823109F03DC040E861E88BE993E0C1DB4F
:1015000080EA97E29093B0038093AF0349ED66E8D9
:101510008BE993E0B6DB46E067E88BE993E0B1DB6B
:1015200046E668E88BE993E0ACDB40E06EE88BE9E7
:1015300093E0A7DB40E06FE88BE993E0A2DB6CE08F
:101540008BE993E0CBDB482F43606CE88BE993E0B9
:1015500098DB44E066EA8BE993E093DB4FE869E8C7
:101560008BE993E08EDB41E861E88BE993E089DB6E
:101570006DE18BE993E0B2DB8F70482F40686DE935
:101580008BE993E07EDB80915A06863308F0865320
:1015900090917B00282F2870977F922B90937B004F
:1015A0008770806480937C0080917A00806480934F
:1015B0007A0080917A0086FDFCCF6091780080915E
:1015C000790070E0782B80915E06680F711D072E00
:1015D000000C880B990B611571058105910509F0C7
:1015E00046D510915E0640D528EE33E040E050E04D
:1015F00047D5212F30E0620F731F6230710540F034
:10160000660F771F660F771FCB0105970197F1F7DC
:10161000EAE9F4E080E090E020813181232B49F574
:101620002DE6289F8001299F100D1124A8014C5CF4
:101630005B4F6DEB73E08DE243DD009739F10954A8
:101640001C4FF801E352FF4F9183808336968AE462
:1016500090E091838083BBD8F801E152FF4F608313
:101660007183828393833696108211821282138251
:101670000DC00196E359FF4F8530910569F6E09161
:101680005506F091560665E086E61995E0910E0341
:10169000F0910F0382E08083E0910A03F0910B0345
:1016A0001082E0910C03F0910D0380E18083109291
:1016B0001603E0911203F091130386E08083E0911A
:1016C0001003F0911103808180618083E091100309
:1016D000F0911103808188608083E0911003F09184
:1016E0001103808180688083E0911003F0911103E1
:1016F00080818F7D80836BD82B013C0168D8DC0111
:10170000CB0184199509A609B70981329E44A10528
:10171000B10508F099C135ECA32E33E0B32E10E0EB
:1017200000E040E6242E312CE12CF12C80E090E00A
:101730000097E1F4F8DB6C01882381F045018BE927
:1017400093E014DB892B39F08BE993E0F5DAF401AF
:1017500081934F01F4CFC601992702C08FEF9FEF0D
:101760009C01215031092E3F3F4F40F60197E11473
:10177000F10469F42091C50330915E06231791F1BD
:10178000222381F120915D0621112CC0B7CF21E0E9
:10179000E216F10439F51091C6032091BB03309194
:1017A000BC03212720FF05C020915D06222309F4F8
:1017B000A5CF2091C503211104C0212F2C7009F061
:1017C0009DCF13FF02C011FF99CF212F207416FF68
:1017D00002C015FF93CF01E0211101C000E0111FED
:1017E0001127111FC12ED12C96012E5F3F4FE216FB
:1017F000F30661F401110AC0F5012080312CA1012A
:10180000455051094C35510508F078CFA6014D5F80
:101810005F4FE416F50691F4002381F0F50131974E
:10182000408150E0342E2224F5014081242AA10178
:10183000455051094C35510508F060CF4091BB032C
:101840005091BC034A01F1E08F22992440FF24C04B
:101850004091C60340FF20C040915D0641111CC06D
:10186000402F50E0240F351F2E153F05A8F4960198
:10187000295F3F4F240F351FE216F30668F49701E6
:101880002C193D09241B350BF901E954FC4F338118
:10189000F5012081321332CFFFEFEF1AFF0A2FEF4D
:1018A000A21AB20AE214F30408F442CF1091C6035C
:1018B000B10115FF28C06450710985EC93E0A1DBEC
:1018C000F101EF53FC4FE12CF12CA191570138E1CC
:1018D000A30EB11C9B01AC0104C0569547953795EA
:1018E0002795AA94D2F72C833D834E835F83A2135E
:1018F0000FC038E0E31AF10840EEE4164FEFF406AB
:1019000021F721E006C085EC93E0B4DA21E08111F3
:1019100020E012FF2CC08091C503882341F1809103
:101920005706863921F180915D06811120C08928F2
:10193000A9F010FF1CC0F601E00FF11DE853FC4FA9
:10194000ADEBB3E0CF01049641913D9143130FC03D
:10195000E817F907C9F7222309F4D0CE29832BDB36
:1019600066E08BE993E00E94330238DB2981222371
:1019700009F4C4CE8091C50380932904F090C60376
:101980008F2D881F8827881FF6FAEE27E0F96F2D24
:1019900070E0882329F09091C7039B01392B01C087
:1019A0009B013093260420932504E80FA90142707F
:1019B000552720FF27C08E2F90E0FC01E853FC4FF5
:1019C000008111812281338100932A0410932B041A
:1019D00020932C0430932D04452BE1F0FC01E453BB
:1019E000FC4F008111812281338100932F041093D9
:1019F00030042093310430933204FC01E954FC4F4D
:101A0000818D06C0452B31F0F0E0E954FC4F81890F
:101A100080932E0400915B0610915C068BEB93E0A3
:101A2000FAD990E0B101681B790BF5FC03C021E005
:101A300030E002C024E030E0821B930B45E254E02A
:101A40008B539C4FF801199503E314E024E934E02B
:101A50003B832A8394E3E92E94E0F92E25E3222E9A
:101A600024E0322ED12CEA81FB8186819781892B5B
:101A700009F436C1F101C0800E94E7034B015C010B
:101A8000F801A0814A2E512C612C712CB0E0A301E9
:101A9000920112D39B01AC0183D29B01AC01EA817C
:101AA000FB8182819381A481B581881A990AAA0A4F
:101AB000BB0AC301B20174D240845184628473842E
:101AC000DC01CB01840D951DA61DB71D8815990558
:101AD000AA05BB0508F004C1BB24B3948C2D8A7001
:101AE0008A3009F0B12CC2FE09C0BB2039F0EA816E
:101AF000FB8186819781069709F46BC0EA81FB819F
:101B0000C080E114F10419F48FEF9FEF5EC0809163
:101B10005706863919F44FDA47011BC004DA181644
:101B200019060CF450C00E94E7034090B703509090
:101B3000B8036090B9037090BA03DC01CB0184193B
:101B40009509A609B709803C9648A140B10518F748
:101B50003AC0882D8E198C1540F4F40161914F0123
:101B60008BE993E00E943302F4CF38DAF7018081E9
:101B7000811103C086E090E028C0F101808182FFDE
:101B8000F9CF809157068639A9F30E94E7032B010C
:101B90003C010E94E703DC01CB0184199509A609E9
:101BA000B709803A9648A140B10508F0ADCFBBD93E
:101BB000882379F38BE993E0BFD886309105D1F281
:101BC000019609F4A1CF8AE992E0EA81FB8197832B
:101BD0008683F80180818F5F8083EA81FB81868123
:101BE00097818630910509F093C080859185A28503
:101BF000B385892B8A2B8B2BD9F4809154068823AB
:101C000009F483C0F101C0806C2D0C2C000C770B03
:101C10008BEB93E000D990E0EA81FB812081318158
:101C20002817390711F4B11006C0C3FE04C06DC0F7
:101C3000B11022C047C0F8011082EA81FB811182F5
:101C40001082128213821482158217821682BB20A0
:101C500009F446C009D220E230E040E050E010D262
:101C60006230710548F0660F771F660F771F655069
:101C70007109CB010197F1F7F8018081853180F17D
:101C8000E0915506F09156066D2D85E61995EA818D
:101C9000FB8180859185A285B385892B8A2B8B2B2F
:101CA00089F4809154068823D9F0F8011082EA81E2
:101CB000FB81118210821282138214821582178294
:101CC00016820EC0F80110820E94E703EA81FB81B0
:101CD00062837383848395832AE430E03783268389
:101CE00003591F4F4A815B8143595F4F5B834A838E
:101CF0005DE6E50EF11C6DE6260E311CD39485E001
:101D0000D812B1CE0E94F901F6CCBB2049F3B4CF72
:101D1000019609F09FCFB0CF88E392E090936006E0
:101D200080935F061092610610926206109263061D
:101D300010926406109201031092000348EE53E0E3
:101D400060E070E040930203509303036093040348
:101D50007093050328E132E03093FF022093FE02E6
:101D600025EC30E030930B0320930A0324EC30E0A1
:101D700030930D0320930C0320EC30E030930F03DD
:101D800020930E0321EC30E03093110320931003D5
:101D900022EC30E0309313032093120326EC30E062
:101DA0003093150320931403109217031092180315
:101DB0001092190310921A0310929E0310929D0321
:101DC00028E232E030939C0320939B0320E520938C
:101DD000A70321E02093A8034AE050E05093AA0310
:101DE0004093A90349E050E05093AC034093AB0308
:101DF00042E050E05093AE034093AD031092B00325
:101E00001092AF031092B2031092B1031092B40378
:101E10001092B3031092B6031092B50310929F0371
:101E20001092A0031092A1031092A2039093660651
:101E300080936506109267061092680610926906F4
:101E400010926A0690936C0680936B0610926D0652
:101E500010926E0610926F061092700690937206A2
:101E60008093710610927306109274061092750694
:101E7000109276069093800680937F0610928106DA
:101E80001092820610928306109284069093780630
:101E9000809377061092790610927A0610927B064C
:101EA00010927C0690938606809385061092870692
:101EB000109288061092890610928A0690938C06DA
:101EC00080938B0610928D0610928E0610928F06CC
:101ED000109290069093920680939106109293062A
:101EE0001092940610929506109296061092B703DF
:101EF0001092B8031092B9031092BA0386E090E0F2
:101F00009093BC038093BB031092BD031092BE0359
:101F10001092BF031092C0031092C1031092C2032B
:101F20001092C3031092C403109226041092250449
:101F300010922804109227041092290410922E0463
:101F400020935406109259061092580686E3809307
:101F50005A0610925D068CE280935E0687E98093B4
:101F6000570689E492E090935606809355068AE4DA
:101F700092E090935C0680935B06EAE9F4E01182BC
:101F800010821282138214821582DF01A756B109D2
:101F90001C92E359FF4F86E0EB3BF80781F7089569
:101FA000DB018F939F9388D0BF91AF91A29F800D4B
:101FB000911DA39F900DB29F900D11240895EE0FD7
:101FC000FF1F881F8BBF0790F691E02D199481E0C9
:101FD00090E0F894B2C08F929F92AF92BF92CF924E
:101FE000DF92EF92FF92CF93DF93EC0168817981CA
:101FF0008A819B81611571058105910521F464E257
:1020000079ED8BE597E02DE133EF41E050E038D0FA
:1020100049015A019B01AC01A7EAB1E44DD06B0123
:102020007C01ACEEB4EFA501940152D0DC01CB01F0
:102030008C0D9D1DAE1DBF1DB7FF03C00197A109EB
:10204000B04888839983AA83BB83BC01CD019F7765
:10205000DF91CF91FF90EF90DF90CF90BF90AF9046
:102060009F908F900895B7CF80E192E0B4CF6093B6
:10207000100270931102809312029093130208953C
:10208000052E97FB16F400940FD057FD05D024D0F1
:1020900007FC02D046F408C0509540953095219534
:1020A0003F4F4F4F5F4F0895909580957095619584
:1020B0007F4F8F4F9F4F089531D0A59F900DB49FB4
:1020C000900DA49F800D911D11240895B7FFF4CFAA
:1020D000F3DF821B930B0895A1E21A2EAA1BBB1BF0
:1020E000FD010DC0AA1FBB1FEE1FFF1FA217B307E4
:1020F000E407F50720F0A21BB30BE40BF50B661FFA
:10210000771F881F991F1A9469F7609570958095BD
:1021100090959B01AC01BD01CF010895A29FB00134
:10212000B39FC001A39F700D811D1124911DB29F0B
:0E213000700D811D1124911D0895F894FFCFAC
:10213E0031023102310231023102310231023102F9
:10214E000100000000000000920135085C013A0118
:10215E004E01D801000000003302C606B6069C06EA
:10216E0071063202000000004B02436F6E6E656313
:10217E0074696F6E2077697468206465766963652B
:10218E002049442000206973206C6F73742E005018
:10219E0061636B6574206275666665722069732073
:1021AE0066756C6C2C20686173206E6F77206120D1
:1021BE006C656E677468206F6620000D0A00506FA4
:1021CE00737369626C652077726F6E6720627573C8
:1021DE0020636F6E66696775726174696F6E210038
:1021EE0068696768657220504A4F4E5F4D41585F6F
:1021FE005041434B455453206966206E65636573A9
:10220E00736172792E00436F6E74656E74206973FC
:10221E0020746F6F206C6F6E672C206C656E677408
:04222E00683A2000EA
:020000023000CC
:10E000000D9489F10D94B2F10D94B2F10D94B2F129
:10E010000D94B2F10D94B2F10D94B2F10D94B2F1F0
:10E020000D94B2F10D94B2F10D94B2F10D94B2F1E0
:10E030000D94B2F10D94B2F10D94B2F10D94B2F1D0
:10E040000D94B2F10D94B2F10D94B2F10D94B2F1C0
:10E050000D94B2F10D94B2F10D94B2F10D94B2F1B0
:10E060000D94B2F10D94B2F10D94B2F10D94B2F1A0
:10E070000D94B2F10D94B2F10D94B2F10D94B2F190
:10E080000D94B2F10D94B2F10D94B2F10D94B2F180
:10E090000D94B2F10D94B2F10D94B2F10D94B2F170
:10E0A0000D94B2F10D94B2F10D94B2F10D94B2F160
:10E0B0000D94B2F10D94B2F10D94B2F10D94B2F150
:10E0C0000D94B2F10D94B2F10D94B2F10D94B2F140
:10E0D0000D94B2F10D94B2F10D94B2F10D94B2F130
:10E0E0000D94B2F141546D656761323536300041AF
:10E0F000726475696E6F206578706C6F72657220DE
:10E1000073746B3530305632206279204D4C530099
:10E11000426F6F746C6F616465723E004875683F52
:10E1200000436F6D70696C6564206F6E203D200048
:10E130004350552054797065202020203D20005FF9
:10E140005F4156525F415243485F5F3D2000415658
:10E1500052204C696243205665723D20004743437C
:10E160002056657273696F6E203D20004350552024
:10E1700049442020202020203D20004C6F7720663D
:10E18000757365202020203D20004869676820665F
:10E190007573652020203D200045787420667573D6
:10E1A00065202020203D20004C6F636B2066757336
:10E1B000652020203D20004D617220203720323024
:10E1C000313300312E362E3800342E332E350056A2
:10E1D00023202020414444522020206F7020636F70
:10E1E00064652020202020696E73747275637469E1
:10E1F0006F6E2061646472202020496E74657272B3
:10E20000757074006E6F20766563746F7200726A49
:10E210006D702020006A6D70200057686174207056
:10E220006F72743A00506F7274206E6F7420737541
:10E2300070706F72746564004D7573742062652030
:10E2400061206C6574746572002000577269747483
:10E25000696E672045450052656164696E672045B7
:10E26000450045452065727220636E743D00504F35
:10E27000525400303D5A65726F2061646472003FF1
:10E280003D43505520737461747300403D454550C3
:10E29000524F4D207465737400423D426C696E6B41
:10E2A000204C454400453D44756D70204545505215
:10E2B0004F4D00463D44756D7020464C415348001B
:10E2C000483D48656C70004C3D4C69737420492F83
:10E2D0004F20506F72747300513D51756974005234
:10E2E0003D44756D702052414D00563D73686F7707
:10E2F00020696E7465727275707420566563746FF0
:10E30000727300593D506F727420626C696E6B00BD
:10E310002A0011241FBECFEFD1E2DEBFCDBF01E046
:10E320000CBF12E0A0E0B2E0EEE1FDEF03E00BBFB6
:10E3300002C007900D92A030B107D9F712E0A0E01B
:10E34000B2E001C01D92AE30B107E1F70F9460F367
:10E350000D948DFE01E20EBF0FEF0DBF11241FBE05
:10E360000D9460F30D9400F020E030E040ED57E0B4
:10E3700005C0FA013197F1F72F5F3F4F2817390792
:10E38000C0F308959C01260F311DC901A0E0B0E043
:10E390002F5F3F4FABBFFC018791882361F08093D3
:10E3A000C6008091C00086FFFCCF8091C0008064D1
:10E3B0008093C000EACF08958DE08093C6008091DD
:10E3C000C00086FFFCCF8091C00080648093C000B5
:10E3D0008AE08093C6008091C00086FFFCCF8091C8
:10E3E000C00080648093C00008950F94C2F10F9420
:10E3F000DCF10895FC019081992359F09093C600B7
:10E400008091C00086FFFCCF8091C0008064809323
:10E41000C0003196992379F70895282F982F929567
:10E420009F70892F805D8A3308F0895F8093C600D2
:10E430008091C00086FFFCCF8091C00080648093F3
:10E44000C000822F8F70982F905D9A3308F0995FEB
:10E450009093C6008091C00086FFFCCF8091C000E1
:10E4600080648093C00008959C01FB01853691056E
:10E470001CF46330710594F0C90164E670E00F94F8
:10E480002EFE605D7F4F6093C6008091C00086FFC6
:10E49000FCCF8091C00080648093C0002B30310598
:10E4A00014F43297B4F0C90164E670E00F942EFEC4
:10E4B0006AE070E00F942EFE605D7F4F6093C600AF
:10E4C0008091C00086FFFCCF8091C0008064809363
:10E4D000C000C9016AE070E00F942EFEC0968093E0
:10E4E000C6008091C00086FFFCCF8091C000806490
:10E4F0008093C00008951F93182F8EE692EE60E07F
:10E500000F94C2F11093C6008091C00086FFFCCF2B
:10E510008091C00080648093C0000F94DCF11F9153
:10E5200008952F923F924F925F926F927F928F92B7
:10E530009F92AF92BF92CF92DF92EF92FF920F9392
:10E540001F93DF93CF93CDB7DEB762970FB6F894E2
:10E55000DEBF0FBECDBF382E622ECA01DB015C01CB
:10E560006D01772420E2222E2E010894411C511CBB
:10E570008BC081E0A81680E0B80681E0C80680E084
:10E58000D80628F0C601AA27BB270F940DF2BB2797
:10E59000AD2D9C2D8B2D0F940DF28A2D0F940DF225
:10E5A0002092C6008091C00086FFFCCF8091C00001
:10E5B00080648093C0009DE29093C6008091C0006B
:10E5C00086FFFCCF8091C00080648093C0002092C1
:10E5D000C6008091C00086FFFCCF8091C00080649F
:10E5E0008093C00019828601750188249924A1E0D6
:10E5F0003A1651F03A1620F0B2E03B1661F409C029
:10E600000BBFF701779007C0C7010F9477FE782EF4
:10E6100002C0F7017080872D0F940DF22092C60082
:10E620008091C00086FFFCCF8091C0008064809301
:10E63000C000872D8052F401EF70F0708F3520F408
:10E64000E40DF51D708204C0E40DF51D8EE280839B
:10E650000894E11CF11C011D111D0894811C911CE2
:10E6600090E18916910409F0C2CF80E190E0A0E02A
:10E67000B0E0A80EB91ECA1EDB1E198AC2010F9493
:10E68000FAF10F94DCF16A94662009F072CF629679
:10E690000FB6F894DEBF0FBECDBFCF91DF911F91B3
:10E6A0000F91FF90EF90DF90CF90BF90AF909F9031
:10E6B0008F907F906F905F904F903F902F90089534
:10E6C0002F923F924F925F926F927F928F929F9282
:10E6D000AF92BF92CF92DF92EF92FF920F931F9370
:10E6E000DF93CF93CDB7DEB7CD53D1400FB6F894BB
:10E6F000DEBF0FBECDBF01E20EBF0FEF0DBF94B75F
:10E70000F894A89514BE80916000886180936000A1
:10E7100010926000789493FF05C0E0910002F091A0
:10E7200001021995279A2F9A8091C00082608093E8
:10E73000C00080E18093C40088E18093C1000000A4
:10E74000EE24FF24870144E0A42EB12CCC24DD2448
:10E7500024C0C5010197F1F70894E11CF11C011DCB
:10E76000111D21E2E2162EE4F20620E0020720E06D
:10E77000120718F031E0C32ED12CC801B70127ECE5
:10E780003BE140E050E00F9441FE611571058105C9
:10E79000910519F485B1805885B98091C00087FD35
:10E7A00003C0C114D104A9F2A6014F5F5F4FC25E3E
:10E7B000DE4F59834883CE51D140C25EDE4F8881FF
:10E7C0009981CE51D140019711F00D9410FEC05D9A
:10E7D000DE4F19821882C053D14060E0C15DDE4F28
:10E7E0001882CF52D14088249924C35DDE4F19820C
:10E7F0001882CD52D140C05EDE4F188219821A8233
:10E800001B82C052D140CE5CDE4F188219821A8220
:10E810001B82C253D140EE24FF2487010BBFF701B6
:10E8200007911691C45CDE4F19830883CC53D14005
:10E830000D940BFEC25EDE4F28813981CE51D1404E
:10E840002130310509F52091C600C25EDE4F1982E4
:10E850001882CE51D14022C02F5F3F4F4F4F5F4FA4
:10E86000213082E138078AE7480780E0580780F0C6
:10E87000C45CDE4FE881F981CC53D140EF5FFF4F9C
:10E8800019F0EE27FF27099420E030E040E050E047
:10E890008091C00087FFE0CF2091C600C35DDE4FAE
:10E8A00048815981CD52D1404F5F5F4FC35DDE4FEC
:10E8B00059834883CD52D140213209F063C64A3092
:10E8C000510508F05FC60894811C911C53E0851621
:10E8D000910409F059C600E010E018C081E280936D
:10E8E000C6008091C00086FFFCCF8091C00080648C
:10E8F0008093C0002F5F3F4F2931310579F70F9486
:10E90000DCF10F5F1F4F0530110519F020E030E0FA
:10E91000E5CF10920A0210920B0210920C02109294
:10E920000D02109206021092070210920802109235
:10E930000902109202021092030210920402109235
:10E9400005028FEE90EE60E00F94F5F180E191EE1C
:10E9500060E00F94C2F18091C00087FFFCCF9091DE
:10E96000C600903608F09F759032B8F09093C600BC
:10E970008091C00086FFFCCF8091C00080648093AE
:10E98000C000A0E2A093C6008091C00086FFFCCF2B
:10E990008091C00080648093C000983409F4D7C18E
:10E9A0009934B8F4923409F459C1933458F490333B
:10E9B00019F1903308F4E3C59F33A1F1903409F0C5
:10E9C000DEC5BDC0953409F470C1963409F0D7C5D1
:10E9D00098C1923509F42BC2933538F49C3409F46C
:10E9E000F5C1913509F0CBC518C2963509F445C279
:10E9F000993509F0C4C567C483E792EE62E00F94CD
:10EA0000F5F110920602109207021092080210927D
:10EA1000090210920A0210920B0210920C0210923C
:10EA20000D0213C18FE792EE62E00F94F5F18FEEC5
:10EA300090EE60E00F94F5F181E291EE60E00F94CA
:10EA4000C2F187EB91EE60E00F94F5F180E391EE77
:10EA500060E00F94C2F184EE90EE60E00F94F5F167
:10EA60008FE391EE60E00F94C2F186E090E061E008
:10EA700070E00F9434F20F94DCF18DE591EE60E0DC
:10EA80000F94C2F189EC91EE60E00F94F5F18EE401
:10EA900091EE60E00F94C2F183EC91EE60E00F9490
:10EAA000F5F18CE691EE60E00F94C2F18EE10F94E7
:10EAB0000DF288E90F940DF281E00F940DF20F949E
:10EAC000DCF18BE791EE60E00F94C2F119E0E0E039
:10EAD000F0E010935700E4918E2F0F940DF20F94F5
:10EAE000DCF18AE891EE60E00F94C2F1E3E0F0E03F
:10EAF00010935700E4918E2F0F940DF20F94DCF1D8
:10EB000089E991EE60E00F94C2F1E2E0F0E0109349
:10EB10005700E4918E2F0F940DF20F94DCF188EAE8
:10EB200091EE60E00F94C2F1E1E0F0E01093570045
:10EB30001491812F0F940DF20F94DCF107CF8BE825
:10EB400092EE62E00F94F5F18BE492EE60E00F94A8
:10EB5000F5F10F94DCF100E010E019C0C8016F2D51
:10EB60000F947FFEFF2031F489E492EE60E00F9471
:10EB7000C2F10BC0F092C6008091C00086FFFCCFAE
:10EB80008091C00080648093C0000F5F1F4FC80158
:10EB900081519F41A0E0B0E0ABBFFC01F790BAE229
:10EBA000FB1621F0E2E000301E07C1F60F94DCF105
:10EBB0000F94DCF187E592EE60E00F94F5F10F948D
:10EBC000DCF1CC24DD2400E010E01EC0C8010F946D
:10EBD00077FEF82E882331F489E492EE60E00F94FA
:10EBE000C2F10BC08093C6008091C00086FFFCCFAD
:10EBF0008091C00080648093C000FE1419F00894D6
:10EC0000C11CD11C0F5F1F4FC80181519F41A0E063
:10EC1000B0E0ABBFFC01E790FAE2EF1621F022E092
:10EC20000030120799F60F94DCF10F94DCF182E6C4
:10EC300092EE60E00F94C2F1C60161E070E00F94C3
:10EC400034F20F94DCF10F94DCF110920202109276
:10EC50000302109204021092050278CE89E992EE26
:10EC600062E00F94F5F1279A2F9A16C02F9880E052
:10EC700090E0E0EDF7E03197F1F7019684369105E9
:10EC8000C1F72F9A80E090E0E0EDF7E03197F1F7DF
:10EC9000019684369105C1F78091C00087FFE6CFC9
:10ECA0008091C00087FFFCCF64C485EA92EE62E0E9
:10ECB0000F94F5F140910202509103026091040219
:10ECC0007091050281E020E10F9491F2809102029F
:10ECD00090910302A0910402B091050280509F4FD1
:10ECE000AF4FBF4F8093020290930302A0930402A0
:10ECF000B093050280509041A040B04008F426CE69
:10ED0000A4CF83EB92EE62E00F94F5F140910602FE
:10ED100050910702609108027091090280E020E1A1
:10ED20000F9491F28091060290910702A09108023F
:10ED3000B091090280509F4FAF4FBF4F80930602A2
:10ED400090930702A0930802B0930902FFCD80ECD4
:10ED500092EE62E00F94F5F183E792EE60E00F949B
:10ED6000F5F18FE792EE60E00F94F5F18BE892EE0B
:10ED700060E00F94F5F189E992EE60E00F94F5F10F
:10ED800085EA92EE60E00F94F5F183EB92EE60E09D
:10ED90000F94F5F180EC92EE60E00F94F5F187ECC2
:10EDA00092EE60E00F94F5F188ED92EE60E00F9442
:10EDB000F5F18FED92EE60E00F94F5F18AEE92EEB0
:10EDC00060E00F94F5F183E093EEBDCD87EC92EE19
:10EDD00062E00F94F5F181E40F947BF282E40F94EA
:10EDE0007BF283E40F947BF284E40F947BF285E45E
:10EDF0000F947BF286E40F947BF287E40F947BF20E
:10EE000088E40F947BF28AE40F947BF28BE40F94F6
:10EE10007BF28CE40F947BF299CD88ED92EE62E068
:10EE20000F94F5F1772473948824992409C48FED05
:10EE300092EE62E00F94F5F140910A0250910B02BC
:10EE400060910C0270910D0282E020E10F9491F22A
:10EE500080910A0290910B02A0910C02B0910D02D8
:10EE600080509F4FAF4FBF4F80930A0290930B0289
:10EE7000A0930C02B0930D0269CD8AEE92EE62E08F
:10EE80000F94F5F184EE90EE60E00F94F5F18FECC5
:10EE900091EE60E00F94F5F1662477244301CC5D98
:10EEA000DE4F19821882C452D140D401C301B695F5
:10EEB000A79597958795CA5DDE4F88839983AA8326
:10EEC000BB83C652D140CC5DDE4FA881B981C4520C
:10EED000D1401196CC5DDE4FB983A883C452D14096
:10EEE000CD0162E070E00F9434F2B0E2B093C6005E
:10EEF0008091C00086FFFCCF8091C0008064809329
:10EF0000C000EDE2E093C6008091C00086FFFCCF18
:10EF10008091C00080648093C000F0E2F093C6004E
:10EF20008091C00086FFFCCF8091C00080648093F8
:10EF3000C000CA5DDE4FE880F9800A811B81C6529D
:10EF4000D140BB27A12F902F8F2D0F940DF2CA5DBA
:10EF5000DE4F8881C652D1400F940DF2B0E2FB2EF5
:10EF6000F092C6008091C00086FFFCCF8091C00067
:10EF700080648093C0000DE30093C6008091C000C0
:10EF800086FFFCCF8091C00080648093C00010E2B7
:10EF90001093C6008091C00086FFFCCF8091C00016
:10EFA00080648093C0008BBEF3012791C65DDE4F65
:10EFB0002883CA52D140A22EBB24CC24DD2408943D
:10EFC000611C711C811C911C8BBEF3018791282E42
:10EFD0003324442455240894611C711C811C911C09
:10EFE0008BBEF3013791C55DDE4F3883CB52D140E4
:10EFF0000894611C711C811C911C8BBEF30147910C
:10F00000C45DDE4F4883CC52D140ADEFEA2EAFEF66
:10F01000FA2EAFEF0A2FAFEF1A2F6E0C7F1C801E57
:10F02000911E142D032DF22CEE24EA0CFB1C0C1D5A
:10F030001D1D0F940DF220E22093C6008091C000A8
:10F0400086FFFCCF8091C00080648093C000C65DC5
:10F05000DE4F8881CA52D1400F940DF230E23093D6
:10F06000C6008091C00086FFFCCF8091C000806404
:10F070008093C000C45DDE4F8881CC52D1400F9494
:10F080000DF240E24093C6008091C00086FFFCCFA5
:10F090008091C00080648093C000C55DDE4F888190
:10F0A000CB52D1400F940DF250E25093C6008091A4
:10F0B000C00086FFFCCF8091C00080648093C000B8
:10F0C0008FEFE8168FEFF80680E0080780E018075A
:10F0D00031F484E092EE60E00F94C2F1DFC0D80119
:10F0E000C7018070907CA070B0708050904CA040A0
:10F0F000B040D1F52FEF3FE340E050E0E222F322B1
:10F1000004231523CA5DDE4FA880B980CA80DB8046
:10F11000C652D140AE0CBF1CC01ED11EAA0CBB1CD7
:10F12000CC1CDD1C8EE092EE60E00F94C2F1BB2798
:10F13000A12F902F8F2D0F940DF28E2D0F940DF285
:10F1400030E23093C6008091C00086FFFCCF8091F2
:10F15000C00080648093C0004EE34093C60080915D
:10F16000C00086FFFCCF87C08EE09EEFA0E0B0E03D
:10F17000E822F9220A231B239CE0E91694E9F90608
:10F1800090E0090790E0190709F088C0C45DDE4FE0
:10F19000A881CC52D140EA2EFF2400E010E0102FCD
:10F1A0000F2DFE2CEE24C55DDE4FB881CB52D14031
:10F1B000EB0EF11C011D111DD601C501817090706F
:10F1C000A070B070DC0199278827E80EF91E0A1F8D
:10F1D0001B1F20EF30E040E050E0A222B322C42207
:10F1E000D52241E1AA0CBB1CCC1CDD1C4A95D1F7F1
:10F1F000EA0CFB1C0C1D1D1D81E090E0A0E0B0E0BE
:10F20000282239224A225B2235E1220C331C441C7D
:10F21000551C3A95D1F7E20CF31C041D151D57013E
:10F220006801AA0CBB1CCC1CDD1C85E192EE60E0E1
:10F230000F94C2F1C801AA27BB270F940DF2BB2778
:10F24000A12F902F8F2D0F940DF28E2D0F940DF274
:10F2500090E29093C6008091C00086FFFCCF809121
:10F26000C00080648093C000AEE3A093C60080918C
:10F27000C00086FFFCCF8091C00080648093C000F6
:10F28000C601AA27BB270F940DF2BB27AD2D9C2DDD
:10F290008B2D0F940DF28A2D0F940DF20F94DCF14B
:10F2A000CC5DDE4FE881F981C452D140F99709F471
:10F2B0004DCBF4E0EF2EF12C012D112D6E0C7F1CA7
:10F2C000801E911EF2CD83E093EE62E00F94F5F183
:10F2D0008AE192EE60E00F94C2F18091C00087FF56
:10F2E000FCCF1091C6001F751093C6008091C0001E
:10F2F00086FFFCCF8091C00080648093C0000F9493
:10F30000DCF1812F81548A3108F036C1163409F4BA
:10F3100095C0173490F4133409F44EC0143430F40B
:10F320001134F1F0123409F01DC130C0143409F465
:10F3300059C0153409F016C16BC01A3409F4C4C0A1
:10F340001B3438F4173409F48FC0183409F00AC19B
:10F35000A1C01B3409F4D2C01C3409F003C1E8C0B9
:10F360008FEF81B90DC082B1809582B980E090E0C5
:10F37000E0EDF7E03197F1F70196883C9105C1F790
:10F380008091C00087FFEFCF12B8EFC08FEF84B934
:10F390000DC085B1809585B980E090E0E0EDF7E0A3
:10F3A0003197F1F70196883C9105C1F78091C00033
:10F3B00087FFEFCF15B8D9C08FEF87B90DC088B1DF
:10F3C000809588B980E090E0E0EDF7E03197F1F7C3
:10F3D0000196883C9105C1F78091C00087FFEFCF6F
:10F3E00018B8C3C08FEF8AB90DC08BB180958BB9A7
:10F3F00080E090E0E0EDF7E03197F1F70196883C8E
:10F400009105C1F78091C00087FFEFCF1BB8ADC059
:10F410008FEF8DB90DC08EB180958EB980E090E0F0
:10F42000E0EDF7E03197F1F70196883C9105C1F7DF
:10F430008091C00087FFEFCF1EB897C08FEF80BBD1
:10F440000DC081B3809581BB80E090E0E0EDF7E0F6
:10F450003197F1F70196883C9105C1F78091C00082
:10F4600087FFEFCF11BA81C08FEF83BB0DC084B38C
:10F47000809584BB80E090E0E0EDF7E03197F1F714
:10F480000196883C9105C1F78091C00087FFEFCFBE
:10F4900014BA6BC08FEF809301010FC080910201FD
:10F4A00080958093020180E090E0E0EDF7E03197F5
:10F4B000F1F70196883C9105C1F78091C00087FF64
:10F4C000EDCF1092020151C08FEF809304010FC065
:10F4D0008091050180958093050180E090E0E0ED4A
:10F4E000F7E03197F1F70196883C9105C1F78091DB
:10F4F000C00087FFEDCF1092050137C08FEF8093DA
:10F5000007010FC08091080180958093080180E079
:10F5100090E0E0EDF7E03197F1F70196883C910536
:10F52000C1F78091C00087FFEDCF109208011DC088
:10F530008FEF80930A010FC080910B01809580931B
:10F540000B0180E090E0E0EDF7E03197F1F70196F4
:10F55000883C9105C1F78091C00087FFEDCF1092E4
:10F560000B0103C085E292EEEEC98091C00087FFD7
:10F57000FCCF8091C600EAC988E392EEE4C98CE131
:10F5800091EEE1C988249924933011F1943028F444
:10F59000913089F09230B8F408C0953061F195301F
:10F5A000F0F0963009F048C043C02B3109F042C951
:10F5B00091E06BE13FC96227C15DDE4F2883CF52E6
:10F5C000D14092E037C9B22FA0E0622793E032C960
:10F5D000822F90E0A82BB92B622794E02BC92E3004
:10F5E00009F039C3622795E0C05DDE4F19821882A9
:10F5F000C053D1401FC9E1E0F0E0EC0FFD1FC05D3A
:10F60000DE4F08811981C053D140E00FF11F2083E4
:10F610000F5F1F4FC05DDE4F19830883C053D14079
:10F6200062270A171B0709F005C9D80196E002C92D
:10F63000261709F010C303C0973009F0FBC87724E0
:10F640009981933109F412C19431C8F4963009F4C8
:10F65000D8C0973050F4923009F406C1933009F4C1
:10F660006DC0913009F059C253C0913109F477C08F
:10F67000923108F0BBC0903109F04FC2F5C098310B
:10F6800009F487C0993150F4953109F4EFC09531F0
:10F6900008F4C6C1963109F040C2C2C19A3109F4DA
:10F6A0006CC09A3108F491C09B3109F45BC09D3164
:10F6B00009F033C29D81903359F48F81882311F46E
:10F6C0009EE11CC0813011F091E018C098E916C08D
:10F6D000892F807591F0903539F4E0E0F0E089E011
:10F6E0008093570094910AC0983539F4E3E0F0E034
:10F6F00089E080935700949101C090E01A821B82A8
:10F700008D818C831D829E831F8227E030E009C299
:10F710001A8288E08B8381E48C8386E58D8382E581
:10F720008E8389E48F8383E5888780E589878FE5E9
:10F730008A8782E38B872BE030E0F3C18A818139AD
:10F7400041F0823941F0803911F48FE005C080E04A
:10F7500003C082E001C08AE01A828B8344C0772410
:10F76000739482C08D81882311F48EE12CC0813086
:10F7700011F081E028C088E926C01A82E1E0F0E0BB
:10F7800089E08093570084918B831C8224E030E0D1
:10F79000C8C18B81803589F48C81883039F4E2E0EE
:10F7A000F0E089E08093570084910DC0E0E0F0E044
:10F7B00089E080935700849106C0E3E0F0E089E09F
:10F7C0008093570084911A82DFCF8D81836C99E0FA
:10F7D000E1E0F0E0082E90935700E89507B600FCB2
:10F7E000FDCF1A821B8223E030E09BC180EC8A832C
:10F7F000CE5CDE4F188219821A821B82C253D1401E
:10F800008EC18A8190E0A0E0B0E0582F44273327D2
:10F8100022278B8190E0A0E0B0E0DC0199278827C7
:10F82000282B392B4A2B5B2B8D8190E0A0E0B0E098
:10F83000282B392B4A2B5B2B8C8190E0A0E0B0E089
:10F84000BA2FA92F982F8827282B392B4A2B5B2BCF
:10F85000220F331F441F551FC05EDE4F288339839C
:10F860004A835B83C052D1401A8259C13A81C95C34
:10F87000DE4F3883C753D140CA5CDE4F1882C6536F
:10F88000D1408B81C82EDD24CA5CDE4F488159816E
:10F89000C653D140C42AD52A933109F082C0CE5C28
:10F8A000DE4F88819981AA81BB81C253D1408050AB
:10F8B000904CA340B04030F583E0CE5CDE4FE88052
:10F8C000F9800A811B81C253D140F70100935B008C
:10F8D00080935700E89507B600FCFDCFCE5CDE4F65
:10F8E000088119812A813B81C253D14000501F4FAA
:10F8F0002F4F3F4FCE5CDE4F088319832A833B8313
:10F90000C253D140C05EDE4F488159816A817B81FC
:10F91000C052D140DE011B9631E08C9111962C91A2
:10F9200011971296C75CDE4F2883C953D140C85C3B
:10F93000DE4F1882C853D14090E0C85CDE4FE881AA
:10F94000F981C853D1408E2B9F2B0C01FA01609393
:10F950005B0030935700E89511244E5F5F4F6F4F67
:10F960007F4F0EEFE02E0FEFF02ECE0CDF1CC114F8
:10F97000D10499F685E0C05EDE4F088119812A81A5
:10F980003B81C052D140F80120935B008093570027
:10F99000E89507B600FCFDCF81E180935700E8951C
:10F9A00035C0C05EDE4F88819981AA81BB81C0527B
:10F9B000D140B695A795979587957C018601ABE0D8
:10F9C000AA2EB12CAC0EBD1E0BC0D5016D915D01F0
:10F9D000C7010F947FFE0894E11CF11C01501040F8
:10F9E0000115110591F7A60160E070E0440F551F65
:10F9F000661F771FC05EDE4FE880F9800A811B8199
:10FA0000C052D1404E0D5F1D601F711F1A82C05E33
:10FA1000DE4F488359836A837B83C052D1407FC0C5
:10FA2000FA80C55CDE4FF882CB53D140C65CDE4F16
:10FA30001882CA53D1408B81C82EDD24C65CDE4FAC
:10FA400008811981CA53D140C02AD12A1A828981DA
:10FA5000BE016D5F7F4F843121F59601C05EDE4FA0
:10FA6000E880F9800A811B81C052D1400BBFF701A9
:10FA700087919691DB018C9311969C936E5F7F4FDB
:10FA8000D801C7010296A11DB11DC05EDE4F88835B
:10FA90009983AA83BB83C052D14022503040F1F6F3
:10FAA00036C0C05EDE4F288139814A815B81C052F9
:10FAB000D1400894C108D108760100E010E0089414
:10FAC000C11CD11C0894E11CF11C011D111DE20E8A
:10FAD000F31E041F151F21BDBB27A52F942F832FB5
:10FAE00082BD2F5F3F4F4F4F5F4FF89A80B5DB01CC
:10FAF0008D93BD012E153F054007510761F7C05E8C
:10FB0000DE4F288339834A835B83C052D1409601FC
:10FB10002D5F3F4FFB01108204C080EC8A8322E0FE
:10FB200030E08BE18093C6008091C00086FFFCCF5F
:10FB30008091C00080648093C000C15DDE4FF88179
:10FB4000CF52D140F093C6008091C00086FFFCCF19
:10FB50008091C00080648093C000432F3093C60022
:10FB60008091C00086FFFCCF8091C00080648093AC
:10FB7000C000922F2093C6008091C00086FFFCCF6A
:10FB80008091C00080648093C0008EE08093C600A6
:10FB90008091C00086FFFCCF8091C000806480937C
:10FBA000C00065E1C15DDE4FE880CF52D1406E25D7
:10FBB00069276427FE01319610C090819093C6009A
:10FBC0008091C00086FFFCCF31968091C000806498
:10FBD0008093C0006927215030402115310569F715
:10FBE0006093C6008091C00086FFFCCF8091C0006A
:10FBF00080648093C00085B1805885B9772081F4F6
:10FC0000C15DDE4F0881CF52D1400F5FC15DDE4F35
:10FC10000883CF52D14090E0A0E0B0E00D941AF4F8
:10FC200027982F9880E090E020ED37E0F901319798
:10FC3000F1F7019684369105C9F700008091C00064
:10FC40008D7F8093C00081E180935700E895EE2777
:10FC5000FF270994FFCF90E00D941AF497FB092E2B
:10FC600007260AD077FD04D02ED006D000201AF443
:10FC7000709561957F4F0895F6F7909581959F4F08
:10FC80000895A1E21A2EAA1BBB1BFD010DC0AA1FDD
:10FC9000BB1FEE1FFF1FA217B307E407F50720F0F5
:10FCA000A21BB30BE40BF50B661F771F881F991F70
:10FCB0001A9469F760957095809590959B01AC01B9
:10FCC000BD01CF010895AA1BBB1B51E107C0AA1FAC
:10FCD000BB1FA617B70710F0A61BB70B881F991FED
:10FCE0005A95A9F780959095BC01CD010895F99991
:10FCF000FECF92BD81BDF89A992780B50895262F31
:10FD0000F999FECF1FBA92BD81BD20BD0FB6F89400
:0EFD1000FA9AF99A0FBE01960895F894FFCF63
:040000033000E000E9
:00000001FF