:1000000007C1000041C5000014C50000E7C400009E
:10001000BAC400008DC4000060C4000033C40000F6
:1000200006C4000025C1000023C1000021C100005A
:100030001FC100001DC100001BC1000019C100004C
:1000400017C1000015C1000013C1000011C100005C
:100050000FC100000DC100000BC100009EC30000D5
:1000600007C1000064C3000039C3000001C10000E3
:10007000FFC00000FDC00000FBC00000F9C0000090
:10008000F7C00000F5C00000F3C00000F1C00000A0
:10009000EFC00000EDC00000EBC00000E9C00000B0
:1000A000E7C00000E5C00000E3C00000E1C00000C0
:1000B000DFC00000DDC00000DBC00000D9C00000D0
:1000C000D7C00000D5C00000D3C00000D1C00000E0
:1000D000CFC00000CDC00000CBC00000C9C00000F0
:1000E000C7C000005F026202510255025902990224
:1000F00066026A027002740278027E02820286023E
:1001000099028C029002940200000A0B02090C0D65
:100110000E080703040100000000000000000000BA
:1001200000000000000000000000000000000000CF
:10013000000000001211100000000000000000008C
:1001400000000000000000000000000000000000AF
:100150002200250028002B002E003100340002016F
:100160000000050108010B01000021002400270008
:100170002A002D00300033000101000004010701B6
:100180000A0105050505070508080808020202021C
:100190000A0A080804040404010101010101010123
:1001A0000303030303030303040707070C0C0C0CEE
:1001B0000C0C0C0C020202020606060606060606D7
:1001C0000B0B0B0B0B0B0B0B010210202008081064
:1001D00020401020408002010201080402010102B7
:1001E0000408102040808040201008040201800490
:1001F00002018040201008040201080402010102EB
:100200000408102040800102040810204080250CC2
:1002100011241FBECFEFD1E2DEBFCDBF00E00CBF87
:1002200012E0A0E0B2E0E0E7FCE100E00BBF02C0BA
:1002300007900D92A439B107D9F726E0A4E9B2E0FE
:1002400001C01D92A933B207E1F711E0C8E0D1E087
:1002500000E006C021970109802FFE010E94780D61
:10026000C730D10780E00807A9F749D70C94360EAC
:10027000C7CEFC01918D828D981761F0828DDF01D0
:10028000A80FB11D5D968C91928D9F5F9F73928F89
:1002900090E008958FEF9FEF0895FC01918D828D7E
:1002A000981731F0828DE80FF11D858D90E008954B
:1002B0008FEF9FEF0895FC01918D228D892F90E0A3
:1002C000805C9F4F821B91098F739927089580EA64
:1002D00092E0F1DF21E0892B09F420E0822F0895DC
:1002E000FC01848DDF01A80FB11DA35ABF4F2C91D3
:1002F000848D90E001968F739927848FA689B789A2
:100300002C93A089B1898C9180648C93938D848D7A
:10031000981306C00288F389E02D80818F7D808349
:100320000895EF92FF920F931F93CF93DF93EC0109
:1003300081E0888F9B8D8C8D981305C0E889F989A1
:10034000808185FD23C0F62E0B8D10E00F5F1F4FBF
:100350000F731127E02E8C8DE8120BC00FB607FC2F
:10036000FACFE889F989808185FFF5CFCE01B8DF22
:10037000F2CF8B8DFE01E80FF11DE35AFF4FF082A3
:100380000B8FEA89FB898081806207C0EE89FF8933
:100390006083E889F98980818064808381E090E0CE
:1003A000DF91CF911F910F91FF90EF900895CF9320
:1003B000DF93EC01888D8823C1F0EA89FB89808175
:1003C00085FD05C0A889B9898C9186FD0EC00FB640
:1003D00007FCF5CF808185FFF2CFA889B9898C9180
:1003E00085FFEDCFCE017CDFE8CFDF91CF9108957F
:1003F00080E090E0892B19F06ADF811125C080E050
:1004000090E0892B41F080E090E0892B21F00E9460
:10041000000081111CC080E090E0892B41F080E059
:1004200090E0892B21F00E940000811113C080E030
:1004300090E0892BA1F080E090E0892B81F00E9470
:10044000000081110AC008950E940000D8CF0E94C8
:100450000000E1CF0E940000EACF0C940000089554
:10046000362F90E0FC01E85FFE4F4491FC01E85319
:10047000FE4F2491FC01EE57FE4F9491992309F40D
:100480006BC0442309F455C050E0FA013197E231C2
:10049000F10508F04EC08827EE58FF4F8F4F0C949F
:1004A000780D809180008F7707C0809180008F7DCC
:1004B00003C080918000877F809380003AC084B51C
:1004C0008F7702C084B58F7D84BD33C08091B0002A
:1004D0008F7703C08091B0008F7D8093B00029C0DA
:1004E000809190008F7707C0809190008F7D03C02E
:1004F00080919000877F809390001BC08091A00026
:100500008F7707C08091A0008F7D03C08091A000ED
:10051000877F8093A0000DC0809120018F7707C056
:10052000809120018F7D03C080912001877F80937F
:100530002001E92FF0E0EE0FFF1FE25BFE4FA591D7
:10054000B4918FB7F894EC91311103C020952E230C
:1005500001C02E2B2C938FBF08953FB7F894809144
:10056000990290919A02A0919B02B0919C0226B5AB
:10057000A89B05C02F3F19F00196A11DB11D3FBFDB
:10058000BA2FA92F982F8827820F911DA11DB11D69
:10059000BC01CD0142E0660F771F881F991F4A9565
:1005A000D1F708958F929F92AF92BF92CF92DF9230
:1005B000EF92FF926B017C01D0DF4B015C01C11413
:1005C000D104E104F104E9F0C8DFDC01CB018819B2
:1005D0009909AA09BB09883E9340A105B10578F3A2
:1005E00021E0C21AD108E108F10888EE880E83E004
:1005F000981EA11CB11CC114D104E104F10421F71F
:10060000DECFFF90EF90DF90CF90BF90AF909F90A4
:100610008F90089508950895CF93DF931F92CDB7DB
:10062000DEB76983DC01ED91FC910280F381E02D5E
:1006300041E050E0BE016F5F7F4F19950F90DF9151
:10064000CF910895089508958F929F92AF92BF928F
:10065000CF92DF92EF92FF920F931F93CF93DF938E
:100660007C01EB016C0182E0C80ED11C4701E5E082
:100670008E0E911C00E010E0F60141916F0150E0F8
:1006800060E070E02AE0CE01F3D45C01E881F981FA
:100690000190F081E02D6EE2CE0119958A0D9B1D2F
:1006A000080F191FC814D90439F7F701458150E024
:1006B00060E070E02AE0CE01DBD4800F911FDF9173
:1006C000CF911F910F91FF90EF90DF90CF90BF904F
:1006D000AF909F908F9008950E94800D1F920F926F
:1006E0000FB60F9211240BB60F922F933F934F9397
:1006F0005F936F937F938F939F93AF93BF93EF938A
:10070000FF9380EA92E0ECDDFF91EF91BF91AF9112
:100710009F918F917F916F915F914F913F912F9119
:100720000F900BBE0F900FBE0F901F9018951F9249
:100730000F920FB60F9211240BB60F922F938F9337
:100740009F93EF93FF93E091B002F091B10280810B
:10075000E091B602F091B70282FD12C090818091C3
:10076000B9028F5F8F732091BA02821751F0E09126
:10077000B902F0E0E056FD4F958F8093B90201C0B9
:100780008081FF91EF919F918F912F910F900BBEE0
:100790000F900FBE0F901F9018951F920F920FB6DB
:1007A0000F9211242F933F938F939F93AF93BF93F7
:1007B0008091950290919602A0919702B091980233
:1007C0003091940223E0230F2D3720F40196A11DD0
:1007D000B11D05C026E8230F0296A11DB11D20936F
:1007E00094028093950290939602A0939702B093FF
:1007F00098028091990290919A02A0919B02B091E7
:100800009C020196A11DB11D8093990290939A02BA
:10081000A0939B02B0939C02BF91AF919F918F9147
:100820003F912F910F900FBE0F901F9018951F9220
:100830000F920FB60F9211240BB60F922F933F9386
:100840004F935F936F937F938F939F93AF93BF93D8
:10085000EF93FF93E0910E02F0910F021995FF9133
:10086000EF91BF91AF919F918F917F916F915F9128
:100870004F913F912F910F900BBE0F900FBE0F9095
:100880001F9018951F920F920FB60F9211240BB65E
:100890000F922F933F934F935F936F937F938F9319
:1008A0009F93AF93BF93EF93FF93E0910C02F0916E
:1008B0000D021995FF91EF91BF91AF919F918F918B
:1008C0007F916F915F914F913F912F910F900BBE50
:1008D0000F900FBE0F901F9018951F920F920FB69A
:1008E0000F9211240BB60F922F933F934F935F9368
:1008F0006F937F938F939F93AF93BF93EF93FF93E8
:10090000E0910202F09103021995FF91EF91BF91DE
:10091000AF919F918F917F916F915F914F913F9197
:100920002F910F900BBE0F900FBE0F901F90189538
:100930001F920F920FB60F9211240BB60F922F93A6
:100940003F934F935F936F937F938F939F93AF9357
:10095000BF93EF93FF93E0910002F091010219958C
:10096000FF91EF91BF91AF919F918F917F916F9187
:100970005F914F913F912F910F900BBE0F900FBE43
:100980000F901F9018951F920F920FB60F9211247F
:100990000BB60F922F933F934F935F936F937F9379
:1009A0008F939F93AF93BF93EF93FF93E0910A02CE
:1009B000F0910B021995FF91EF91BF91AF919F912B
:1009C0008F917F916F915F914F913F912F910F90F8
:1009D0000BBE0F900FBE0F901F9018951F920F9295
:1009E0000FB60F9211240BB60F922F933F934F9394
:1009F0005F936F937F938F939F93AF93BF93EF9387
:100A0000FF93E0910802F09109021995FF91EF918F
:100A1000BF91AF919F918F917F916F915F914F9116
:100A20003F912F910F900BBE0F900FBE0F901F9014
:100A300018951F920F920FB60F9211240BB60F92BA
:100A40002F933F934F935F936F937F938F939F93D6
:100A5000AF93BF93EF93FF93E0910602F0910702EB
:100A60001995FF91EF91BF91AF919F918F917F91D8
:100A70006F915F914F913F912F910F900BBE0F900F
:100A80000FBE0F901F9018951F920F920FB60F92E6
:100A900011240BB60F922F933F934F935F936F9355
:100AA0007F938F939F93AF93BF93EF93FF93E091C7
:100AB0000402F09105021995FF91EF91BF91AF915A
:100AC0009F918F917F916F915F914F913F912F9166
:100AD0000F900BBE0F900FBE0F901F901895EF92C6
:100AE000FF921F93CF93DF931F92CDB7DEB77C01A8
:100AF000162F60E0FC0186854983B2DCF7019485FE
:100B000085859CBD8DBD1EBD000049810DB407FECD
:100B1000FDCF8EB54EBD00000DB407FEFDCF1EB556
:100B200061E0F70186859CDC812F0F90DF91CF91EA
:100B30001F91FF90EF9008956F7740E0D0CFEF9234
:100B4000FF921F93CF93DF931F92CDB7DEB77C0147
:100B5000DC01ED91FC910480F581E02D1995892B44
:100B600081F06DE0C701E8DF482F60E0C7014983ED
:100B7000E3DF182F49816DE8C701B1DF812F90E0D5
:100B800002C08FEF9FEF0F90DF91CF911F91FF90E9
:100B9000EF900895CF93DF93EC01E881F981048011
:100BA000F581E02D1995892B51F08E899F89019649
:100BB0009F8B8E8B60E0CE01BFDF90E002C08FEF95
:100BC0009FEFDF91CF910895CF93DF93EC0163E125
:100BD000B3DF282F30E08E899F89A901481B590B6C
:100BE000CA01DF91CF9108958F929F92AF92BF92E9
:100BF000CF92DF92FF920F931F93CF93DF931F92B9
:100C0000CDB7DEB76C01B62E4A0162E2798394DF7C
:100C1000F82E90E09C01280D391D79812F3F310578
:100C200031F028F02FEF30E04901881A990A0B2D96
:100C3000172F5801A80CB91C0A151B0539F0F8012B
:100C400041918F0160E8C6014ADFF6CF482D4F0D74
:100C500062EAC60144DFC4010F90DF91CF911F917A
:100C60000F91FF90DF90CF90BF90AF909F908F90AB
:100C700008956F3F710519F4FC0160817181CB010A
:100C80008270992760FF04C0892B31F485E007C08A
:100C9000892B21F481E003C08AE001C082E066FD77
:100CA00002C091E001C092E0890F67FD02C091E0AF
:100CB00001C092E0890F65FD02C091E001C094E09F
:100CC000890F63FD02C090E001C092E0890F089592
:100CD000CF92DF92EF92FF920F931F93CF93DF9308
:100CE0006C017A018B01C0E0D0E0CE15DF0589F000
:100CF000D8016D918D01D601ED91FC910190F081AB
:100D0000E02DC6011995892B11F47E0102C02196B0
:100D1000ECCFC701DF91CF911F910F91FF90EF9022
:100D2000DF90CF90089590E0FC01E853FE4F2491AE
:100D3000FC01EE57FE4F8491882399F090E0880FD4
:100D4000991FFC01E859FE4FA591B491FC01E25BAB
:100D5000FE4F859194918FB7F894EC91E22BEC9330
:100D60008FBF089510925603109255036DE18DE3E5
:100D700093E0E2DE482F4E7F6DE98DE393E0AFCE46
:100D8000CF93DF9362E18DE393E0D6DEC82FEADFF5
:100D90004C2F62E98DE393E0A2DEC6FF23C0C5FDC0
:100DA00021C01092540310925303809155039091E7
:100DB0005603892B11F062E201C063E18DE393E0F9
:100DC000BBDEC82FD0E060E18DE393E0B5DE482FB5
:100DD0006DE88DE393E083DE41E861E88DE393E025
:100DE0007EDE12C061E08DE393E0A6DE863851F02E
:100DF00040E06DE88DE393E072DE46E861E88DE364
:100E000093E06DDEC0E0D0E0CE01DF91CF91089598
:100E1000AF92BF92CF92DF92EF92FF920F931F9308
:100E2000CF93DF937C01EB0100915D0310915E0392
:100E30000F3F110511F008F00068B8018DE593E04F
:100E400018DFA801440F452F441F550B5195942FCF
:100E50009170C92EB80136E0769567953A95E1F71D
:100E6000A62FA170DA2E05FD05C00062B8018DE540
:100E700093E0FFDE282F30E02C5E3F4F2F3F3105FF
:100E800061F058F0D1100CC00064B8018DE593E01A
:100E9000F0DE282F30E02C5E3F4F2036310550F039
:100EA000E091F705F091F805622F88E6199580E04A
:100EB00090E0BEC08CE288830983C1101A834C2D58
:100EC00050E0FE01E40FF51FDD2019F012822383AC
:100ED00001C02283C8018270992700FF28C06D2DB0
:100EE00070E0FA013396E60FF71FEC0FFD1FD701F4
:100EF000CD90DD90ED90FC90C082D182E282F382B1
:100F0000892BF9F04C0F5D1FFA01E60FF71F809156
:100F10005F0390916003A0916103B09162038783A6
:100F20009087A187B2878091000683870AC0892BAA
:100F300041F04C0F5D1FFA01ED0DF11D809100068F
:100F40008383D9015497A8014072552705FD03C03A
:100F500081E090E002C084E090E0A81BB90BAC0FE8
:100F6000BD1F84E1E0E1F2E001900D928A95E1F786
:100F7000452BE9F15901B4E0AB1AB1088E01B90172
:100F80008FEF9FEFDC01F80141918F01842749E049
:100F90004150B1F06C017D01F694E794D794C79469
:100FA00080FF0BC0D701C601F0E28F27F3E89F272F
:100FB000F8EBAF27FDEEBF27EBCFD701C601E8CF97
:100FC0006150710964307105F1F680959095A09596
:100FD000B095F501EC0FFD1FB083C20FD31FFE01CA
:100FE0003397A083319690832197888320C0D901BD
:100FF00011978E010A0F1B1FFE0180E07CE86191B2
:1010000098E0F82EF626482F50E055954795842F06
:10101000F0FE02C0872F84276595915091F7AF01AC
:101020004C1B5D0B4A175B0750F3D8018C93C90129
:10103000DF91CF911F910F91FF90EF90DF90CF90B4
:10104000BF90AF9008956115710579F0FB01019093
:101050000020E9F73197AF01461B570BDC01ED91FA
:10106000FC910280F381E02D199480E090E00895D6
:101070004F925F926F927F92EF92FF920F931F9326
:10108000CF93DF93CDB7DEB7A1970FB6F894DEBF4D
:101090000FBECDBF7C01FA01CB0119A2223008F4AA
:1010A0002AE08E010F5D1F4F422E512C612C712CB6
:1010B000BF01A3019201A9D5F901CA01015011098B
:1010C0006A3014F4605D01C0695CD8016C93232B15
:1010D000242B252B69F7B801C701B5DFA1960FB600
:1010E000F894DEBF0FBECDBFDF91CF911F910F915E
:1010F000FF90EF907F906F905F904F90089578945D
:1011000084B5826084BD84B5816084BD85B582600C
:1011100085BD85B5816085BD80916E0081608093BD
:101120006E00109281008091810082608093810026
:101130008091810081608093810080918000816036
:10114000809380008091B10084608093B100809191
:10115000B00081608093B0008091910082608093A4
:101160009100809191008160809391008091900026
:101170008160809390008091A10082608093A100A3
:101180008091A10081608093A1008091A000816086
:101190008093A00080912101826080932101809141
:1011A00021018160809321018091200181608093E1
:1011B000200180917A00846080937A0080917A0087
:1011C000826080937A0080917A00816080937A00B7
:1011D00080917A00806880937A001092C10086E93D
:1011E0008093F90580914B039EDD80914D039BDD3B
:1011F00060E080914D0334D96AE070E080E090E0D7
:10120000D1D961E080914D032BD96AE070E080E094
:1012100090E0C8D961E080914B0322D9CFB7F89410
:1012200080919D02811120C0E7EBF1E08491EDEF08
:10123000F1E09491E82FF0E0EE0FFF1FE859FE4F28
:10124000A591B491EC91E92319F461E085E308D903
:1012500085E369DD8CB580618CBD8CB580648CBD07
:1012600084E361DD83E35FDD80919D028F5F809386
:101270009D02CFBF62E48DE393E05EDC823109F032
:101280003DC040E861E88DE393E029DC80EA97E225
:10129000909352038093510349ED66E88DE393E008
:1012A0001EDC46E067E88DE393E019DC46E668E87B
:1012B0008DE393E014DC40E06EE88DE393E00FDC17
:1012C00040E06FE88DE393E00ADC6CE08DE393E0AF
:1012D00033DC482F43606CE88DE393E000DC44E0AE
:1012E00066EA8DE393E0FBDB4FE869E88DE393E08A
:1012F000F6DB41E861E88DE393E0F1DB6DE18DE33E
:1013000093E01ADC8F70482F40686DE98DE393E01D
:10131000E6DB8091FC05863308F0865390917B00D4
:10132000282F2870977F922B90937B008770806482
:1013300080937C0080917A00806480937A00809111
:101340007A0086FDFCCF609178008091790070E092
:10135000782B80910006680F711D072E000C880BFA
:10136000990B611571058105910509F019D4C0919A
:10137000000613D428EE33E040E050E01AD42C2FBE
:1013800030E0620F731F6230710540F0660F771F07
:10139000660F771FCB0105970197F1F7ECE3F4E0B7
:1013A00000E010E080819181892B59F58DE6809FC6
:1013B000E001819FD00D1124BE016A527C4F8FE560
:1013C00093E026DD009759F1C75ADC4FFE01E35246
:1013D000FF4F9183808336968AE490E091838083E7
:1013E000BCD8FE01E152FF4F6083718382839383F7
:1013F000CB51DF4F188219821A821B82902F812FC6
:1014000010C00F5F1F4FE359FF4F0530110551F614
:10141000E091F705F091F80565E086E619959FEFF4
:101420008FEF90939E0280939F02E091B002F09123
:10143000B10282E08083E091AC02F091AD021082B3
:10144000E091AE02F091AF0280E180831092B80289
:10145000E091B402F091B50286E08083E091B2029F
:10146000F091B302808180618083E091B202F091BB
:10147000B302808188608083E091B202F091B30270
:10148000808180688083E091B202F091B302808114
:101490008F7D80836FE472E080EA92E0D4DD67E6BE
:1014A00072E080EA92E0CFDD6AE672E080EA92E0E4
:1014B000CADD67E672E080EA92E0C5DD67E672E0C9
:1014C00080EA92E0C0DD05ED13E0C6E3D4E096EDDE
:1014D000E92E93E0F92E27ED222E23E0322ED12C97
:1014E0008E819F81892B09F43EC1F101C08035D8DE
:1014F0004B015C01F801A0814A2E512C612C712C0A
:10150000B0E0A301920171D39B01AC01E2D29B0137
:10151000AC018A819B81AC81BD81881A990AAA0A93
:10152000BB0AC301B201D5D2488459846A847B8442
:10153000DC01CB01840D951DA61DB71D88159905ED
:10154000AA05BB0508F00FC1BB24B3948C2D8A708B
:101550008A3009F0B12CC2FE07C0BB2029F08E8171
:101560009F81069709F484C0C880E114F10419F43E
:101570008FEF9FEF7BC08091F905863991F441E8A8
:1015800061E88DE393E0ABDAEDDB40E06DE88DE3FD
:1015900093E0A5DA40E062EA8DE393E0A0DA470148
:1015A0001BC0EEDB181619060CF45EC00E94AD02DB
:1015B0004090590350905A0360905B0370905C0315
:1015C000DC01CB0184199509A609B709803C96482E
:1015D000A140B105A0F648C0882D8E198C1538F4AD
:1015E000F40161914F018DE393E016D8F5CF43E804
:1015F00061E88DE393E073DA62E18DE393E09CDAD6
:1016000083FFFACF48E062E98DE393E068DAF701FF
:101610008081811103C086E090E028C0F1018081C3
:1016200082FFF9CF8091F9058639A9F30E94AD02B6
:101630002B013C010E94AD02DC01CB01841995090C
:10164000A609B709803A9648A140B10508F090CFA5
:1016500097DB882379F38DE393E09CDA863091055C
:10166000D1F2019609F484CF8AE992E09F838E83B8
:10167000F80180818F5F80838E819F818630910504
:1016800009F0DFC088859985AA85BB85892B8A2BBF
:101690008B2BC9F48091F605882309F4CEC0F101A3
:1016A000C0806C2D0C2C000C770B8DE593E0E1DAFB
:1016B00090E0288139812817390711F4B11006C04C
:1016C000C3FE04C0BAC0B11020C041C0F8011082EE
:1016D000198218821A821B821C821D821F821E821E
:1016E000BB2009F440C059D220E230E040E050E095
:1016F00060D26230710548F0660F771F660F771F62
:1017000065507109CB010197F1F7F80180818531AE
:1017100050F1E091F705F091F8056D2D85E61995EA
:1017200088859985AA85BB85892B8A2B8B2B79F493
:101730008091F6058823B9F0F80110821982188289
:101740001A821B821C821D821F821E820CC0F8011D
:1017500010820E94AD026A837B838C839D838AE41E
:1017600090E09F838E8303591F4FC359DF4F9DE63F
:10177000E90EF11CEDE62E0E311CD394F5E0DF12DC
:10178000AFCE80919E0290919F022DE6289FF0019E
:10179000299FF00D1124E45CFB4F80819181892BFE
:1017A00009F048C0ECE3F4E000E010E080819181B2
:1017B000892B61F58DE6809FE001819FD00D11247A
:1017C000BE016A527C4F8FE593E022DB009761F106
:1017D000C75ADC4FFE01E352FF4F91838083369658
:1017E0008AE490E0918380830E94AD02FE01E15281
:1017F000FF4F6083718382839383CB51DF4F1882C5
:1018000019821A821B82902F812F10C00F5F1F4FE9
:10181000E359FF4F0530110549F6E091F705F091C6
:10182000F80565E086E619959FEF8FEF90939E028D
:1018300080939F020E94F80146CEBB2009F493CF0B
:1018400064CF019609F04FCF60CF8DE492E0909382
:10185000020680930106109203061092040610926D
:101860000506109206061092A3021092A20248EEFC
:1018700053E060E070E04093A4025093A5026093AF
:10188000A6027093A7022DE232E03093A1022093CA
:10189000A00225EC30E03093AD022093AC0224ECA2
:1018A00030E03093AF022093AE0220EC30E0309372
:1018B000B1022093B00221EC30E03093B3022093C8
:1018C000B20222EC30E03093B5022093B40226EC51
:1018D00030E03093B7022093B6021092B902109212
:1018E000BA021092BB021092BC02109240031092F6
:1018F0003F032DE332E030933E0320933D0320E588
:101900002093490321E020934A034AE050E050939A
:101910004C0340934B0349E050E050934E034093F7
:101920004D0342E050E05093500340934F03109218
:1019300052031092510310925403109253031092C9
:1019400056031092550310925803109257031092A9
:101950004103109242031092430310924403909368
:101960000806809307061092090610920A06109244
:101970000B0610920C0690930E0680930D061092A3
:101980000F061092100610921106109212069093F4
:1019900014068093130610921506109216061092E4
:1019A0001706109218069093220680932106109233
:1019B0002306109224061092250610922606909374
:1019C0001A068093190610921B0610921C0610929C
:1019D0001D0610921E0690932806809327061092EB
:1019E000290610922A0610922B0610922C0690932C
:1019F0002E0680932D0610922F061092300610921C
:101A0000310610923206909334068093330610927A
:101A1000350610923606109237061092380610924C
:101A2000590310925A0310925B0310925C0386E0F4
:101A300090E090935E0380935D0310925F03109299
:101A4000600310926103109262031092630310927C
:101A5000640310926503109266031092C8031092FB
:101A6000C7031092CA031092C9031092CB031092BD
:101A7000D0032093F6051092FB051092FA0586E339
:101A80008093FC051092FF058DE28093000687E9A4
:101A90008093F90582E293E09093F8058093F7052F
:101AA00083E293E09093FE058093FD05ECE3F4E080
:101AB000118210821282138214821582DF01A756CE
:101AC000B1091C92E359FF4F86E0ED35F80781F725
:101AD0000895DB018F939F9388D0BF91AF91A29F10
:101AE000800D911DA39F900DB29F900D112408951C
:101AF000EE0FFF1F881F8BBF0790F691E02D199402
:101B000081E090E0F894B2C08F929F92AF92BF9222
:101B1000CF92DF92EF92FF92CF93DF93EC01688137
:101B200079818A819B81611571058105910521F477
:101B300064E279ED8BE597E02DE133EF41E050E091
:101B400038D049015A019B01AC01A7EAB1E44DD05C
:101B50006B017C01ACEEB4EFA501940152D0DC0125
:101B6000CB018C0D9D1DAE1DBF1DB7FF03C001979E
:101B7000A109B04888839983AA83BB83BC01CD01A6
:101B80009F77DF91CF91FF90EF90DF90CF90BF9044
:101B9000AF909F908F900895B7CF85E292E0B4CF39
:101BA0006093250270932602809327029093280267
:101BB0000895052E97FB16F400940FD057FD05D01D
:101BC00024D007FC02D046F408C0509540953095CB
:101BD00021953F4F4F4F5F4F089590958095709599
:101BE00061957F4F8F4F9F4F089531D0A59F900DE6
:101BF000B49F900DA49F800D911D11240895B7FFEF
:101C0000F4CFF3DF821B930B0895A1E21A2EAA1BD7
:101C1000BB1BFD010DC0AA1FBB1FEE1FFF1FA2179C
:101C2000B307E407F50720F0A21BB30BE40BF50B99
:101C3000661F771F881F991F1A9469F76095709522
:101C4000809590959B01AC01BD01CF010895A29FA5
:101C5000B001B39FC001A39F700D811D1124911D80
:101C6000B29F700D811D1124911D0895F894FFCF2E
:101C70000A030A030A030A030A030A030A030A03FC
:101C80003031323334353637383930313233343518
:101C9000363738390001000000000000009101686B
:101CA000065B0139014D01D701000000000C03F46F
:101CB00005E405CA059F050B03000000002403503E
:101CC0004A4F4E202D204E6574776F726B20616EE7
:101CD000616C79736973000D0A00537461727469E1
:101CE0006E6720612031207365636F6E6420636FBF
:101CF0006D6D756E69636174696F6E207465737460
:041D00002E2E000083
:00000001FF
