:1000000007C1000070C5000043C5000016C5000010
:10001000E9C40000BCC400008FC4000062C400003A
:1000200035C4000025C1000023C1000021C100002B
:100030001FC100001DC100001BC1000019C100004C
:1000400017C1000015C1000013C1000011C100005C
:100050000FC100000DC100000BC10000CDC30000A6
:1000600007C1000093C3000068C3000001C1000085
:10007000FFC00000FDC00000FBC00000F9C0000090
:10008000F7C00000F5C00000F3C00000F1C00000A0
:10009000EFC00000EDC00000EBC00000E9C00000B0
:1000A000E7C00000E5C00000E3C00000E1C00000C0
:1000B000DFC00000DDC00000DBC00000D9C00000D0
:1000C000D7C00000D5C00000D3C00000D1C00000E0
:1000D000CFC00000CDC00000CBC00000C9C00000F0
:1000E000C7C000005F026202510255025902990224
:1000F00066026A027002740278027E02820286023E
:1001000099028C029002940200000A0B02090C0D65
:100110000E080703040100000000000000000000BA
:1001200000000000000000000000000000000000CF
:10013000000000001211100000000000000000008C
:1001400000000000000000000000000000000000AF
:100150002200250028002B002E003100340002016F
:100160000000050108010B01000021002400270008
:100170002A002D00300033000101000004010701B6
:100180000A0105050505070508080808020202021C
:100190000A0A080804040404010101010101010123
:1001A0000303030303030303040707070C0C0C0CEE
:1001B0000C0C0C0C020202020606060606060606D7
:1001C0000B0B0B0B0B0B0B0B010210202008081064
:1001D00020401020408002010201080402010102B7
:1001E0000408102040808040201008040201800490
:1001F00002018040201008040201080402010102EB
:1002000004081020408001020408102040808A0B5E
:1002100011241FBECFEFD1E2DEBFCDBF00E00CBF87
:1002200012E0A0E0B2E0EAE3FBE100E00BBF02C0B5
:1002300007900D92AA33B107D9F725E0AAE3B2E0FF
:1002400001C01D92AD3DB207E1F711E0C8E0D1E079
:1002500000E006C021970109802FFE010E94DD0CFD
:10026000C730D10780E00807A9F72DD60C949B0D65
:10027000C7CEFC01918D828D981761F0828DDF01D0
:10028000A80FB11D5D968C91928D9F5F9F73928F89
:1002900090E008958FEF9FEF0895FC01918D828D7E
:1002A000981731F0828DE80FF11D858D90E008954B
:1002B0008FEF9FEF0895FC01918D228D892F90E0A3
:1002C000805C9F4F821B91098F739927089584E466
:1002D00092E0F1DF21E0892B09F420E0822F0895DC
:1002E000FC01848DDF01A80FB11DA35ABF4F2C91D3
:1002F000848D90E001968F739927848FA689B789A2
:100300002C93A089B1898C9180648C93938D848D7A
:10031000981306C00288F389E02D80818F7D808349
:100320000895EF92FF920F931F93CF93DF93EC0109
:1003300081E0888F9B8D8C8D981305C0E889F989A1
:10034000808185FD23C0F62E0B8D10E00F5F1F4FBF
:100350000F731127E02E8C8DE8120BC00FB607FC2F
:10036000FACFE889F989808185FFF5CFCE01B8DF22
:10037000F2CF8B8DFE01E80FF11DE35AFF4FF082A3
:100380000B8FEA89FB898081806207C0EE89FF8933
:100390006083E889F98980818064808381E090E0CE
:1003A000DF91CF911F910F91FF90EF900895CF9320
:1003B000DF93EC01888D8823C1F0EA89FB89808175
:1003C00085FD05C0A889B9898C9186FD0EC00FB640
:1003D00007FCF5CF808185FFF2CFA889B9898C9180
:1003E00085FFEDCFCE017CDFE8CFDF91CF9108957F
:1003F00080E090E0892B19F06ADF811125C080E050
:1004000090E0892B41F080E090E0892B21F00E9460
:10041000000081111CC080E090E0892B41F080E059
:1004200090E0892B21F00E940000811113C080E030
:1004300090E0892BA1F080E090E0892B81F00E9470
:10044000000081110AC008950E940000D8CF0E94C8
:100450000000E1CF0E940000EACF0C940000089554
:10046000362F90E0FC01E85FFE4F4491FC01E85319
:10047000FE4F2491FC01EE57FE4F9491992309F40D
:100480006BC0442309F455C050E0FA013197E231C2
:10049000F10508F04EC08827EE58FF4F8F4F0C949F
:1004A000DD0C809180008F7707C0809180008F7D68
:1004B00003C080918000877F809380003AC084B51C
:1004C0008F7702C084B58F7D84BD33C08091B0002A
:1004D0008F7703C08091B0008F7D8093B00029C0DA
:1004E000809190008F7707C0809190008F7D03C02E
:1004F00080919000877F809390001BC08091A00026
:100500008F7707C08091A0008F7D03C08091A000ED
:10051000877F8093A0000DC0809120018F7707C056
:10052000809120018F7D03C080912001877F80937F
:100530002001E92FF0E0EE0FFF1FE25BFE4FA591D7
:10054000B4918FB7F894EC91311103C020952E230C
:1005500001C02E2B2C938FBF08953FB7F894809144
:100560003F0290914002A0914102B091420226B513
:10057000A89B05C02F3F19F00196A11DB11D3FBFDB
:10058000BA2FA92F982F8827820F911DA11DB11D69
:10059000BC01CD0142E0660F771F881F991F4A9565
:1005A000D1F708958F929F92AF92BF92CF92DF9230
:1005B000EF92FF926B017C01D0DF4B015C01C11413
:1005C000D104E104F104E9F0C8DFDC01CB018819B2
:1005D0009909AA09BB09883E9340A105B10578F3A2
:1005E00021E0C21AD108E108F10888EE880E83E004
:1005F000981EA11CB11CC114D104E104F10421F71F
:10060000DECFFF90EF90DF90CF90BF90AF909F90A4
:100610008F90089508950895CF93DF931F92CDB7DB
:10062000DEB76983DC01ED91FC910280F381E02D5E
:1006300041E050E0BE016F5F7F4F19950F90DF9151
:10064000CF9108956F3F710519F4FC0160817181AC
:10065000CB018270992760FF04C0892B31F485E0BB
:1006600007C0892B21F481E003C08AE001C082E049
:1006700066FD02C091E001C092E0890F67FD02C0F3
:1006800091E001C092E0890F65FD02C091E001C0D8
:1006900094E0890F63FD02C090E001C092E0890FF1
:1006A0000895089508958F929F92AF92BF92CF922E
:1006B000DF92EF92FF920F931F93CF93DF937C0112
:1006C000EB016C0182E0C80ED11C4701E5E08E0E03
:1006D000911C00E010E0F60141916F0150E060E0F4
:1006E00070E02AE0CE0194D35C01E881F9810190A9
:1006F000F081E02D6EE2CE0119958A0D9B1D080F49
:10070000191FC814D90439F7F701458150E060E09A
:1007100070E02AE0CE017CD3800F911FDF91CF9152
:100720001F910F91FF90EF90DF90CF90BF90AF900F
:100730009F908F9008950E94E50C1F920F920FB624
:100740000F9211240BB60F922F933F934F935F9309
:100750006F937F938F939F93AF93BF93EF93FF9389
:1007600084E492E0BDDDFF91EF91BF91AF919F9145
:100770008F917F916F915F914F913F912F910F904A
:100780000BBE0F900FBE0F901F9018951F920F92E7
:100790000FB60F9211240BB60F922F938F939F9346
:1007A000EF93FF93E0915402F09155028081E09124
:1007B0005A02F0915B0282FD12C0908180915D022D
:1007C0008F5F8F7320915E02821751F0E0915D027E
:1007D000F0E0EC5BFD4F958F80935D0201C080815E
:1007E000FF91EF919F918F912F910F900BBE0F90E2
:1007F0000FBE0F901F9018951F920F920FB60F9279
:1008000011242F933F938F939F93AF93BF93809126
:100810003B0290913C02A0913D02B0913E0230918A
:100820003A0223E0230F2D3720F40196A11DB11DBC
:1008300005C026E8230F0296A11DB11D20933A02A0
:1008400080933B0290933C02A0933D02B0933E0202
:1008500080913F0290914002A0914102B0914202EA
:100860000196A11DB11D80933F0290934002A09379
:100870004102B0934202BF91AF919F918F913F91FE
:100880002F910F900FBE0F901F9018951F920F92EF
:100890000FB60F9211240BB60F922F933F934F93E5
:1008A0005F936F937F938F939F93AF93BF93EF93D8
:1008B000FF93E0910E02F0910F021995FF91EF91D5
:1008C000BF91AF919F918F917F916F915F914F9168
:1008D0003F912F910F900BBE0F900FBE0F901F9066
:1008E00018951F920F920FB60F9211240BB60F920C
:1008F0002F933F934F935F936F937F938F939F9328
:10090000AF93BF93EF93FF93E0910C02F0910D0230
:100910001995FF91EF91BF91AF919F918F917F9129
:100920006F915F914F913F912F910F900BBE0F9060
:100930000FBE0F901F9018951F920F920FB60F9237
:1009400011240BB60F922F933F934F935F936F93A6
:100950007F938F939F93AF93BF93EF93FF93E09118
:100960000202F09103021995FF91EF91BF91AF91AF
:100970009F918F917F916F915F914F913F912F91B7
:100980000F900BBE0F900FBE0F901F9018951F92E7
:100990000F920FB60F9211240BB60F922F933F9325
:1009A0004F935F936F937F938F939F93AF93BF9377
:1009B000EF93FF93E0910002F09101021995FF91EE
:1009C000EF91BF91AF919F918F917F916F915F91C7
:1009D0004F913F912F910F900BBE0F900FBE0F9034
:1009E0001F9018951F920F920FB60F9211240BB6FD
:1009F0000F922F933F934F935F936F937F938F93B8
:100A00009F93AF93BF93EF93FF93E0910A02F0910E
:100A10000B021995FF91EF91BF91AF919F918F912B
:100A20007F916F915F914F913F912F910F900BBEEE
:100A30000F900FBE0F901F9018951F920F920FB638
:100A40000F9211240BB60F922F933F934F935F9306
:100A50006F937F938F939F93AF93BF93EF93FF9386
:100A6000E0910802F09109021995FF91EF91BF9171
:100A7000AF919F918F917F916F915F914F913F9136
:100A80002F910F900BBE0F900FBE0F901F901895D7
:100A90001F920F920FB60F9211240BB60F922F9345
:100AA0003F934F935F936F937F938F939F93AF93F6
:100AB000BF93EF93FF93E0910602F091070219951F
:100AC000FF91EF91BF91AF919F918F917F916F9126
:100AD0005F914F913F912F910F900BBE0F900FBEE2
:100AE0000F901F9018951F920F920FB60F9211241E
:100AF0000BB60F922F933F934F935F936F937F9318
:100B00008F939F93AF93BF93EF93FF93E091040272
:100B1000F09105021995FF91EF91BF91AF919F91CF
:100B20008F917F916F915F914F913F912F910F9096
:100B30000BBE0F900FBE0F901F901895EF92FF9273
:100B40001F93CF93DF931F92CDB7DEB77C01162F93
:100B500060E0FC018685498383DCF7019485858507
:100B60009CBD8DBD1EBD000049810DB407FEFDCFAB
:100B70008EB54EBD00000DB407FEFDCF1EB561E081
:100B8000F70186856DDC812F0F90DF91CF911F914A
:100B9000FF90EF9008956F7740E0D0CFEF92FF92F3
:100BA0001F93CF93DF931F92CDB7DEB77C01DC019B
:100BB000ED91FC910480F581E02D1995892B81F050
:100BC0006DE0C701E8DF482F60E0C7014983E3DF3C
:100BD000182F49816DE8C701B1DF812F90E002C075
:100BE0008FEF9FEF0F90DF91CF911F91FF90EF90CC
:100BF0000895CF93DF93EC01E881F9810480F581BA
:100C0000E02D1995892B51F08E899F8901969F8B34
:100C10008E8B60E0CE01BFDF90E002C08FEF9FEFD0
:100C2000DF91CF910895CF93DF93EC0163E1B3DFC0
:100C3000282F30E08E899F89A901481B590BCA01D2
:100C4000DF91CF9108958F929F92AF92BF92CF92F2
:100C5000DF92FF920F931F93CF93DF931F92CDB735
:100C6000DEB76C01B62E4A0162E2798394DFF82E7A
:100C700090E09C01280D391D79812F3F310531F01D
:100C800028F02FEF30E04901881A990A0B2D172F11
:100C90005801A80CB91C0A151B0539F0F80141913F
:100CA0008F0160E8C6014ADFF6CF482D4F0D62EA9A
:100CB000C60144DFC4010F90DF91CF911F910F91C6
:100CC000FF90DF90CF90BF90AF909F908F9008954E
:100CD000CF92DF92EF92FF920F931F93CF93DF9308
:100CE0006C017A018B01C0E0D0E0CE15DF0589F000
:100CF000D8016D918D01D601ED91FC910190F081AB
:100D0000E02DC6011995892B11F47E0102C02196B0
:100D1000ECCFC701DF91CF911F910F91FF90EF9022
:100D2000DF90CF90089590E0FC01E853FE4F2491AE
:100D3000FC01EE57FE4F8491882399F090E0880FD4
:100D4000991FFC01E859FE4FA591B491FC01E25BAB
:100D5000FE4F859194918FB7F894EC91E22BEC9330
:100D60008FBF08951092FA021092F9026DE181EEA0
:100D700092E011DF482F4E7F6DE981EE92E0DECEEA
:100D8000CF93DF9362E181EE92E005DFC82FEADFC7
:100D90004C2F62E981EE92E0D1DEC6FF23C0C5FD93
:100DA00021C01092F8021092F7028091F9029091FE
:100DB000FA02892B11F062E201C063E181EE92E058
:100DC000EADEC82FD0E060E181EE92E0E4DE482F59
:100DD0006DE881EE92E0B2DE41E861E881EE92E0FA
:100DE000ADDE12C061E081EE92E0D5DE863851F0D2
:100DF00040E06DE881EE92E0A1DE46E861E881EE38
:100E000092E09CDEC0E0D0E0CE01DF91CF9108956A
:100E10004F925F926F927F92EF92FF920F931F9388
:100E2000CF93DF93CDB7DEB7A1970FB6F894DEBFAF
:100E30000FBECDBF7C01FA01CB0119A2223008F40C
:100E40002AE08E010F5D1F4F422E512C612C712C18
:100E5000BF01A30192013ED6F901CA010150110957
:100E60006A3014F4605D01C0695CD8016C93232B77
:100E7000242B252B69F70115110591F0F80101903C
:100E80000020E9F73197AF01401B510BD701ED91DD
:100E9000FC910280F381E02DB801C701199502C0D1
:100EA00080E090E0A1960FB6F894DEBF0FBECDBFF4
:100EB000DF91CF911F910F91FF90EF907F906F90F6
:100EC0005F904F900895789484B5826084BD84B516
:100ED000816084BD85B5826085BD85B5816085BD35
:100EE00080916E00816080936E00109281008091ED
:100EF0008100826080938100809181008160809375
:100F00008100809180008160809380008091B10099
:100F100084608093B1008091B00081608093B000C4
:100F20008091910082608093910080919100816016
:100F300080939100809190008160809390008091D7
:100F4000A10082608093A1008091A10081608093C4
:100F5000A1008091A00081608093A0008091210178
:100F60008260809321018091210181608093210121
:100F70008091200181608093200180917A008460BB
:100F800080937A0080917A00826080937A008091C9
:100F90007A00816080937A0080917A0080688093E3
:100FA0007A001092C100E0915402F091550282E063
:100FB0008083E0915002F09151021082E091520240
:100FC000F09153028FEC808310925C02E091580202
:100FD000F091590286E08083E0915602F091570229
:100FE000808180618083E0915602F0915702808178
:100FF00088608083E0915602F0915702808180687A
:101000008083E0915602F091570280818F7D80832A
:101010008091EF0288DE8091F10285DE60E08091B0
:10102000F1021EDA6AE070E080E090E0BBDA61E095
:101030008091F10215DA6AE070E080E090E0B2DAC7
:1010400061E08091EF020CDACFB7F894809143020F
:10105000811120C0E7EBF1E08491EDEFF1E0949194
:10106000E82FF0E0EE0FFF1FE859FE4FA591B49175
:10107000EC91E92319F461E085E3F2D985E353DECD
:101080008CB580618CBD8CB580648CBD84E34BDEF7
:1010900083E349DE809143028F5F80934302CFBF99
:1010A00062E481EE92E077DD823109F03DC040E8F4
:1010B00061E881EE92E042DD80EA97E29093F602E9
:1010C0008093F50249ED66E881EE92E037DD46E077
:1010D00067E881EE92E032DD46E668E881EE92E074
:1010E0002DDD40E06EE881EE92E028DD40E06FE823
:1010F00081EE92E023DD6CE081EE92E04CDD482F42
:1011000043606CE881EE92E019DD44E066EA81EE2E
:1011100092E014DD4FE869E881EE92E00FDD41E8EE
:1011200061E881EE92E00ADD6DE181EE92E033DD6F
:101130008F70482F40686DE981EE92E0FFDC80916E
:10114000A005863308F0865390917B00282F2870E5
:10115000977F922B90937B008770806480937C00B4
:1011600080917A00806480937A0080917A0086FD75
:10117000FCCF609178008091790070E0782B8091AD
:10118000A405680F711D072E000C880B990B6115C3
:1011900071058105910509F068D4C091A40562D458
:1011A00028EE33E040E050E069D42C2F30E0620FAD
:1011B000731F6230710540F0660F771F660F771F4F
:1011C000CB0105970197F1F7E0EEF3E0E12CF12C6C
:1011D00080819181892B09F0FFC08DE68E9DE00111
:1011E0008F9DD00D1124C658DC4F00910103109142
:1011F00002030F3F110511F008F00068B80181E00B
:1012000093E020DA90E001969801220F232F221F0D
:10121000330B3195422F4170D42E980176E03695EC
:1012200027957A95E1F7A22FA170CA2E80319105FA
:1012300000F105FD07C00062B80181E093E002DA29
:1012400090E001968115B1E09B0749F4C1100AC0F6
:101250000064B80181E093E0F5D990E00196803612
:10126000910538F0E0919B05F0919C05682F88E688
:10127000C3C02CE228830983D1101A832D2D30E0BE
:10128000FE01E20FF31FCC2019F01282838301C00C
:101290008283A8014270552700FF23C02C0F3D1FF9
:1012A000F901EC0DF11D8090030390900403A090D0
:1012B0000503B090060383829482A582B682452BF3
:1012C000D1F04091030350910403609105037091A4
:1012D000060347835087618772872091A40523877F
:1012E0000AC0452B41F02C0F3D1FF901EC0DF11DFB
:1012F0002091A4052383BC0161507109A8014072AB
:10130000552705FD03C021E030E002C024E030E0B5
:10131000FB01E21BF30BEC0FFD1F22E42083452BA6
:10132000D9F1FC0134978E019C014FEF5FEFBA01B8
:101330002430310501F1D801DD908D014D25A9E062
:10134000A150B1F04A015B01B694A7949794879499
:1013500040FF0BC0B501A401B0E24B27B3E85B2707
:10136000B8EB6B27BDEE7B27EBCFB501A401E8CF2F
:1013700021503109DDCF4095509560957095EC0F67
:10138000FD1F7083C80FD91FFE013397608331960C
:1013900050832197488391C18E01060F171FFE01CC
:1013A00020E0BCE8AF014C1B5D0B4617570788F4E3
:1013B000A19138E0D22EDA26422F50E0559547957C
:1013C000242FD0FE02C02B2F2427A595315091F752
:1013D000E9CFF801208371C12FEFE21AF20AE35935
:1013E000FF4F45E0E416F10409F0F2CEE0919B05D1
:1013F000F0919C0565E086E6199509E713E0CAEDD2
:10140000D3E09AE7E92E93E0F92E2BE7222E23E092
:10141000322ED12C8E819F81892B09F43DC1D101BF
:10142000CC909BD84B015C01F801A0814A2E512C35
:10143000612C712CB0E0A30192013CD39B01AC0163
:10144000ADD29B01AC018A819B81AC81BD81881AA0
:10145000990AAA0ABB0AC301B201A0D248845984DE
:101460006A847B84DC01CB01840D951DA61DB71D0C
:1014700088159905AA05BB0508F00EC1BB24B394D5
:101480008C2D8A708A3009F0B12CC2FE07C0BB20B7
:1014900029F08E819F81069709F483C0C880E114EA
:1014A000F10419F48FEF9FEF7AC080919D05863982
:1014B00091F441E861E881EE92E040DB53DC40E0EA
:1014C0006DE881EE92E03ADB40E062EA81EE92E084
:1014D00035DB47011AC054DC181619060CF45DC040
:1014E0003CD84090FD025090FE026090FF02709048
:1014F0000003DC01CB0184199509A609B709803CDA
:101500009648A140B105A8F648C0882D8E198C15C3
:1015100038F4D4016D914D0181EE92E07DD8F5CF84
:1015200043E861E881EE92E009DB62E181EE92E05E
:1015300032DB83FFFACF48E062E981EE92E0FEDA27
:10154000F7018081811103C086E090E028C0D101BD
:101550008C9182FFF9CF80919D058639A9F30E9475
:10156000AD022B013C010E94AD02DC01CB018419CC
:101570009509A609B709803A9648A140B10508F037
:1015800091CFFEDB882379F381EE92E032DB863067
:101590009105D1F2019609F485CF8AE992E09F8303
:1015A0008E83D8018C918F5F8C938E819F81863042
:1015B000910509F0ABC088859985AA85BB85892BE3
:1015C0008A2B8B2BC9F480919A05882309F49BC040
:1015D000F101C0806C2D0C2C000C770B81E093E0A6
:1015E00031D890E0288139812817390711F4B110DA
:1015F00006C0C3FE04C087C0B11020C041C0D801DE
:101600001C92198218821A821B821C821D821F82E0
:101610001E82BB2009F440C025D220E230E040E029
:1016200050E02CD26230710548F0660F771F660FCC
:10163000771F65507109CB010197F1F7D8018C91A3
:10164000853150F1E0919B05F0919C056D2D85E66B
:10165000199588859985AA85BB85892B8A2B8B2B23
:1016600079F480919A058823B9F0F80110821982E3
:1016700018821A821B821C821D821F821E820CC04D
:10168000D8011C920E94AD026A837B838C839D8368
:10169000EAE4F0E0FF83EE8303591F4FC359DF4FA5
:1016A000FDE6EF0EF11C2DE6220E311CD39445E031
:1016B000D412B0CE0E94F801A0CE2DE62E9DE001FE
:1016C0002F9DD00D1124C350DD4FFE01E352FF4F7B
:1016D0009183808336968AE490E0918380830E9490
:1016E000AD02FE01E152FF4F6083718382839383D9
:1016F000CB51DF4F80E492E4AFE0B0E08883998380
:10170000AA83BB837ACEBB2039F298CF019609F029
:1017100083CF94CF88E392E09093A6058093A505AC
:101720001092A7051092A8051092A9051092AA057B
:10173000109247021092460248EE53E060E070E0DB
:10174000409348025093490260934A0270934B02BF
:1017500028E132E0309345022093440225EC30E04A
:10176000309351022093500224EC30E03093530226
:101770002093520220EC30E0309355022093540223
:1017800021EC30E0309357022093560222EC30E0F7
:10179000309359022093580226EC30E030935B02DC
:1017A00020935A0210925D0210925E0210925F0224
:1017B000109260021092E4021092E30228E232E0FA
:1017C0003093E2022093E10220E52093ED0221E034
:1017D0002093EE024AE050E05093F0024093EF0273
:1017E00049E050E05093F2024093F10242E050E0B1
:1017F0005093F4024093F3021092F6021092F50215
:101800001092F8021092F7021092FA021092F90266
:101810001092FC021092FB021092E5021092E60276
:101820001092E7021092E8029093AC058093AB050A
:101830001092AD051092AE051092AF051092B00552
:101840009093B2058093B1051092B3051092B40540
:101850001092B5051092B6059093B8058093B70520
:101860001092B9051092BA051092BB051092BC05F2
:101870009093C6058093C5051092C7051092C805C0
:101880001092C9051092CA059093BE058093BD05BC
:101890001092BF051092C0051092C1051092C205AA
:1018A0009093CC058093CB051092CD051092CE0578
:1018B0001092CF051092D0059093D2058093D10558
:1018C0001092D3051092D4051092D5051092D6052A
:1018D0009093D8058093D7051092D9051092DA0518
:1018E0001092DB051092DC051092FD021092FE02B0
:1018F0001092FF021092000386E090E090930203A2
:1019000080930103109203031092040310920503C5
:101910001092060310920703109208031092090315
:1019200010920A0310926C0310926B0310926E03D4
:1019300010926D0310926F031092740320939A0516
:1019400010929F0510929E0586E38093A005109249
:10195000A3058DE28093A40587E980939D0581E529
:1019600093E090939C0580939B0582E593E0909390
:10197000A2058093A105E0EEF3E0118210821282AD
:10198000138214821582DF01A756B1091C92E35914
:10199000FF4F86E0E130F80781F70895DB018F9370
:1019A0009F9388D0BF91AF91A29F800D911DA39F5F
:1019B000900DB29F900D11240895EE0FFF1F881F08
:1019C0008BBF0790F691E02D199481E090E0F89498
:1019D000B2C08F929F92AF92BF92CF92DF92EF925E
:1019E000FF92CF93DF93EC01688179818A819B819B
:1019F000611571058105910521F464E279ED8BE5AE
:101A000097E02DE133EF41E050E038D049015A0131
:101A10009B01AC01A7EAB1E44DD06B017C01ACEEB7
:101A2000B4EFA501940152D0DC01CB018C0D9D1DBA
:101A3000AE1DBF1DB7FF03C00197A109B048888341
:101A40009983AA83BB83BC01CD019F77DF91CF919E
:101A5000FF90EF90DF90CF90BF90AF909F908F90CE
:101A60000895B7CF80E192E0B4CF609310027093F5
:101A7000110280931202909313020895052E97FB92
:101A800016F400940FD057FD05D024D007FC02D0E7
:101A900046F408C050954095309521953F4F4F4FE3
:101AA0005F4F089590958095709561957F4F8F4F0A
:101AB0009F4F089531D0A59F900DB49F900DA49F86
:101AC000800D911D11240895B7FFF4CFF3DF821B21
:101AD000930B0895A1E21A2EAA1BBB1BFD010DC09A
:101AE000AA1FBB1FEE1FFF1FA217B307E407F507CE
:101AF00020F0A21BB30BE40BF50B661F771F881FAA
:101B0000991F1A9469F760957095809590959B013F
:101B1000AC01BD01CF010895A29FB001B39FC001E8
:101B2000A39F700D811D1124911DB29F700D811D09
:0A1B30001124911D0895F894FFCFD1
:101B3A000A030A030A030A030A030A030A030A0333
:101B4A000100000000000000910168065B013901F4
:101B5A004D01D701000000000C0323061306F90506
:0A1B6A00CE050B030000000053033A
:020000023000CC
:10E000000D9489F10D94B2F10D94B2F10D94B2F129
:10E010000D94B2F10D94B2F10D94B2F10D94B2F1F0
:10E020000D94B2F10D94B2F10D94B2F10D94B2F1E0
:10E030000D94B2F10D94B2F10D94B2F10D94B2F1D0
:10E040000D94B2F10D94B2F10D94B2F10D94B2F1C0
:10E050000D94B2F10D94B2F10D94B2F10D94B2F1B0
:10E060000D94B2F10D94B2F10D94B2F10D94B2F1A0
:10E070000D94B2F10D94B2F10D94B2F10D94B2F190
:10E080000D94B2F10D94B2F10D94B2F10D94B2F180
:10E090000D94B2F10D94B2F10D94B2F10D94B2F170
:10E0A0000D94B2F10D94B2F10D94B2F10D94B2F160
:10E0B0000D94B2F10D94B2F10D94B2F10D94B2F150
:10E0C0000D94B2F10D94B2F10D94B2F10D94B2F140
:10E0D0000D94B2F10D94B2F10D94B2F10D94B2F130
:10E0E0000D94B2F141546D656761323536300041AF
:10E0F000726475696E6F206578706C6F72657220DE
:10E1000073746B3530305632206279204D4C530099
:10E11000426F6F746C6F616465723E004875683F52
:10E1200000436F6D70696C6564206F6E203D200048
:10E130004350552054797065202020203D20005FF9
:10E140005F4156525F415243485F5F3D2000415658
:10E1500052204C696243205665723D20004743437C
:10E160002056657273696F6E203D20004350552024
:10E1700049442020202020203D20004C6F7720663D
:10E18000757365202020203D20004869676820665F
:10E190007573652020203D200045787420667573D6
:10E1A00065202020203D20004C6F636B2066757336
:10E1B000652020203D20004D617220203720323024
:10E1C000313300312E362E3800342E332E350056A2
:10E1D00023202020414444522020206F7020636F70
:10E1E00064652020202020696E73747275637469E1
:10E1F0006F6E2061646472202020496E74657272B3
:10E20000757074006E6F20766563746F7200726A49
:10E210006D702020006A6D70200057686174207056
:10E220006F72743A00506F7274206E6F7420737541
:10E2300070706F72746564004D7573742062652030
:10E2400061206C6574746572002000577269747483
:10E25000696E672045450052656164696E672045B7
:10E26000450045452065727220636E743D00504F35
:10E27000525400303D5A65726F2061646472003FF1
:10E280003D43505520737461747300403D454550C3
:10E29000524F4D207465737400423D426C696E6B41
:10E2A000204C454400453D44756D70204545505215
:10E2B0004F4D00463D44756D7020464C415348001B
:10E2C000483D48656C70004C3D4C69737420492F83
:10E2D0004F20506F72747300513D51756974005234
:10E2E0003D44756D702052414D00563D73686F7707
:10E2F00020696E7465727275707420566563746FF0
:10E30000727300593D506F727420626C696E6B00BD
:10E310002A0011241FBECFEFD1E2DEBFCDBF01E046
:10E320000CBF12E0A0E0B2E0EEE1FDEF03E00BBFB6
:10E3300002C007900D92A030B107D9F712E0A0E01B
:10E34000B2E001C01D92AE30B107E1F70F9460F367
:10E350000D948DFE01E20EBF0FEF0DBF11241FBE05
:10E360000D9460F30D9400F020E030E040ED57E0B4
:10E3700005C0FA013197F1F72F5F3F4F2817390792
:10E38000C0F308959C01260F311DC901A0E0B0E043
:10E390002F5F3F4FABBFFC018791882361F08093D3
:10E3A000C6008091C00086FFFCCF8091C0008064D1
:10E3B0008093C000EACF08958DE08093C6008091DD
:10E3C000C00086FFFCCF8091C00080648093C000B5
:10E3D0008AE08093C6008091C00086FFFCCF8091C8
:10E3E000C00080648093C00008950F94C2F10F9420
:10E3F000DCF10895FC019081992359F09093C600B7
:10E400008091C00086FFFCCF8091C0008064809323
:10E41000C0003196992379F70895282F982F929567
:10E420009F70892F805D8A3308F0895F8093C600D2
:10E430008091C00086FFFCCF8091C00080648093F3
:10E44000C000822F8F70982F905D9A3308F0995FEB
:10E450009093C6008091C00086FFFCCF8091C000E1
:10E4600080648093C00008959C01FB01853691056E
:10E470001CF46330710594F0C90164E670E00F94F8
:10E480002EFE605D7F4F6093C6008091C00086FFC6
:10E49000FCCF8091C00080648093C0002B30310598
:10E4A00014F43297B4F0C90164E670E00F942EFEC4
:10E4B0006AE070E00F942EFE605D7F4F6093C600AF
:10E4C0008091C00086FFFCCF8091C0008064809363
:10E4D000C000C9016AE070E00F942EFEC0968093E0
:10E4E000C6008091C00086FFFCCF8091C000806490
:10E4F0008093C00008951F93182F8EE692EE60E07F
:10E500000F94C2F11093C6008091C00086FFFCCF2B
:10E510008091C00080648093C0000F94DCF11F9153
:10E5200008952F923F924F925F926F927F928F92B7
:10E530009F92AF92BF92CF92DF92EF92FF920F9392
:10E540001F93DF93CF93CDB7DEB762970FB6F894E2
:10E55000DEBF0FBECDBF382E622ECA01DB015C01CB
:10E560006D01772420E2222E2E010894411C511CBB
:10E570008BC081E0A81680E0B80681E0C80680E084
:10E58000D80628F0C601AA27BB270F940DF2BB2797
:10E59000AD2D9C2D8B2D0F940DF28A2D0F940DF225
:10E5A0002092C6008091C00086FFFCCF8091C00001
:10E5B00080648093C0009DE29093C6008091C0006B
:10E5C00086FFFCCF8091C00080648093C0002092C1
:10E5D000C6008091C00086FFFCCF8091C00080649F
:10E5E0008093C00019828601750188249924A1E0D6
:10E5F0003A1651F03A1620F0B2E03B1661F409C029
:10E600000BBFF701779007C0C7010F9477FE782EF4
:10E6100002C0F7017080872D0F940DF22092C60082
:10E620008091C00086FFFCCF8091C0008064809301
:10E63000C000872D8052F401EF70F0708F3520F408
:10E64000E40DF51D708204C0E40DF51D8EE280839B
:10E650000894E11CF11C011D111D0894811C911CE2
:10E6600090E18916910409F0C2CF80E190E0A0E02A
:10E67000B0E0A80EB91ECA1EDB1E198AC2010F9493
:10E68000FAF10F94DCF16A94662009F072CF629679
:10E690000FB6F894DEBF0FBECDBFCF91DF911F91B3
:10E6A0000F91FF90EF90DF90CF90BF90AF909F9031
:10E6B0008F907F906F905F904F903F902F90089534
:10E6C0002F923F924F925F926F927F928F929F9282
:10E6D000AF92BF92CF92DF92EF92FF920F931F9370
:10E6E000DF93CF93CDB7DEB7CD53D1400FB6F894BB
:10E6F000DEBF0FBECDBF01E20EBF0FEF0DBF94B75F
:10E70000F894A89514BE80916000886180936000A1
:10E7100010926000789493FF05C0E0910002F091A0
:10E7200001021995279A2F9A8091C00082608093E8
:10E73000C00080E18093C40088E18093C1000000A4
:10E74000EE24FF24870144E0A42EB12CCC24DD2448
:10E7500024C0C5010197F1F70894E11CF11C011DCB
:10E76000111D21E2E2162EE4F20620E0020720E06D
:10E77000120718F031E0C32ED12CC801B70127ECE5
:10E780003BE140E050E00F9441FE611571058105C9
:10E79000910519F485B1805885B98091C00087FD35
:10E7A00003C0C114D104A9F2A6014F5F5F4FC25E3E
:10E7B000DE4F59834883CE51D140C25EDE4F8881FF
:10E7C0009981CE51D140019711F00D9410FEC05D9A
:10E7D000DE4F19821882C053D14060E0C15DDE4F28
:10E7E0001882CF52D14088249924C35DDE4F19820C
:10E7F0001882CD52D140C05EDE4F188219821A8233
:10E800001B82C052D140CE5CDE4F188219821A8220
:10E810001B82C253D140EE24FF2487010BBFF701B6
:10E8200007911691C45CDE4F19830883CC53D14005
:10E830000D940BFEC25EDE4F28813981CE51D1404E
:10E840002130310509F52091C600C25EDE4F1982E4
:10E850001882CE51D14022C02F5F3F4F4F4F5F4FA4
:10E86000213082E138078AE7480780E0580780F0C6
:10E87000C45CDE4FE881F981CC53D140EF5FFF4F9C
:10E8800019F0EE27FF27099420E030E040E050E047
:10E890008091C00087FFE0CF2091C600C35DDE4FAE
:10E8A00048815981CD52D1404F5F5F4FC35DDE4FEC
:10E8B00059834883CD52D140213209F063C64A3092
:10E8C000510508F05FC60894811C911C53E0851621
:10E8D000910409F059C600E010E018C081E280936D
:10E8E000C6008091C00086FFFCCF8091C00080648C
:10E8F0008093C0002F5F3F4F2931310579F70F9486
:10E90000DCF10F5F1F4F0530110519F020E030E0FA
:10E91000E5CF10920A0210920B0210920C02109294
:10E920000D02109206021092070210920802109235
:10E930000902109202021092030210920402109235
:10E9400005028FEE90EE60E00F94F5F180E191EE1C
:10E9500060E00F94C2F18091C00087FFFCCF9091DE
:10E96000C600903608F09F759032B8F09093C600BC
:10E970008091C00086FFFCCF8091C00080648093AE
:10E98000C000A0E2A093C6008091C00086FFFCCF2B
:10E990008091C00080648093C000983409F4D7C18E
:10E9A0009934B8F4923409F459C1933458F490333B
:10E9B00019F1903308F4E3C59F33A1F1903409F0C5
:10E9C000DEC5BDC0953409F470C1963409F0D7C5D1
:10E9D00098C1923509F42BC2933538F49C3409F46C
:10E9E000F5C1913509F0CBC518C2963509F445C279
:10E9F000993509F0C4C567C483E792EE62E00F94CD
:10EA0000F5F110920602109207021092080210927D
:10EA1000090210920A0210920B0210920C0210923C
:10EA20000D0213C18FE792EE62E00F94F5F18FEEC5
:10EA300090EE60E00F94F5F181E291EE60E00F94CA
:10EA4000C2F187EB91EE60E00F94F5F180E391EE77
:10EA500060E00F94C2F184EE90EE60E00F94F5F167
:10EA60008FE391EE60E00F94C2F186E090E061E008
:10EA700070E00F9434F20F94DCF18DE591EE60E0DC
:10EA80000F94C2F189EC91EE60E00F94F5F18EE401
:10EA900091EE60E00F94C2F183EC91EE60E00F9490
:10EAA000F5F18CE691EE60E00F94C2F18EE10F94E7
:10EAB0000DF288E90F940DF281E00F940DF20F949E
:10EAC000DCF18BE791EE60E00F94C2F119E0E0E039
:10EAD000F0E010935700E4918E2F0F940DF20F94F5
:10EAE000DCF18AE891EE60E00F94C2F1E3E0F0E03F
:10EAF00010935700E4918E2F0F940DF20F94DCF1D8
:10EB000089E991EE60E00F94C2F1E2E0F0E0109349
:10EB10005700E4918E2F0F940DF20F94DCF188EAE8
:10EB200091EE60E00F94C2F1E1E0F0E01093570045
:10EB30001491812F0F940DF20F94DCF107CF8BE825
:10EB400092EE62E00F94F5F18BE492EE60E00F94A8
:10EB5000F5F10F94DCF100E010E019C0C8016F2D51
:10EB60000F947FFEFF2031F489E492EE60E00F9471
:10EB7000C2F10BC0F092C6008091C00086FFFCCFAE
:10EB80008091C00080648093C0000F5F1F4FC80158
:10EB900081519F41A0E0B0E0ABBFFC01F790BAE229
:10EBA000FB1621F0E2E000301E07C1F60F94DCF105
:10EBB0000F94DCF187E592EE60E00F94F5F10F948D
:10EBC000DCF1CC24DD2400E010E01EC0C8010F946D
:10EBD00077FEF82E882331F489E492EE60E00F94FA
:10EBE000C2F10BC08093C6008091C00086FFFCCFAD
:10EBF0008091C00080648093C000FE1419F00894D6
:10EC0000C11CD11C0F5F1F4FC80181519F41A0E063
:10EC1000B0E0ABBFFC01E790FAE2EF1621F022E092
:10EC20000030120799F60F94DCF10F94DCF182E6C4
:10EC300092EE60E00F94C2F1C60161E070E00F94C3
:10EC400034F20F94DCF10F94DCF110920202109276
:10EC50000302109204021092050278CE89E992EE26
:10EC600062E00F94F5F1279A2F9A16C02F9880E052
:10EC700090E0E0EDF7E03197F1F7019684369105E9
:10EC8000C1F72F9A80E090E0E0EDF7E03197F1F7DF
:10EC9000019684369105C1F78091C00087FFE6CFC9
:10ECA0008091C00087FFFCCF64C485EA92EE62E0E9
:10ECB0000F94F5F140910202509103026091040219
:10ECC0007091050281E020E10F9491F2809102029F
:10ECD00090910302A0910402B091050280509F4FD1
:10ECE000AF4FBF4F8093020290930302A0930402A0
:10ECF000B093050280509041A040B04008F426CE69
:10ED0000A4CF83EB92EE62E00F94F5F140910602FE
:10ED100050910702609108027091090280E020E1A1
:10ED20000F9491F28091060290910702A09108023F
:10ED3000B091090280509F4FAF4FBF4F80930602A2
:10ED400090930702A0930802B0930902FFCD80ECD4
:10ED500092EE62E00F94F5F183E792EE60E00F949B
:10ED6000F5F18FE792EE60E00F94F5F18BE892EE0B
:10ED700060E00F94F5F189E992EE60E00F94F5F10F
:10ED800085EA92EE60E00F94F5F183EB92EE60E09D
:10ED90000F94F5F180EC92EE60E00F94F5F187ECC2
:10EDA00092EE60E00F94F5F188ED92EE60E00F9442
:10EDB000F5F18FED92EE60E00F94F5F18AEE92EEB0
:10EDC00060E00F94F5F183E093EEBDCD87EC92EE19
:10EDD00062E00F94F5F181E40F947BF282E40F94EA
:10EDE0007BF283E40F947BF284E40F947BF285E45E
:10EDF0000F947BF286E40F947BF287E40F947BF20E
:10EE000088E40F947BF28AE40F947BF28BE40F94F6
:10EE10007BF28CE40F947BF299CD88ED92EE62E068
:10EE20000F94F5F1772473948824992409C48FED05
:10EE300092EE62E00F94F5F140910A0250910B02BC
:10EE400060910C0270910D0282E020E10F9491F22A
:10EE500080910A0290910B02A0910C02B0910D02D8
:10EE600080509F4FAF4FBF4F80930A0290930B0289
:10EE7000A0930C02B0930D0269CD8AEE92EE62E08F
:10EE80000F94F5F184EE90EE60E00F94F5F18FECC5
:10EE900091EE60E00F94F5F1662477244301CC5D98
:10EEA000DE4F19821882C452D140D401C301B695F5
:10EEB000A79597958795CA5DDE4F88839983AA8326
:10EEC000BB83C652D140CC5DDE4FA881B981C4520C
:10EED000D1401196CC5DDE4FB983A883C452D14096
:10EEE000CD0162E070E00F9434F2B0E2B093C6005E
:10EEF0008091C00086FFFCCF8091C0008064809329
:10EF0000C000EDE2E093C6008091C00086FFFCCF18
:10EF10008091C00080648093C000F0E2F093C6004E
:10EF20008091C00086FFFCCF8091C00080648093F8
:10EF3000C000CA5DDE4FE880F9800A811B81C6529D
:10EF4000D140BB27A12F902F8F2D0F940DF2CA5DBA
:10EF5000DE4F8881C652D1400F940DF2B0E2FB2EF5
:10EF6000F092C6008091C00086FFFCCF8091C00067
:10EF700080648093C0000DE30093C6008091C000C0
:10EF800086FFFCCF8091C00080648093C00010E2B7
:10EF90001093C6008091C00086FFFCCF8091C00016
:10EFA00080648093C0008BBEF3012791C65DDE4F65
:10EFB0002883CA52D140A22EBB24CC24DD2408943D
:10EFC000611C711C811C911C8BBEF3018791282E42
:10EFD0003324442455240894611C711C811C911C09
:10EFE0008BBEF3013791C55DDE4F3883CB52D140E4
:10EFF0000894611C711C811C911C8BBEF30147910C
:10F00000C45DDE4F4883CC52D140ADEFEA2EAFEF66
:10F01000FA2EAFEF0A2FAFEF1A2F6E0C7F1C801E57
:10F02000911E142D032DF22CEE24EA0CFB1C0C1D5A
:10F030001D1D0F940DF220E22093C6008091C000A8
:10F0400086FFFCCF8091C00080648093C000C65DC5
:10F05000DE4F8881CA52D1400F940DF230E23093D6
:10F06000C6008091C00086FFFCCF8091C000806404
:10F070008093C000C45DDE4F8881CC52D1400F9494
:10F080000DF240E24093C6008091C00086FFFCCFA5
:10F090008091C00080648093C000C55DDE4F888190
:10F0A000CB52D1400F940DF250E25093C6008091A4
:10F0B000C00086FFFCCF8091C00080648093C000B8
:10F0C0008FEFE8168FEFF80680E0080780E018075A
:10F0D00031F484E092EE60E00F94C2F1DFC0D80119
:10F0E000C7018070907CA070B0708050904CA040A0
:10F0F000B040D1F52FEF3FE340E050E0E222F322B1
:10F1000004231523CA5DDE4FA880B980CA80DB8046
:10F11000C652D140AE0CBF1CC01ED11EAA0CBB1CD7
:10F12000CC1CDD1C8EE092EE60E00F94C2F1BB2798
:10F13000A12F902F8F2D0F940DF28E2D0F940DF285
:10F1400030E23093C6008091C00086FFFCCF8091F2
:10F15000C00080648093C0004EE34093C60080915D
:10F16000C00086FFFCCF87C08EE09EEFA0E0B0E03D
:10F17000E822F9220A231B239CE0E91694E9F90608
:10F1800090E0090790E0190709F088C0C45DDE4FE0
:10F19000A881CC52D140EA2EFF2400E010E0102FCD
:10F1A0000F2DFE2CEE24C55DDE4FB881CB52D14031
:10F1B000EB0EF11C011D111DD601C501817090706F
:10F1C000A070B070DC0199278827E80EF91E0A1F8D
:10F1D0001B1F20EF30E040E050E0A222B322C42207
:10F1E000D52241E1AA0CBB1CCC1CDD1C4A95D1F7F1
:10F1F000EA0CFB1C0C1D1D1D81E090E0A0E0B0E0BE
:10F20000282239224A225B2235E1220C331C441C7D
:10F21000551C3A95D1F7E20CF31C041D151D57013E
:10F220006801AA0CBB1CCC1CDD1C85E192EE60E0E1
:10F230000F94C2F1C801AA27BB270F940DF2BB2778
:10F24000A12F902F8F2D0F940DF28E2D0F940DF274
:10F2500090E29093C6008091C00086FFFCCF809121
:10F26000C00080648093C000AEE3A093C60080918C
:10F27000C00086FFFCCF8091C00080648093C000F6
:10F28000C601AA27BB270F940DF2BB27AD2D9C2DDD
:10F290008B2D0F940DF28A2D0F940DF20F94DCF14B
:10F2A000CC5DDE4FE881F981C452D140F99709F471
:10F2B0004DCBF4E0EF2EF12C012D112D6E0C7F1CA7
:10F2C000801E911EF2CD83E093EE62E00F94F5F183
:10F2D0008AE192EE60E00F94C2F18091C00087FF56
:10F2E000FCCF1091C6001F751093C6008091C0001E
:10F2F00086FFFCCF8091C00080648093C0000F9493
:10F30000DCF1812F81548A3108F036C1163409F4BA
:10F3100095C0173490F4133409F44EC0143430F40B
:10F320001134F1F0123409F01DC130C0143409F465
:10F3300059C0153409F016C16BC01A3409F4C4C0A1
:10F340001B3438F4173409F48FC0183409F00AC19B
:10F35000A1C01B3409F4D2C01C3409F003C1E8C0B9
:10F360008FEF81B90DC082B1809582B980E090E0C5
:10F37000E0EDF7E03197F1F70196883C9105C1F790
:10F380008091C00087FFEFCF12B8EFC08FEF84B934
:10F390000DC085B1809585B980E090E0E0EDF7E0A3
:10F3A0003197F1F70196883C9105C1F78091C00033
:10F3B00087FFEFCF15B8D9C08FEF87B90DC088B1DF
:10F3C000809588B980E090E0E0EDF7E03197F1F7C3
:10F3D0000196883C9105C1F78091C00087FFEFCF6F
:10F3E00018B8C3C08FEF8AB90DC08BB180958BB9A7
:10F3F00080E090E0E0EDF7E03197F1F70196883C8E
:10F400009105C1F78091C00087FFEFCF1BB8ADC059
:10F410008FEF8DB90DC08EB180958EB980E090E0F0
:10F42000E0EDF7E03197F1F70196883C9105C1F7DF
:10F430008091C00087FFEFCF1EB897C08FEF80BBD1
:10F440000DC081B3809581BB80E090E0E0EDF7E0F6
:10F450003197F1F70196883C9105C1F78091C00082
:10F4600087FFEFCF11BA81C08FEF83BB0DC084B38C
:10F47000809584BB80E090E0E0EDF7E03197F1F714
:10F480000196883C9105C1F78091C00087FFEFCFBE
:10F4900014BA6BC08FEF809301010FC080910201FD
:10F4A00080958093020180E090E0E0EDF7E03197F5
:10F4B000F1F70196883C9105C1F78091C00087FF64
:10F4C000EDCF1092020151C08FEF809304010FC065
:10F4D0008091050180958093050180E090E0E0ED4A
:10F4E000F7E03197F1F70196883C9105C1F78091DB
:10F4F000C00087FFEDCF1092050137C08FEF8093DA
:10F5000007010FC08091080180958093080180E079
:10F5100090E0E0EDF7E03197F1F70196883C910536
:10F52000C1F78091C00087FFEDCF109208011DC088
:10F530008FEF80930A010FC080910B01809580931B
:10F540000B0180E090E0E0EDF7E03197F1F70196F4
:10F55000883C9105C1F78091C00087FFEDCF1092E4
:10F560000B0103C085E292EEEEC98091C00087FFD7
:10F57000FCCF8091C600EAC988E392EEE4C98CE131
:10F5800091EEE1C988249924933011F1943028F444
:10F59000913089F09230B8F408C0953061F195301F
:10F5A000F0F0963009F048C043C02B3109F042C951
:10F5B00091E06BE13FC96227C15DDE4F2883CF52E6
:10F5C000D14092E037C9B22FA0E0622793E032C960
:10F5D000822F90E0A82BB92B622794E02BC92E3004
:10F5E00009F039C3622795E0C05DDE4F19821882A9
:10F5F000C053D1401FC9E1E0F0E0EC0FFD1FC05D3A
:10F60000DE4F08811981C053D140E00FF11F2083E4
:10F610000F5F1F4FC05DDE4F19830883C053D14079
:10F6200062270A171B0709F005C9D80196E002C92D
:10F63000261709F010C303C0973009F0FBC87724E0
:10F640009981933109F412C19431C8F4963009F4C8
:10F65000D8C0973050F4923009F406C1933009F4C1
:10F660006DC0913009F059C253C0913109F477C08F
:10F67000923108F0BBC0903109F04FC2F5C098310B
:10F6800009F487C0993150F4953109F4EFC09531F0
:10F6900008F4C6C1963109F040C2C2C19A3109F4DA
:10F6A0006CC09A3108F491C09B3109F45BC09D3164
:10F6B00009F033C29D81903359F48F81882311F46E
:10F6C0009EE11CC0813011F091E018C098E916C08D
:10F6D000892F807591F0903539F4E0E0F0E089E011
:10F6E0008093570094910AC0983539F4E3E0F0E034
:10F6F00089E080935700949101C090E01A821B82A8
:10F700008D818C831D829E831F8227E030E009C299
:10F710001A8288E08B8381E48C8386E58D8382E581
:10F720008E8389E48F8383E5888780E589878FE5E9
:10F730008A8782E38B872BE030E0F3C18A818139AD
:10F7400041F0823941F0803911F48FE005C080E04A
:10F7500003C082E001C08AE01A828B8344C0772410
:10F76000739482C08D81882311F48EE12CC0813086
:10F7700011F081E028C088E926C01A82E1E0F0E0BB
:10F7800089E08093570084918B831C8224E030E0D1
:10F79000C8C18B81803589F48C81883039F4E2E0EE
:10F7A000F0E089E08093570084910DC0E0E0F0E044
:10F7B00089E080935700849106C0E3E0F0E089E09F
:10F7C0008093570084911A82DFCF8D81836C99E0FA
:10F7D000E1E0F0E0082E90935700E89507B600FCB2
:10F7E000FDCF1A821B8223E030E09BC180EC8A832C
:10F7F000CE5CDE4F188219821A821B82C253D1401E
:10F800008EC18A8190E0A0E0B0E0582F44273327D2
:10F8100022278B8190E0A0E0B0E0DC0199278827C7
:10F82000282B392B4A2B5B2B8D8190E0A0E0B0E098
:10F83000282B392B4A2B5B2B8C8190E0A0E0B0E089
:10F84000BA2FA92F982F8827282B392B4A2B5B2BCF
:10F85000220F331F441F551FC05EDE4F288339839C
:10F860004A835B83C052D1401A8259C13A81C95C34
:10F87000DE4F3883C753D140CA5CDE4F1882C6536F
:10F88000D1408B81C82EDD24CA5CDE4F488159816E
:10F89000C653D140C42AD52A933109F082C0CE5C28
:10F8A000DE4F88819981AA81BB81C253D1408050AB
:10F8B000904CA340B04030F583E0CE5CDE4FE88052
:10F8C000F9800A811B81C253D140F70100935B008C
:10F8D00080935700E89507B600FCFDCFCE5CDE4F65
:10F8E000088119812A813B81C253D14000501F4FAA
:10F8F0002F4F3F4FCE5CDE4F088319832A833B8313
:10F90000C253D140C05EDE4F488159816A817B81FC
:10F91000C052D140DE011B9631E08C9111962C91A2
:10F9200011971296C75CDE4F2883C953D140C85C3B
:10F93000DE4F1882C853D14090E0C85CDE4FE881AA
:10F94000F981C853D1408E2B9F2B0C01FA01609393
:10F950005B0030935700E89511244E5F5F4F6F4F67
:10F960007F4F0EEFE02E0FEFF02ECE0CDF1CC114F8
:10F97000D10499F685E0C05EDE4F088119812A81A5
:10F980003B81C052D140F80120935B008093570027
:10F99000E89507B600FCFDCF81E180935700E8951C
:10F9A00035C0C05EDE4F88819981AA81BB81C0527B
:10F9B000D140B695A795979587957C018601ABE0D8
:10F9C000AA2EB12CAC0EBD1E0BC0D5016D915D01F0
:10F9D000C7010F947FFE0894E11CF11C01501040F8
:10F9E0000115110591F7A60160E070E0440F551F65
:10F9F000661F771FC05EDE4FE880F9800A811B8199
:10FA0000C052D1404E0D5F1D601F711F1A82C05E33
:10FA1000DE4F488359836A837B83C052D1407FC0C5
:10FA2000FA80C55CDE4FF882CB53D140C65CDE4F16
:10FA30001882CA53D1408B81C82EDD24C65CDE4FAC
:10FA400008811981CA53D140C02AD12A1A828981DA
:10FA5000BE016D5F7F4F843121F59601C05EDE4FA0
:10FA6000E880F9800A811B81C052D1400BBFF701A9
:10FA700087919691DB018C9311969C936E5F7F4FDB
:10FA8000D801C7010296A11DB11DC05EDE4F88835B
:10FA90009983AA83BB83C052D14022503040F1F6F3
:10FAA00036C0C05EDE4F288139814A815B81C052F9
:10FAB000D1400894C108D108760100E010E0089414
:10FAC000C11CD11C0894E11CF11C011D111DE20E8A
:10FAD000F31E041F151F21BDBB27A52F942F832FB5
:10FAE00082BD2F5F3F4F4F4F5F4FF89A80B5DB01CC
:10FAF0008D93BD012E153F054007510761F7C05E8C
:10FB0000DE4F288339834A835B83C052D1409601FC
:10FB10002D5F3F4FFB01108204C080EC8A8322E0FE
:10FB200030E08BE18093C6008091C00086FFFCCF5F
:10FB30008091C00080648093C000C15DDE4FF88179
:10FB4000CF52D140F093C6008091C00086FFFCCF19
:10FB50008091C00080648093C000432F3093C60022
:10FB60008091C00086FFFCCF8091C00080648093AC
:10FB7000C000922F2093C6008091C00086FFFCCF6A
:10FB80008091C00080648093C0008EE08093C600A6
:10FB90008091C00086FFFCCF8091C000806480937C
:10FBA000C00065E1C15DDE4FE880CF52D1406E25D7
:10FBB00069276427FE01319610C090819093C6009A
:10FBC0008091C00086FFFCCF31968091C000806498
:10FBD0008093C0006927215030402115310569F715
:10FBE0006093C6008091C00086FFFCCF8091C0006A
:10FBF00080648093C00085B1805885B9772081F4F6
:10FC0000C15DDE4F0881CF52D1400F5FC15DDE4F35
:10FC10000883CF52D14090E0A0E0B0E00D941AF4F8
:10FC200027982F9880E090E020ED37E0F901319798
:10FC3000F1F7019684369105C9F700008091C00064
:10FC40008D7F8093C00081E180935700E895EE2777
:10FC5000FF270994FFCF90E00D941AF497FB092E2B
:10FC600007260AD077FD04D02ED006D000201AF443
:10FC7000709561957F4F0895F6F7909581959F4F08
:10FC80000895A1E21A2EAA1BBB1BFD010DC0AA1FDD
:10FC9000BB1FEE1FFF1FA217B307E407F50720F0F5
:10FCA000A21BB30BE40BF50B661F771F881F991F70
:10FCB0001A9469F760957095809590959B01AC01B9
:10FCC000BD01CF010895AA1BBB1B51E107C0AA1FAC
:10FCD000BB1FA617B70710F0A61BB70B881F991FED
:10FCE0005A95A9F780959095BC01CD010895F99991
:10FCF000FECF92BD81BDF89A992780B50895262F31
:10FD0000F999FECF1FBA92BD81BD20BD0FB6F89400
:0EFD1000FA9AF99A0FBE01960895F894FFCF63
:040000033000E000E9
:00000001FF