:1000000007C1000051C5000024C50000F7C400006E
:10001000CAC400009DC4000070C4000043C40000B6
:1000200016C4000025C1000023C1000021C100004A
:100030001FC100001DC100001BC1000019C100004C
:1000400017C1000015C1000013C1000011C100005C
:100050000FC100000DC100000BC10000AEC30000C5
:1000600007C1000074C3000049C3000001C10000C3
:10007000FFC00000FDC00000FBC00000F9C0000090
:10008000F7C00000F5C00000F3C00000F1C00000A0
:10009000EFC00000EDC00000EBC00000E9C00000B0
:1000A000E7C00000E5C00000E3C00000E1C00000C0
:1000B000DFC00000DDC00000DBC00000D9C00000D0
:1000C000D7C00000D5C00000D3C00000D1C00000E0
:1000D000CFC00000CDC00000CBC00000C9C00000F0
:1000E000C7C000005F026202510255025902990224
:1000F00066026A027002740278027E02820286023E
:1001000099028C029002940200000A0B02090C0D65
:100110000E080703040100000000000000000000BA
:1001200000000000000000000000000000000000CF
:10013000000000001211100000000000000000008C
:1001400000000000000000000000000000000000AF
:100150002200250028002B002E003100340002016F
:100160000000050108010B01000021002400270008
:100170002A002D00300033000101000004010701B6
:100180000A0105050505070508080808020202021C
:100190000A0A080804040404010101010101010123
:1001A0000303030303030303040707070C0C0C0CEE
:1001B0000C0C0C0C020202020606060606060606D7
:1001C0000B0B0B0B0B0B0B0B010210202008081064
:1001D00020401020408002010201080402010102B7
:1001E0000408102040808040201008040201800490
:1001F00002018040201008040201080402010102EB
:100200000408102040800102040810204080160BD2
:1002100011241FBECFEFD1E2DEBFCDBF00E00CBF87
:1002200012E0A0E0B2E0E4E3FAE100E00BBF02C0BC
:1002300007900D92AA33B107D9F725E0AAE3B2E0FF
:1002400001C01D92AD3DB207E1F711E0C8E0D1E079
:1002500000E006C021970109802FFE010E945A0C80
:10026000C730D10780E00807A9F7C6D50C94180D50
:10027000C7CEFC01918D828D981761F0828DDF01D0
:10028000A80FB11D5D968C91928D9F5F9F73928F89
:1002900090E008958FEF9FEF0895FC01918D828D7E
:1002A000981731F0828DE80FF11D858D90E008954B
:1002B0008FEF9FEF0895FC01918D228D892F90E0A3
:1002C000805C9F4F821B91098F739927089584E466
:1002D00092E0F1DF21E0892B09F420E0822F0895DC
:1002E000FC01848DDF01A80FB11DA35ABF4F2C91D3
:1002F000848D90E001968F739927848FA689B789A2
:100300002C93A089B1898C9180648C93938D848D7A
:10031000981306C00288F389E02D80818F7D808349
:100320000895EF92FF920F931F93CF93DF93EC0109
:1003300081E0888F9B8D8C8D981305C0E889F989A1
:10034000808185FD23C0F62E0B8D10E00F5F1F4FBF
:100350000F731127E02E8C8DE8120BC00FB607FC2F
:10036000FACFE889F989808185FFF5CFCE01B8DF22
:10037000F2CF8B8DFE01E80FF11DE35AFF4FF082A3
:100380000B8FEA89FB898081806207C0EE89FF8933
:100390006083E889F98980818064808381E090E0CE
:1003A000DF91CF911F910F91FF90EF900895CF9320
:1003B000DF93EC01888D8823C1F0EA89FB89808175
:1003C00085FD05C0A889B9898C9186FD0EC00FB640
:1003D00007FCF5CF808185FFF2CFA889B9898C9180
:1003E00085FFEDCFCE017CDFE8CFDF91CF9108957F
:1003F00080E090E0892B19F06ADF811125C080E050
:1004000090E0892B41F080E090E0892B21F00E9460
:10041000000081111CC080E090E0892B41F080E059
:1004200090E0892B21F00E940000811113C080E030
:1004300090E0892BA1F080E090E0892B81F00E9470
:10044000000081110AC008950E940000D8CF0E94C8
:100450000000E1CF0E940000EACF0C940000089554
:10046000362F90E0FC01E85FFE4F4491FC01E85319
:10047000FE4F2491FC01EE57FE4F9491992309F40D
:100480006BC0442309F455C050E0FA013197E231C2
:10049000F10508F04EC08827EE58FF4F8F4F0C949F
:1004A0005A0C809180008F7707C0809180008F7DEB
:1004B00003C080918000877F809380003AC084B51C
:1004C0008F7702C084B58F7D84BD33C08091B0002A
:1004D0008F7703C08091B0008F7D8093B00029C0DA
:1004E000809190008F7707C0809190008F7D03C02E
:1004F00080919000877F809390001BC08091A00026
:100500008F7707C08091A0008F7D03C08091A000ED
:10051000877F8093A0000DC0809120018F7707C056
:10052000809120018F7D03C080912001877F80937F
:100530002001E92FF0E0EE0FFF1FE25BFE4FA591D7
:10054000B4918FB7F894EC91311103C020952E230C
:1005500001C02E2B2C938FBF08953FB7F894809144
:100560003F0290914002A0914102B091420226B513
:10057000A89B05C02F3F19F00196A11DB11D3FBFDB
:10058000BA2FA92F982F8827820F911DA11DB11D69
:10059000BC01CD0142E0660F771F881F991F4A9565
:1005A000D1F708958F929F92AF92BF92CF92DF9230
:1005B000EF92FF926B017C01D0DF4B015C01C11413
:1005C000D104E104F104E9F0C8DFDC01CB018819B2
:1005D0009909AA09BB09883E9340A105B10578F3A2
:1005E00021E0C21AD108E108F10888EE880E83E004
:1005F000981EA11CB11CC114D104E104F10421F71F
:10060000DECFFF90EF90DF90CF90BF90AF909F90A4
:100610008F90089508950895CF93DF931F92CDB7DB
:10062000DEB76983DC01ED91FC910280F381E02D5E
:1006300041E050E0BE016F5F7F4F19950F90DF9151
:10064000CF910895FC018081823459F461E08DE0FE
:1006500007DF6EE170E080E090E0A4DF60E08DE015
:10066000FFCE0895089508958F929F92AF92BF9202
:10067000CF92DF92EF92FF920F931F93CF93DF936E
:100680007C01EB016C0182E0C80ED11C4701E5E062
:100690008E0E911C00E010E0F60141916F0150E0D8
:1006A00060E070E02AE0CE014CD35C01E881F98182
:1006B0000190F081E02D6EE2CE0119958A0D9B1D0F
:1006C000080F191FC814D90439F7F701458150E004
:1006D00060E070E02AE0CE0134D3800F911FDF91FB
:1006E000CF911F910F91FF90EF90DF90CF90BF902F
:1006F000AF909F908F9008950E94620C1F920F926E
:100700000FB60F9211240BB60F922F933F934F9376
:100710005F936F937F938F939F93AF93BF93EF9369
:10072000FF9384E492E0DCDDFF91EF91BF91AF9104
:100730009F918F917F916F915F914F913F912F91F9
:100740000F900BBE0F900FBE0F901F9018951F9229
:100750000F920FB60F9211240BB60F922F938F9317
:100760009F93EF93FF93E0915402F09155028081A3
:10077000E0915A02F0915B0282FD12C0908180915B
:100780005D028F5F8F7320915E02821751F0E091BE
:100790005D02F0E0EC5BFD4F958F80935D0201C040
:1007A0008081FF91EF919F918F912F910F900BBEC0
:1007B0000F900FBE0F901F9018951F920F920FB6BB
:1007C0000F9211242F933F938F939F93AF93BF93D7
:1007D00080913B0290913C02A0913D02B0913E027B
:1007E00030913A0223E0230F2D3720F40196A11D0A
:1007F000B11D05C026E8230F0296A11DB11D20934F
:100800003A0280933B0290933C02A0933D02B09346
:100810003E0280913F0290914002A0914102B0912E
:1008200042020196A11DB11D80933F0290934002A8
:10083000A0934102B0934202BF91AF919F918F91DB
:100840003F912F910F900FBE0F901F9018951F9200
:100850000F920FB60F9211240BB60F922F933F9366
:100860004F935F936F937F938F939F93AF93BF93B8
:10087000EF93FF93E0910E02F0910F021995FF9113
:10088000EF91BF91AF919F918F917F916F915F9108
:100890004F913F912F910F900BBE0F900FBE0F9075
:1008A0001F9018951F920F920FB60F9211240BB63E
:1008B0000F922F933F934F935F936F937F938F93F9
:1008C0009F93AF93BF93EF93FF93E0910C02F0914E
:1008D0000D021995FF91EF91BF91AF919F918F916B
:1008E0007F916F915F914F913F912F910F900BBE30
:1008F0000F900FBE0F901F9018951F920F920FB67A
:100900000F9211240BB60F922F933F934F935F9347
:100910006F937F938F939F93AF93BF93EF93FF93C7
:10092000E0910202F09103021995FF91EF91BF91BE
:10093000AF919F918F917F916F915F914F913F9177
:100940002F910F900BBE0F900FBE0F901F90189518
:100950001F920F920FB60F9211240BB60F922F9386
:100960003F934F935F936F937F938F939F93AF9337
:10097000BF93EF93FF93E0910002F091010219956C
:10098000FF91EF91BF91AF919F918F917F916F9167
:100990005F914F913F912F910F900BBE0F900FBE23
:1009A0000F901F9018951F920F920FB60F9211245F
:1009B0000BB60F922F933F934F935F936F937F9359
:1009C0008F939F93AF93BF93EF93FF93E0910A02AE
:1009D000F0910B021995FF91EF91BF91AF919F910B
:1009E0008F917F916F915F914F913F912F910F90D8
:1009F0000BBE0F900FBE0F901F9018951F920F9275
:100A00000FB60F9211240BB60F922F933F934F9373
:100A10005F936F937F938F939F93AF93BF93EF9366
:100A2000FF93E0910802F09109021995FF91EF916F
:100A3000BF91AF919F918F917F916F915F914F91F6
:100A40003F912F910F900BBE0F900FBE0F901F90F4
:100A500018951F920F920FB60F9211240BB60F929A
:100A60002F933F934F935F936F937F938F939F93B6
:100A7000AF93BF93EF93FF93E0910602F0910702CB
:100A80001995FF91EF91BF91AF919F918F917F91B8
:100A90006F915F914F913F912F910F900BBE0F90EF
:100AA0000FBE0F901F9018951F920F920FB60F92C6
:100AB00011240BB60F922F933F934F935F936F9335
:100AC0007F938F939F93AF93BF93EF93FF93E091A7
:100AD0000402F09105021995FF91EF91BF91AF913A
:100AE0009F918F917F916F915F914F913F912F9146
:100AF0000F900BBE0F900FBE0F901F901895EF92A6
:100B0000FF921F93CF93DF931F92CDB7DEB77C0187
:100B1000162F60E0FC0186854983A2DCF7019485ED
:100B200085859CBD8DBD1EBD000049810DB407FEAD
:100B3000FDCF8EB54EBD00000DB407FEFDCF1EB536
:100B400061E0F70186858CDC812F0F90DF91CF91DA
:100B50001F91FF90EF9008956F7740E0D0CFEF9214
:100B6000FF921F93CF93DF931F92CDB7DEB77C0127
:100B7000DC01ED91FC910480F581E02D1995892B24
:100B800081F06DE0C701E8DF482F60E0C7014983CD
:100B9000E3DF182F49816DE8C701B1DF812F90E0B5
:100BA00002C08FEF9FEF0F90DF91CF911F91FF90C9
:100BB000EF900895CF93DF93EC01E881F9810480F1
:100BC000F581E02D1995892B51F08E899F89019629
:100BD0009F8B8E8B60E0CE01BFDF90E002C08FEF75
:100BE0009FEFDF91CF910895CF93DF93EC0163E105
:100BF000B3DF282F30E08E899F89A901481B590B4C
:100C0000CA01DF91CF9108958F929F92AF92BF92C8
:100C1000CF92DF92FF920F931F93CF93DF931F9298
:100C2000CDB7DEB76C01B62E4A0162E2798394DF5C
:100C3000F82E90E09C01280D391D79812F3F310558
:100C400031F028F02FEF30E04901881A990A0B2D76
:100C5000172F5801A80CB91C0A151B0539F0F8010B
:100C600041918F0160E8C6014ADFF6CF482D4F0D54
:100C700062EAC60144DFC4010F90DF91CF911F915A
:100C80000F91FF90DF90CF90BF90AF909F908F908B
:100C90000895CF92DF92EF92FF920F931F93CF931D
:100CA000DF936C017A018B01C0E0D0E0CE15DF0547
:100CB00089F0D8016D918D01D601ED91FC910190E3
:100CC000F081E02DC6011995892B11F47E0102C037
:100CD0002196ECCFC701DF91CF911F910F91FF902B
:100CE000EF90DF90CF90089590E0FC01E853FE4F25
:100CF0002491FC01EE57FE4F8491882399F090E0F7
:100D0000880F991FFC01E859FE4FA591B491FC0191
:100D1000E25BFE4F859194918FB7F894EC91E22BB2
:100D2000EC938FBF08951092FA021092F9026DE1D0
:100D300081EE92E011DF482F4E7F6DE981EE92E067
:100D4000DECE4F925F926F927F92EF92FF920F935F
:100D50001F93CF93DF93CDB7DEB7A1970FB6F8946B
:100D6000DEBF0FBECDBF7C01FA01CB0119A222303C
:100D700008F42AE08E010F5D1F4F422E512C612C8A
:100D8000712CBF01A301920122D6F901CA010150C1
:100D900011096A3014F4605D01C0695CD8016C937C
:100DA000232B242B252B69F70115110591F0F80150
:100DB00001900020E9F73197AF01401B510BD7019B
:100DC000ED91FC910280F381E02DB801C7011995E6
:100DD00002C080E090E0A1960FB6F894DEBF0FBE8F
:100DE000CDBFDF91CF911F910F91FF90EF907F903A
:100DF0006F905F904F900895CF93DF93CDB7DEB79C
:100E000027970FB6F894DEBF0FBECDBF789484B598
:100E1000826084BD84B5816084BD85B5826085BDF6
:100E200085B5816085BD80916E00816080936E0084
:100E30001092810080918100826080938100809176
:100E40008100816080938100809180008160809327
:100E500080008091B10084608093B1008091B000E7
:100E600081608093B00080919100826080939100B6
:100E700080919100816080939100809190008160C9
:100E8000809390008091A10082608093A100809166
:100E9000A10081608093A1008091A0008160809377
:100EA000A000809121018260809321018091210125
:100EB00081608093210180912001816080932001D5
:100EC00080917A00846080937A0080917A008260B9
:100ED00080937A0080917A00816080937A0080917B
:100EE0007A00806880937A001092C1008DE0FCDE69
:100EF00060E08DE0B5DAE0915402F091550282E0B5
:100F00008083E0915002F09151021082E0915202F0
:100F1000F09153028FEC808310925C02E0915802B2
:100F2000F091590286E08083E0915602F0915702D9
:100F3000808180618083E0915602F0915702808128
:100F400088608083E0915602F0915702808180682A
:100F50008083E0915602F091570280818F7D8083DB
:100F60008091EF02C1DE8091F102BEDE60E08091EF
:100F7000F10276DA6AE070E080E090E013DB61E095
:100F80008091F1026DDA6AE070E080E090E00ADBC7
:100F900061E08091EF0264DA1FB7F8948091430218
:100FA000811120C0E7EBF1E08491EDEFF1E0949145
:100FB000E82FF0E0EE0FFF1FE859FE4FA591B49126
:100FC000EC91E92319F461E085E34ADA85E38CDEEC
:100FD0008CB580618CBD8CB580648CBD84E384DE6F
:100FE00083E382DE809143028F5F809343021FBFC1
:100FF00062E481EE92E0B0DD823109F03DC040E86C
:1010000061E881EE92E07BDD80EA97E29093F60260
:101010008093F50249ED66E881EE92E070DD46E0EE
:1010200067E881EE92E06BDD46E668E881EE92E0EB
:1010300066DD40E06EE881EE92E061DD40E06FE861
:1010400081EE92E05CDD6CE081EE92E085DD482F80
:1010500043606CE881EE92E052DD44E066EA81EEA6
:1010600092E04DDD4FE869E881EE92E048DD41E82D
:1010700061E881EE92E043DD6DE181EE92E06CDDAE
:101080008F70482F40686DE981EE92E038DD8091E5
:10109000A005863308F0865390917B00282F287096
:1010A000977F922B90937B008770806480937C0065
:1010B00080917A00806480937A0080917A0086FD26
:1010C000FCCF609178008091790070E0782B80915E
:1010D000A405680F711D072E000C880B990B611574
:1010E00071058105910509F03DD41091A40537D40F
:1010F00028EE33E040E050E03ED4212F30E0620F94
:10110000731F6230710540F0660F771F660F771FFF
:10111000CB0105970197F1F782E293E09093A20546
:101120008093A1051ADA2B013C0117DADC01CB010F
:1011300084199509A609B709893E9340A105B1050F
:1011400008F071C28BE0282E83E0382E6101A12CBB
:10115000198260E670E07F836E83E12CF12C00E061
:1011600010E00115110509F058C062E181EE92E02E
:10117000F3DC182FD8DD412F62E981EE92E0BFDC6D
:1011800016FF27C015FD25C01092F8021092F70235
:101190008091F9029091FA02892B11F062E201C06C
:1011A00063E181EE92E0D8DC082F10E060E181EE8F
:1011B00092E0D2DC482F6DE881EE92E0A0DC41E8BD
:1011C00061E881EE92E09BDC01151105F9F0460122
:1011D00011C061E081EE92E0BFDC8638B9F040E0FA
:1011E0006DE881EE92E08BDC46E861E881EE92E00A
:1011F00086DC0CC081EE92E0F7DC892B49F081EEB1
:1012000092E0D8DCF40181934F01F4CF0FEF1FEF90
:101210000F3FFFEF1F0709F488CF01501109E114B8
:10122000F10469F480910B039091A4058917A1F151
:10123000882391F18091A30581112EC076CF21E002
:10124000E216F10449F580910C03209101033091DD
:101250000203282720FF05C09091A305992309F4D4
:1012600064CF90910B03911104C0982F9C7009F0EA
:101270005CCF83FF02C081FF58CF982F907486FF08
:1012800002C085FF52CF71E07983911101C01982AC
:10129000A82EAA1CAA24AA1C2A2D30E0C901029655
:1012A000E816F90681F4898081100DC0F6014081AD
:1012B000842E912C9F828E82A401455051094C3579
:1012C000510508F032CFA9014D5F5F4FE416F506D6
:1012D000B1F49980992099F0F6013197408150E05E
:1012E000742F6627F60140814B01842A9F828E82EB
:1012F000A401455051094C35510508F016CF4091D5
:10130000010350910203BA016170772740FF24C0A6
:1013100040910C0340FF20C04091A30541111CC027
:101320009980492D50E0840F951F8E159F05A0F4DC
:10133000C9010796840F951FE816F90668F4C701DE
:10134000821B930B841B950BFC01E350FD4F938193
:10135000F60180819813E9CEFFEFEF1AFF0A4FEFF5
:10136000C41AD40A8E809F80E814F90408F4F9CED8
:10137000A0910C03A5FF4EC0C401895F9C4FA4013E
:10138000CC24CA94DC2C76014430510501F1F101E2
:10139000B1911F01CB26E9E0E150B1F046015701C0
:1013A000B694A79497948794C0FE0BC0750164010E
:1013B000F0E2CF26F3E8DF26F8EBEF26FDEEFF267E
:1013C000EBCF75016401E8CF41505109DDCFC094E6
:1013D000D094E094F0948C0140E050E0F801B19199
:1013E0008F01CA0148964601570104C0B694A794DC
:1013F000979487948A95D2F78A829B82AC82BD8229
:10140000B81129C048505109403E8FEF580731F7B5
:1014100011E022C040E050E090E08E809F804815AF
:101420005905B9F0FA01E350FD4F1685B8E0092FD0
:101430000127892F90E0FC01F595E7959E2F00FF8D
:1014400002C09CE89E271595B15089F74F5F5F4F0A
:10145000E4CF11E0911110E0A2FF4AC080910B038C
:10146000882309F445C080919D05863909F440C060
:101470008091A30581113CC0672BB1F0A0FF38C05B
:101480009980290D311DF901E25FFC4FA3E0B3E023
:10149000CF01049631912D9132132AC0E817F90734
:1014A000C9F7112309F441CE41E861E881EE92E0E9
:1014B00026DB39DC40E06DE881EE92E020DB40E0A5
:1014C00062EA81EE92E01BDB66E081EE92E0A4D856
:1014D00043E861E881EE92E012DB62E181EE92E0A6
:1014E0003BDB83FFFACF48E062E981EE92E007DB65
:1014F000112309F41ACE80910B0380936F0340915E
:101500000C03842F881F8827881F46FBEE27E0F9ED
:10151000242F30E0882329F090910D03B901792B15
:1015200001C0B90170936C0360936B03E80FDB019A
:10153000A270BB2760FF27C08E2F90E0FC01E25F06
:10154000FC4FC080D180E280F380C0927003D092C3
:101550007103E0927203F0927303AB2BE1F0FC0194
:10156000EE5EFC4FC080D180E280F380C0927503B4
:10157000D0927603E0927703F0927803FC01E35077
:10158000FD4F818D06C0AB2B31F0F0E0E350FD4FF5
:10159000818980937403E091A105F091A2052F3F0A
:1015A000310521F42091010330910203C9018270B9
:1015B000992720FF04C0892B31F495E007C0892BBF
:1015C00021F491E003C09AE001C092E026FD02C040
:1015D00081E001C082E0980F27FD02C051E001C008
:1015E00052E0950F25FD02C051E001C054E0892F63
:1015F000850F23FD02C090E001C092E0980F892F73
:1016000090E06E817F81681B790B45FD03C021E06E
:1016100030E002C024E030E0821B930B4BE653E045
:10162000855F9C4F19950E94F8017CCD88E392E07C
:101630009093A6058093A5051092A7051092A80582
:101640001092A9051092AA05109247021092460224
:1016500048EE53E060E070E0409348025093490246
:1016600060934A0270934B0228E132E030934502C6
:101670002093440225EC30E0309351022093500235
:1016800024EC30E0309353022093520220EC30E0FF
:10169000309355022093540221EC30E030935702EE
:1016A0002093560222EC30E03093590220935802E6
:1016B00026EC30E030935B0220935A0210925D02D8
:1016C00010925E0210925F02109260021092E40289
:1016D0001092E30228E232E03093E2022093E1022A
:1016E00020E52093ED0221E02093EE024AE050E055
:1016F0005093F0024093EF0249E050E05093F20221
:101700004093F10242E050E05093F4024093F30220
:101710001092F6021092F5021092F8021092F7025F
:101720001092FA021092F9021092FC021092FB023F
:101730001092E5021092E6021092E7021092E8027F
:101740009093AC058093AB051092AD051092AE0559
:101750001092AF051092B0059093B2058093B10539
:101760001092B3051092B4051092B5051092B6050B
:101770009093B8058093B7051092B9051092BA05F9
:101780001092BB051092BC059093C6058093C505C9
:101790001092C7051092C8051092C9051092CA058B
:1017A0009093BE058093BD051092BF051092C005B1
:1017B0001092C1051092C2059093CC058093CB0581
:1017C0001092CD051092CE051092CF051092D00543
:1017D0009093D2058093D1051092D3051092D40531
:1017E0001092D5051092D6059093D8058093D70511
:1017F0001092D9051092DA051092DB051092DC05E3
:101800001092FD021092FE021092FF02109200034D
:1018100086E090E09093020380930103109203030B
:10182000109204031092050310920603109207030E
:10183000109208031092090310920A0310926C038D
:1018400010926B0310926E0310926D0310926F034F
:101850001092740320939A0510929F0510929E0592
:1018600086E38093A0051092A3058CE28093A405E3
:1018700087E980939D0582E393E090939C05809394
:101880009B0583E393E09093A2058093A105E0EE8E
:10189000F3E0118210821282138214821582DF011A
:1018A000A756B1091C92E359FF4F86E0E130F807D3
:1018B00081F70895EE0FFF1F881F8BBF0790F691E9
:1018C000E02D199481E090E0F894B2C08F929F923D
:1018D000AF92BF92CF92DF92EF92FF92CF93DF93BE
:1018E000EC01688179818A819B816115710581058F
:1018F000910521F464E279ED8BE597E02DE133EF7A
:1019000041E050E038D049015A019B01AC01A7EAFF
:10191000B1E44DD06B017C01ACEEB4EFA5019401B4
:1019200052D0DC01CB018C0D9D1DAE1DBF1DB7FF3C
:1019300003C00197A109B04888839983AA83BB8318
:10194000BC01CD019F77DF91CF91FF90EF90DF90A9
:10195000CF90BF90AF909F908F900895B7CF80E1C8
:1019600092E0B4CF60931002709311028093120240
:10197000909313020895052E97FB16F400940FD050
:1019800057FD05D024D007FC02D046F408C050957E
:101990004095309521953F4F4F4F5F4F089590955B
:1019A0008095709561957F4F8F4F9F4F089531D0EF
:1019B000A59F900DB49F900DA49F800D911D1124A3
:1019C0000895B7FFF4CFF3DF821B930B0895A1E2D4
:1019D0001A2EAA1BBB1BFD010DC0AA1FBB1FEE1FA9
:1019E000FF1FA217B307E407F50720F0A21BB30BF4
:1019F000E40BF50B661F771F881F991F1A9469F770
:101A000060957095809590959B01AC01BD01CF01CB
:101A10000895A29FB001B39FC001A39F700D811DC7
:101A20001124911DB29F700D811D1124911D0895E7
:041A3000F894FFCF58
:101A34000A030A030A030A030A030A030A030A033A
:101A44000100000000000000910149065B0139011A
:101A54004D01D701000000000C030406F405DA056B
:0A1A6400AF050B030000000034037F
:00000001FF
