:1000000007C1000056C5000029C50000FCC400005F
:10001000CFC40000A2C4000075C4000048C40000A2
:100020001BC4000025C1000023C1000021C1000045
:100030001FC100001DC100001BC1000019C100004C
:1000400017C1000015C1000013C1000011C100005C
:100050000FC100000DC100000BC10000B3C30000C0
:1000600007C100008AC200005FC2000001C1000099
:10007000FFC00000FDC00000FBC00000F9C0000090
:10008000F7C00000F5C00000F3C00000F1C00000A0
:10009000EFC00000EDC00000EBC00000E9C00000B0
:1000A000E7C00000E5C00000E3C00000E1C00000C0
:1000B000DFC00000DDC00000DBC00000D9C00000D0
:1000C000D7C00000D5C00000D3C00000D1C00000E0
:1000D000CFC00000CDC00000CBC00000C9C00000F0
:1000E000C7C0000022032503140318031C035C038C
:1000F00029032D03330337033B034103450349031E
:100100005C034F035303570300000A0B02090C0D55
:100110000E080703040100000000000000000000BA
:1001200000000000000000000000000000000000CF
:10013000000000001211100000000000000000008C
:1001400000000000000000000000000000000000AF
:100150002200250028002B002E003100340002016F
:100160000000050108010B01000021002400270008
:100170002A002D00300033000101000004010701B6
:100180000A0105050505070508080808020202021C
:100190000A0A080804040404010101010101010123
:1001A0000303030303030303040707070C0C0C0CEE
:1001B0000C0C0C0C020202020606060606060606D7
:1001C0000B0B0B0B0B0B0B0B010210202008081064
:1001D00020401020408002010201080402010102B7
:1001E0000408102040808040201008040201800490
:1001F00002018040201008040201080402010102EB
:100200000408102040800102040810204080960D50
:1002100011241FBECFEFD1E2DEBFCDBF00E00CBF87
:1002200012E0A0E0B2E0E2E5FFE100E00BBF02C0B7
:1002300007900D92AA33B107D9F725E0AAE3B2E0FF
:1002400001C01D92AD3DB207E1F711E0C8E0D1E079
:1002500000E006C021970109802FFE010E94E90EEF
:10026000C730D10780E00807A9F7B7D60C94A70FCD
:10027000C7CEFC01918D828D981761F0828DDF01D0
:10028000A80FB11D5D968C91928D9F5F9F73928F89
:1002900090E008958FEF9FEF0895FC01918D828D7E
:1002A000981731F0828DE80FF11D858D90E008954B
:1002B0008FEF9FEF0895FC01918D228D892F90E0A3
:1002C000805C9F4F821B91098F739927089584E466
:1002D00092E0F1DF21E0892B09F420E0822F0895DC
:1002E000FC01848DDF01A80FB11DA35ABF4F2C91D3
:1002F000848D90E001968F739927848FA689B789A2
:100300002C93A089B1898C9180648C93938D848D7A
:10031000981306C00288F389E02D80818F7D808349
:100320000895EF92FF920F931F93CF93DF93EC0109
:1003300081E0888F9B8D8C8D981305C0E889F989A1
:10034000808185FD23C0F62E0B8D10E00F5F1F4FBF
:100350000F731127E02E8C8DE8120BC00FB607FC2F
:10036000FACFE889F989808185FFF5CFCE01B8DF22
:10037000F2CF8B8DFE01E80FF11DE35AFF4FF082A3
:100380000B8FEA89FB898081806207C0EE89FF8933
:100390006083E889F98980818064808381E090E0CE
:1003A000DF91CF911F910F91FF90EF900895CF9320
:1003B000DF93EC01888D8823C1F0EA89FB89808175
:1003C00085FD05C0A889B9898C9186FD0EC00FB640
:1003D00007FCF5CF808185FFF2CFA889B9898C9180
:1003E00085FFEDCFCE017CDFE8CFDF91CF9108957F
:1003F00080E090E0892B19F06ADF811125C080E050
:1004000090E0892B41F080E090E0892B21F00E9460
:10041000000081111CC080E090E0892B41F080E059
:1004200090E0892B21F00E940000811113C080E030
:1004300090E0892BA1F080E090E0892B81F00E9470
:10044000000081110AC008950E940000D8CF0E94C8
:100450000000E1CF0E940000EACF0C940000089554
:1004600008950895CF93DF931F92CDB7DEB76983C8
:10047000DC01ED91FC910280F381E02D41E050E040
:10048000BE016F5F7F4F19950F90DF91CF91089557
:10049000089508958F929F92AF92BF92CF92DF926C
:1004A000EF92FF920F931F93CF93DF937C01EB01A9
:1004B0006C0182E0C80ED11C4701E5E08E0E911C54
:1004C00000E010E0F60141916F0150E060E070E063
:1004D0002AE0CE01FCD45C01E881F9810190F08131
:1004E000E02D6EE2CE0119958A0D9B1D080F191F94
:1004F000C814D90439F7F701458150E060E070E095
:100500002AE0CE01E4D4800F911FDF91CF911F919B
:100510000F91FF90EF90DF90CF90BF90AF909F90A2
:100520008F9008950E94F10E1F920F920FB60F92B6
:1005300011240BB60F922F933F934F935F936F93BA
:100540007F938F939F93AF93BF93EF93FF9384E435
:1005500092E0C6DEFF91EF91BF91AF919F918F9195
:100560007F916F915F914F913F912F910F900BBEB3
:100570000F900FBE0F901F9018951F920F920FB6FD
:100580000F9211240BB60F922F938F939F93EF939B
:10059000FF93E0915402F09155028081E0915A025C
:1005A000F0915B0282FD12C0908180915D028F5FAD
:1005B0008F7320915E02821751F0E0915D02F0E0AE
:1005C000EC5BFD4F958F80935D0201C08081FF91B0
:1005D000EF919F918F912F910F900BBE0F900FBEB7
:1005E0000F901F901895362F90E0FC01E85FFE4FAA
:1005F0004491FC01E853FE4F2491FC01EE57FE4F5D
:100600009491992309F46BC0442309F455C050E038
:10061000FA013197E231F10508F04EC08827EE5813
:10062000FF4F8F4F0C94E90E809180008F7707C0A9
:10063000809180008F7D03C080918000877F8093B0
:1006400080003AC084B58F7702C084B58F7D84BDA9
:1006500033C08091B0008F7703C08091B0008F7D50
:100660008093B00029C0809190008F7707C080915F
:1006700090008F7D03C080919000877F80939000D1
:100680001BC08091A0008F7707C08091A0008F7D54
:1006900003C08091A000877F8093A0000DC080914F
:1006A00020018F7707C0809120018F7D03C080914A
:1006B0002001877F80932001E92FF0E0EE0FFF1FDC
:1006C000E25BFE4FA591B4918FB7F894EC91311194
:1006D00003C020952E2301C02E2B2C938FBF08958D
:1006E0003FB7F8948091400290914102A09142025C
:1006F000B091430226B5A89B05C02F3F19F0019683
:10070000A11DB11D3FBFBA2FA92F982F8827820F97
:10071000911DA11DB11DBC01CD0142E0660F771FE7
:10072000881F991F4A95D1F708958F929F92AF9293
:10073000BF92CF92DF92EF92FF926B017C01D0DFEC
:100740004B015C01C114D104E104F104E9F0C8DFFC
:10075000DC01CB0188199909AA09BB09883E93409D
:10076000A105B10578F321E0C21AD108E108F1082A
:1007700088EE880E83E0981EA11CB11CC114D10420
:10078000E104F10421F7DECFFF90EF90DF90CF90EE
:10079000BF90AF909F908F900895FC01808182342C
:1007A00081F461E08DE01FDF65E070E080E090E0C3
:1007B000BCDF60E08DE017DF65E070E080E090E096
:1007C000B4CF08951F920F920FB60F9211242F935A
:1007D0003F938F939F93AF93BF9380913C029091EF
:1007E0003D02A0913E02B0913F0230913B0223E0D6
:1007F000230F2D3720F40196A11DB11D05C026E859
:10080000230F0296A11DB11D20933B0280933C0251
:1008100090933D02A0933E02B0933F02809140022C
:1008200090914102A0914202B09143020196A11D14
:10083000B11D8093400290934102A0934202B09375
:100840004302BF91AF919F918F913F912F910F9054
:100850000FBE0F901F9018951F920F920FB60F9218
:1008600011240BB60F922F933F934F935F936F9387
:100870007F938F939F93AF93BF93EF93FF93E091F9
:100880000E02F0910F021995FF91EF91BF91AF9178
:100890009F918F917F916F915F914F913F912F9198
:1008A0000F900BBE0F900FBE0F901F9018951F92C8
:1008B0000F920FB60F9211240BB60F922F933F9306
:1008C0004F935F936F937F938F939F93AF93BF9358
:1008D000EF93FF93E0910C02F0910D021995FF91B7
:1008E000EF91BF91AF919F918F917F916F915F91A8
:1008F0004F913F912F910F900BBE0F900FBE0F9015
:100900001F9018951F920F920FB60F9211240BB6DD
:100910000F922F933F934F935F936F937F938F9398
:100920009F93AF93BF93EF93FF93E0910202F091F7
:1009300003021995FF91EF91BF91AF919F918F9114
:100940007F916F915F914F913F912F910F900BBECF
:100950000F900FBE0F901F9018951F920F920FB619
:100960000F9211240BB60F922F933F934F935F93E7
:100970006F937F938F939F93AF93BF93EF93FF9367
:10098000E0910002F09101021995FF91EF91BF9162
:10099000AF919F918F917F916F915F914F913F9117
:1009A0002F910F900BBE0F900FBE0F901F901895B8
:1009B0001F920F920FB60F9211240BB60F922F9326
:1009C0003F934F935F936F937F938F939F93AF93D7
:1009D000BF93EF93FF93E0910A02F0910B021995F8
:1009E000FF91EF91BF91AF919F918F917F916F9107
:1009F0005F914F913F912F910F900BBE0F900FBEC3
:100A00000F901F9018951F920F920FB60F921124FE
:100A10000BB60F922F933F934F935F936F937F93F8
:100A20008F939F93AF93BF93EF93FF93E09108024F
:100A3000F09109021995FF91EF91BF91AF919F91AC
:100A40008F917F916F915F914F913F912F910F9077
:100A50000BBE0F900FBE0F901F9018951F920F9214
:100A60000FB60F9211240BB60F922F933F934F9313
:100A70005F936F937F938F939F93AF93BF93EF9306
:100A8000FF93E0910602F09107021995FF91EF9113
:100A9000BF91AF919F918F917F916F915F914F9196
:100AA0003F912F910F900BBE0F900FBE0F901F9094
:100AB00018951F920F920FB60F9211240BB60F923A
:100AC0002F933F934F935F936F937F938F939F9356
:100AD000AF93BF93EF93FF93E0910402F09105026F
:100AE0001995FF91EF91BF91AF919F918F917F9158
:100AF0006F915F914F913F912F910F900BBE0F908F
:100B00000FBE0F901F901895EF92FF921F93CF93F7
:100B1000DF931F92CDB7DEB77C01162F60E0FC019A
:100B20008685498360DDF701948585859CBD8DBDF3
:100B30001EBD000049810DB407FEFDCF8EB54EBD30
:100B400000000DB407FEFDCF1EB561E0F7018685FC
:100B50004ADD812F0F90DF91CF911F91FF90EF9091
:100B600008956F7740E0D0CFEF92FF921F93CF931D
:100B7000DF931F92CDB7DEB77C01DC01ED91FC91D4
:100B80000480F581E02D1995892B81F06DE0C70176
:100B9000E8DF482F60E0C7014983E3DF182F498170
:100BA0006DE8C701B1DF812F90E002C08FEF9FEFAA
:100BB0000F90DF91CF911F91FF90EF900895CF9309
:100BC000DF93EC01E881F9810480F581E02D19952E
:100BD000892B51F08E899F8901969F8B8E8B60E0C7
:100BE000CE01BFDF90E002C08FEF9FEFDF91CF918A
:100BF0000895CF93DF93EC0163E1B3DF282F30E05A
:100C00008E899F89A901481B590BCA01DF91CF9199
:100C100008958F929F92AF92BF92CF92DF92FF92F0
:100C20000F931F93CF93DF931F92CDB7DEB76C0165
:100C3000B62E4A0162E2798394DFF82E90E09C019F
:100C4000280D391D79812F3F310531F028F02FEF24
:100C500030E04901881A990A0B2D172F5801A80C6A
:100C6000B91C0A151B0539F0F80141918F0160E8A4
:100C7000C6014ADFF6CF482D4F0D62EAC60144DFB8
:100C8000C4010F90DF91CF911F910F91FF90DF90E2
:100C9000CF90BF90AF909F908F9008956F3F710558
:100CA00019F4FC0160817181CB018270992760FF8A
:100CB00004C0892B31F485E007C0892B21F481E041
:100CC00003C08AE001C082E066FD02C091E001C07D
:100CD00092E0890F67FD02C091E001C092E0890FA8
:100CE00065FD02C091E001C094E0890F63FD02C080
:100CF00090E001C092E0890F0895FC01680F791F10
:100D000090E05CE8E617F70789F0419188E0A92FA9
:100D1000A427292F30E035952795922FA0FF02C0F8
:100D2000952F92274595815091F7ECCF892F089503
:100D30001092FA021092F9026DE181EE92E011DF59
:100D4000482F4E7F6DE981EE92E0DECE90E0FC010F
:100D5000E853FE4F2491FC01EE57FE4F8491882307
:100D600099F090E0880F991FFC01E859FE4FA5917A
:100D7000B491FC01E25BFE4F859194918FB7F8949A
:100D8000EC91E22BEC938FBF0895CF93DF9362E158
:100D900081EE92E0E6DEC82FCBDF4C2F62E981EED8
:100DA00092E0B2DEC6FF23C0C5FD21C01092F8025A
:100DB0001092F7028091F9029091FA02892B11F0BA
:100DC00062E201C063E181EE92E0CBDEC82FD0E0A9
:100DD00060E181EE92E0C5DE482F6DE881EE92E0A1
:100DE00093DE41E861E881EE92E08EDE12C061E0C0
:100DF00081EE92E0B6DE863851F040E06DE881EE9B
:100E000092E082DE46E861E881EE92E07DDEC0E0BD
:100E1000D0E0CE01DF91CF91089541E861E881EE05
:100E200092E072DE85DF40E06DE881EE92E06CDEFC
:100E300040E062EA81EE92E067DE81E090E00895B2
:100E400043E861E881EE92E05FDE62E181EE92E0EC
:100E500088DE83FFFACF48E062E981EE92E054DE5B
:100E600081E090E00895CF92DF92EF92FF92FC0133
:100E70009C01260F371F8FEF9FEFDC01E217F3076E
:100E8000D9F04191842749E04150C1F36C017D01C3
:100E9000F694E794D794C79480FF0BC0D701C6019E
:100EA00050E2852753E8952758EBA5275DEEB52737
:100EB000EBCFD701C601E8CFBC01CD01609570959D
:100EC00080959095FF90EF90DF90CF9008954F928E
:100ED0005F926F927F92EF92FF920F931F93CF9347
:100EE000DF93CDB7DEB7A1970FB6F894DEBF0FBE84
:100EF000CDBF7C01FA01CB0119A2223008F42AE00F
:100F00008E010F5D1F4F422E512C612C712CBF01A1
:100F1000A3019201EBD7F901CA01015011096A300E
:100F200014F4605D01C0695CD8016C93232B242B01
:100F3000252B69F70115110591F0F80101900020AA
:100F4000E9F73197AF01401B510BD701ED91FC91AF
:100F50000280F381E02DB801C701199502C080E03D
:100F600090E0A1960FB6F894DEBF0FBECDBFDF9123
:100F7000CF911F910F91FF90EF907F906F905F90B6
:100F80004F900895CF92DF92EF92FF920F931F93AD
:100F9000CF93DF936C017A018B01C0E0D0E0CE15D6
:100FA000DF0589F0D8016D918D01D601ED91FC919D
:100FB0000190F081E02DC6011995892B11F47E0175
:100FC00002C02196ECCFC701DF91CF911F910F9105
:100FD000FF90EF90DF90CF900895CF93DF9300D0F4
:100FE000CDB7DEB7789484B5826084BD84B5816066
:100FF00084BD85B5826085BD85B5816085BD8091E4
:101000006E00816080936E0010928100809181005B
:101010008260809381008091810081608093810053
:10102000809180008160809380008091B100846015
:101030008093B1008091B00081608093B000809176
:1010400091008260809391008091910081608093F3
:101050009100809190008160809390008091A10028
:1010600082608093A1008091A10081608093A100A3
:101070008091A00081608093A00080912101826016
:1010800080932101809121018160809321018091D1
:10109000200181608093200180917A008460809398
:1010A0007A0080917A00826080937A0080917A0041
:1010B000816080937A0080917A00806880937A00C2
:1010C0001092C1008DE042DE60E08DE08CDA80910C
:1010D0000103909102038B7F90930203809301039D
:1010E0008091EF0233DE8091F10230DE60E080918A
:1010F000F10279DA6AE070E080E090E016DB61E00E
:101100008091F10270DA6AE070E080E090E00DDB3F
:1011100061E08091EF0267DA1FB7F89480913A029C
:10112000811120C0E7EBF1E08491EDEFF1E09491C3
:10113000E82FF0E0EE0FFF1FE859FE4FA591B491A4
:10114000EC91E92319F461E085E34DDA85E3FEDDF6
:101150008CB580618CBD8CB580648CBD84E3F6DD7C
:1011600083E3F4DD80913A028F5F80933A021FBFE0
:1011700062E481EE92E0F5DC823109F03DC040E8A6
:1011800061E881EE92E0C0DC80EA97E29093F6029B
:101190008093F50249ED66E881EE92E0B5DC46E029
:1011A00067E881EE92E0B0DC46E668E881EE92E026
:1011B000ABDC40E06EE881EE92E0A6DC40E06FE858
:1011C00081EE92E0A1DC6CE081EE92E0CADC482F77
:1011D00043606CE881EE92E097DC44E066EA81EEE1
:1011E00092E092DC4FE869E881EE92E08DDC41E824
:1011F00061E881EE92E088DC6DE181EE92E0B1DCA5
:101200008F70482F40686DE981EE92E07DDC8DECB7
:1012100093E09093A2058093A1058091A005863369
:1012200008F0865390917B00282F2870977F922B8F
:1012300090937B008770806480937C0080917A001B
:10124000806480937A0080917A0086FDFCCF609163
:1012500078008091790070E0782B8091A405680F68
:10126000711D072E000C880B990B61157105810506
:10127000910509F006D61091A40500D628EE33E0BA
:1012800040E050E007D6212F30E0620F731F62303C
:10129000710540F0660F771F660F771FCB0105972A
:1012A0000197F1F7E0EEF3E0C12CD12C8081918120
:1012B000892B09F0D5C08DE68C9D80018D9D100D88
:1012C000112406581C4FE0900103F09002032FEF09
:1012D000E216F10419F010F06894E7F8B70181E024
:1012E00093E0DCDC882E912C4FEF841A940AC7011E
:1012F000880F892F881F990B9195682F6170B62EE2
:10130000C701A6E096958795AA95E1F7E82FE170C9
:10131000AE2EF0E18F16910448F1E5FC0BC0689405
:10132000E5F8B70181E093E0B9DC882E912C2FEF2E
:10133000821A920A811441E0940669F4A1100FC048
:101340006894E6F8B70181E093E0A8DC882E912C40
:101350006FEF861A960A80E68816910438F0E091BD
:101360009B05F0919C05682D88E68AC08CE2F80107
:101370008083BB2019F0E182F28202C0F801E18291
:101380008B2D90E0F801E80FF91FAA2019F01282C6
:10139000838201C08282970122703327E0FE23C03E
:1013A000800F911FFC01EA0DF11D809103039091C4
:1013B0000403A0910503B091060383839483A5835E
:1013C000B683232BD1F08091030390910403A09165
:1013D0000503B091060387839087A187B287809128
:1013E000A40583870AC0232B41F0800F911FFC01C5
:1013F000EA0DF11D8091A4058383B4016150710948
:10140000970120723327E5FC03C081E090E002C021
:1014100084E090E0FB01E81BF90BE00FF11F82E490
:101420008083232BA9F07401F4E0EF1AF108B701CF
:10143000C80119DDF801EE0DFF1D9083080D191D7F
:10144000F80133978083319670833196608342C36D
:101450007801E60EF71EC80150DCF70180833AC31D
:101460002FEFC21AD20AE359FF4F45E0C416D10448
:1014700009F01CCFE0919B05F0919C0565E086E6A4
:101480001995E0915402F091550282E08083E09139
:101490005002F09151021082E0915202F0915302F9
:1014A00080E1808310925C02E0915802F091590231
:1014B00086E08083E0915602F0915702808180613E
:1014C0008083E0915602F09157028081886080838A
:1014D000E0915602F0915702808180688083E0910C
:1014E0005602F091570280818F7D80837BE0A72E8A
:1014F00073E0B72EF12CE12CE0E62E2E312CC12C1E
:10150000D12C80E090E00097E9F43FDC8C01882347
:1015100081F0450181EE92E06CDB892B39F081EEA0
:1015200092E04DDBF40181934F01F4CFC80199277C
:1015300002C08FEF9FEF9C01215031092E3F3F4F9A
:1015400008F067C10197C114D10469F420910B031D
:101550003091A4052317A1F1222391F12091A30535
:1015600021112EC056C121E0C216D10449F52091A7
:101570000C034091010350910203422740FF05C034
:101580003091A305332309F444C130910B03311189
:1015900004C0322F3C7009F03CC123FF02C021FF80
:1015A00038C1322F307426FF02C025FF32C1EE242D
:1015B000E394311101C0E12CF22EFF1CFF24FF1C2B
:1015C0000F2D10E098012E5F3F4FC216D30661F435
:1015D000E1100AC0F5012080312CA10145505109CC
:1015E0004C35510508F015C1A8014D5F5F4FC41679
:1015F000D50691F4EE2081F0F5013197408150E05D
:10160000342E2224F5014081242AA101455051099C
:101610004C35510508F0FDC0409101035091020383
:101620004A01F1E08F22992440FF23C040910C032E
:1016300040FF1FC04091A30541111BC04E2D50E03B
:10164000240F351F2C153D05A0F49801295F3F4F4D
:10165000240F351FC216D30660F4F601E01BF10B10
:10166000E41BF50BE350FD4F3381F501208132136C
:10167000D0C0FFEFCF1ADF0A2FEFA21AB20AC214AE
:10168000D30408F440CFF0900C03B101F5FE21C063
:10169000645071098BE093E0E6DBF101E95FFC4FF8
:1016A00040E050E0A1919A01285E3F4F2B013C01A0
:1016B00004C076946794579447942A95D2F7A4115E
:1016C0000DC048505109403E2FEF520759F721E015
:1016D00006C08BE093E011DB21E0811120E0F2FEF7
:1016E0002CC080910B03882341F180919D058639A0
:1016F00021F18091A305811120C08928A9F0F0FE75
:101700001CC00E0D111DF801E25FFC4FA3E0B3E019
:10171000CF01049641913D9143130FC0E817F9079B
:10172000C9F7222309F475C0298377DB66E081EECF
:1017300092E00E94320284DB2981222309F469C0ED
:1017400080910B0380936F03F0900C038F2D881F03
:101750008827881FF6FAEE27E0F96F2D70E08823BE
:1017600029F090910D039B01392B01C09B0130930F
:101770006C0320936B03E80FC9018270992720FF47
:1017800026C0F0E0DF01A25FBC4F0D911D912D91AD
:101790003C91009370031093710320937203309374
:1017A0007303892BE1F0DF01AE5EBC4F8D919D91FB
:1017B0000D90BC91A02D8093750390937603A09318
:1017C0007703B0937803E350FD4F818D06C0892BDA
:1017D00031F0F0E0E350FD4F818980937403009174
:1017E000A1051091A20581E093E058DA90E0B101E3
:1017F000681B790BF5FC03C021E030E002C024E057
:1018000030E0821B930B4BE653E0855F9C4FF80161
:10181000199509E713E08AED93E09B838A839AE7A1
:10182000E92E93E0F92E2BE7222E23E0322ED12C45
:10183000EA81FB8186819781892B09F436C1F10108
:10184000C0800E9470034B015C01F801A0814A2E08
:10185000512C612C712CB0E0A301920137D39B0174
:10186000AC01A8D29B01AC01EA81FB81828193810A
:10187000A481B581881A990AAA0ABB0AC301B201D8
:1018800099D24084518462847384DC01CB01840D3D
:10189000951DA61DB71D88159905AA05BB0508F05D
:1018A00004C1BB24B3948C2D8A708A3009F0B12C0A
:1018B000C2FE09C0BB2039F0EA81FB818681978195
:1018C000069709F46BC0EA81FB81C080E114F10442
:1018D00019F48FEF9FEF5EC080919D05863919F452
:1018E0009CDA47011BC051DA181619060CF450C0D7
:1018F0000E9470034090FD025090FE026090FF0233
:1019000070900003DC01CB0184199509A609B70981
:10191000803C9648A140B10518F73AC0882D8E1931
:101920008C1540F4F40161914F0181EE92E00E9428
:101930003202F4CF85DAF7018081811103C086E09D
:1019400090E028C0F101808182FFF9CF80919D0550
:101950008639A9F30E9470032B013C010E94700399
:10196000DC01CB0184199509A609B709803A96488C
:10197000A140B10508F0ADCF08DA882379F381EEF4
:1019800092E01DD986309105D1F2019609F4A1CFDC
:101990008AE992E0EA81FB8197838683F80180815E
:1019A0008F5F8083EA81FB818681978186309105F4
:1019B00009F0B8C080859185A285B385892B8A2BD3
:1019C0008B2BD9F480919A05882309F4A8C0F101E2
:1019D000C0806C2D0C2C000C770B81E093E05ED95D
:1019E00090E0EA81FB81208131812817390711F4C9
:1019F000B11006C0C3FE04C092C0B11022C047C0DF
:101A0000F8011082EA81FB81118210821282138216
:101A10001482158217821682BB2009F446C02ED28A
:101A200020E230E040E050E035D26230710548F00D
:101A3000660F771F660F771F65507109CB010197FD
:101A4000F1F7F8018081853180F1E0919B05F091FB
:101A50009C056D2D85E61995EA81FB818085918530
:101A6000A285B385892B8A2B8B2B89F480919A05CB
:101A70008823D9F0F8011082EA81FB81118210825B
:101A80001282138214821582178216820EC0F80108
:101A900010820E947003EA81FB81628373838483D6
:101AA00095838AE490E09783868303591F4FEA81E8
:101AB000FB81E359FF4FFB83EA83FDE6EF0EF11C48
:101AC0002DE6220E311CD39445E0D412B1CE0E94F3
:101AD000F8010CCD8DE68C9D80018D9D100D11249B
:101AE00003501D4FF801E352FF4F918280823696DA
:101AF0008AE490E0918380830E947003F801E152B0
:101B0000FF4F6083718382839383369680E492E4EF
:101B1000AFE0B0E080839183A283B383B2CCBB20DB
:101B200021F28FCF019609F07ACF8BCF88E392E034
:101B30009093A6058093A5051092A7051092A8057D
:101B40001092A9051092AA0510924702109246021F
:101B500048EE53E060E070E0409348025093490241
:101B600060934A0270934B0228E132E030934502C1
:101B70002093440225EC30E0309351022093500230
:101B800024EC30E0309353022093520220EC30E0FA
:101B9000309355022093540221EC30E030935702E9
:101BA0002093560222EC30E03093590220935802E1
:101BB00026EC30E030935B0220935A0210925D02D3
:101BC00010925E0210925F02109260021092E40284
:101BD0001092E30228E232E03093E2022093E10225
:101BE00020E52093ED0221E02093EE024AE050E050
:101BF0005093F0024093EF0249E050E05093F2021C
:101C00004093F10242E050E05093F4024093F3021B
:101C10001092F6021092F5021092F8021092F7025A
:101C20001092FA021092F9021092FC021092FB023A
:101C30001092E5021092E6021092E7021092E8027A
:101C40009093AC058093AB051092AD051092AE0554
:101C50001092AF051092B0059093B2058093B10534
:101C60001092B3051092B4051092B5051092B60506
:101C70009093B8058093B7051092B9051092BA05F4
:101C80001092BB051092BC059093C6058093C505C4
:101C90001092C7051092C8051092C9051092CA0586
:101CA0009093BE058093BD051092BF051092C005AC
:101CB0001092C1051092C2059093CC058093CB057C
:101CC0001092CD051092CE051092CF051092D0053E
:101CD0009093D2058093D1051092D3051092D4052C
:101CE0001092D5051092D6059093D8058093D7050C
:101CF0001092D9051092DA051092DB051092DC05DE
:101D00001092FD021092FE021092FF021092000348
:101D100086E090E090930203809301031092030306
:101D20001092040310920503109206031092070309
:101D3000109208031092090310920A0310926C0388
:101D400010926B0310926E0310926D0310926F034A
:101D50001092740320939A0510929F0510929E058D
:101D600086E38093A0051092A3058DE28093A405DD
:101D700087E980939D0588E492E090939C05809389
:101D80009B0589E492E09093A2058093A105E0EE83
:101D9000F3E0118210821282138214821582DF0115
:101DA000A756B1091C92E359FF4F86E0E130F807CE
:101DB00081F70895DB018F939F9388D0BF91AF91F6
:101DC000A29F800D911DA39F900DB29F900D112495
:101DD0000895EE0FFF1F881F8BBF0790F691E02D2F
:101DE000199481E090E0F894B2C08F929F92AF92E4
:101DF000BF92CF92DF92EF92FF92CF93DF93EC01ED
:101E0000688179818A819B816115710581059105C0
:101E100021F464E279ED8BE597E02DE133EF41E0C9
:101E200050E038D049015A019B01AC01A7EAB1E466
:101E30004DD06B017C01ACEEB4EFA501940152D002
:101E4000DC01CB018C0D9D1DAE1DBF1DB7FF03C076
:101E50000197A109B04888839983AA83BB83BC01F9
:101E6000CD019F77DF91CF91FF90EF90DF90CF90E2
:101E7000BF90AF909F908F900895B7CF80E192E090
:101E8000B4CF60931002709311028093120290936A
:101E900013020895052E97FB16F400940FD057FDFA
:101EA00005D024D007FC02D046F408C050954095D8
:101EB000309521953F4F4F4F5F4F089590958095F6
:101EC000709561957F4F8F4F9F4F089531D0A59F9B
:101ED000900DB49F900DA49F800D911D1124089525
:101EE000B7FFF4CFF3DF821B930B0895A1E21A2E04
:101EF000AA1BBB1BFD010DC0AA1FBB1FEE1FFF1FAE
:101F0000A217B307E407F50720F0A21BB30BE40BFD
:101F1000F50B661F771F881F991F1A9469F7609544
:101F20007095809590959B01AC01BD01CF010895FE
:101F3000A29FB001B39FC001A39F700D811D11240A
:101F4000911DB29F700D811D1124911D0895F8946B
:021F5000FFCFC1
:101F520030023002300230023002300230023002EF
:101F620001000000000000009101C2075B0139017D
:101F72004D01D7010000000032020906F905DF0514
:0A1F8200B4053102000000004A021D
:00000001FF
