:1000000007C10000EAC30000BDC3000090C30000A8
:1000100063C3000036C3000009C30000DCC2000057
:10002000AFC2000025C1000023C1000021C10000B3
:100030001FC100001DC100001BC1000019C100004C
:1000400017C1000015C1000013C1000011C100005C
:100050000FC100000DC100000BC1000047C200002D
:1000600007C1000005C1000003C1000001C100007C
:10007000FFC00000FDC00000FBC00000F9C0000090
:10008000F7C00000F5C00000F3C00000F1C00000A0
:10009000EFC00000EDC00000EBC00000E9C00000B0
:1000A000E7C00000E5C00000E3C00000E1C00000C0
:1000B000DFC00000DDC00000DBC00000D9C00000D0
:1000C000D7C00000D5C00000D3C00000D1C00000E0
:1000D000CFC00000CDC00000CBC00000C9C00000F0
:1000E000C7C0000068016B015A015E016201A201F4
:1000F0006F01730179017D01810187018B018F01FE
:10010000A201950199019D0100000A0B02090C0D45
:100110000E080703040100000000000000000000BA
:1001200000000000000000000000000000000000CF
:10013000000000001211100000000000000000008C
:1001400000000000000000000000000000000000AF
:100150002200250028002B002E003100340002016F
:100160000000050108010B01000021002400270008
:100170002A002D00300033000101000004010701B6
:100180000A0105050505070508080808020202021C
:100190000A0A080804040404010101010101010123
:1001A0000303030303030303040707070C0C0C0CEE
:1001B0000C0C0C0C020202020606060606060606D7
:1001C0000B0B0B0B0B0B0B0B010210202008081064
:1001D00020401020408002010201080402010102B7
:1001E0000408102040808040201008040201800490
:1001F00002018040201008040201080402010102EB
:100200000408102040800102040810204080640986
:1002100011241FBECFEFD1E2DEBFCDBF00E00CBF87
:1002200012E0A0E0B2E0ECE4F6E100E00BBF02C0B7
:1002300007900D92AA32B107D9F725E0AAE2B2E001
:1002400001C01D92A033B207E1F711E0C8E0D1E090
:1002500000E006C021970109802FFE010E94660A76
:10026000C730D10780E00807A9F75FD40C94240BAE
:10027000C7CE362F90E0FC01E85FFE4F4491FC01B1
:10028000E853FE4F2491FC01EE57FE4F94919923C1
:1002900009F46BC0442309F455C050E0FA013197CA
:1002A000E231F10508F04EC08827EE58FF4F8F4F1E
:1002B0000C94660A809180008F7707C0809180003F
:1002C0008F7D03C080918000877F809380003AC03B
:1002D00084B58F7702C084B58F7D84BD33C0809193
:1002E000B0008F7703C08091B0008F7D8093B00005
:1002F00029C0809190008F7707C0809190008F7DFA
:1003000003C080919000877F809390001BC08091F4
:10031000A0008F7707C08091A0008F7D03C08091DF
:10032000A000877F8093A0000DC0809120018F776F
:1003300007C0809120018F7D03C080912001877FBD
:1003400080932001E92FF0E0EE0FFF1FE25BFE4FEC
:10035000A591B4918FB7F894EC91311103C0209519
:100360002E2301C02E2B2C938FBF08953FB7F894F6
:1003700080912F0290913002A0913102B09132020F
:1003800026B5A89B05C02F3F19F00196A11DB11DF0
:100390003FBFBA2FA92F982F8827820F911DA11D2B
:1003A000B11DBC01CD0142E0660F771F881F991F68
:1003B0004A95D1F708958F929F92AF92BF92CF92B4
:1003C000DF92EF92FF926B017C01D0DF4B015C0169
:1003D000C114D104E104F104E9F0C8DFDC01CB0170
:1003E00088199909AA09BB09883E9340A105B1055E
:1003F00078F321E0C21AD108E108F10888EE880EEE
:1004000083E0981EA11CB11CC114D104E104F104C5
:1004100021F7DECFFF90EF90DF90CF90BF90AF90AD
:100420009F908F90089508950895CF93DF931F9222
:10043000CDB7DEB76983DC01ED91FC910280F381D9
:10044000E02D41E050E0BE016F5F7F4F19950F90A6
:10045000DF91CF910895089508958F929F92AF9262
:10046000BF92CF92DF92EF92FF920F931F93CF93A1
:10047000DF937C01EB016C0182E0C80ED11C4701C7
:10048000E5E08E0E911C00E010E0F60141916F0155
:1004900050E060E070E02AE0CE01ECD25C01E8813F
:1004A000F9810190F081E02D6EE2CE0119958A0D5F
:1004B0009B1D080F191FC814D90439F7F70145818E
:1004C00050E060E070E02AE0CE01D4D2800F911FAE
:1004D000DF91CF911F910F91FF90EF90DF90CF9020
:1004E000BF90AF909F908F900895F8D71F920F9272
:1004F0000FB60F9211242F933F938F939F93AF9337
:10050000BF9380912B0290912C02A0912D02B0916B
:100510002E0230912A0223E0230F2D3720F401967A
:10052000A11DB11D05C026E8230F0296A11DB11D16
:1005300020932A0280932B0290932C02A0932D02E9
:10054000B0932E0280912F0290913002A09131023F
:10055000B09132020196A11DB11D80932F0290939C
:100560003002A0933102B0933202BF91AF919F91BC
:100570008F913F912F910F900FBE0F901F90189564
:100580001F920F920FB60F9211240BB60F922F935A
:100590003F934F935F936F937F938F939F93AF930B
:1005A000BF93EF93FF93E0910E02F0910F02199524
:1005B000FF91EF91BF91AF919F918F917F916F913B
:1005C0005F914F913F912F910F900BBE0F900FBEF7
:1005D0000F901F9018951F920F920FB60F92112433
:1005E0000BB60F922F933F934F935F936F937F932D
:1005F0008F939F93AF93BF93EF93FF93E0910C0280
:10060000F0910D021995FF91EF91BF91AF919F91DC
:100610008F917F916F915F914F913F912F910F90AB
:100620000BBE0F900FBE0F901F9018951F920F9248
:100630000FB60F9211240BB60F922F933F934F9347
:100640005F936F937F938F939F93AF93BF93EF933A
:10065000FF93E0910202F09103021995FF91EF914F
:10066000BF91AF919F918F917F916F915F914F91CA
:100670003F912F910F900BBE0F900FBE0F901F90C8
:1006800018951F920F920FB60F9211240BB60F926E
:100690002F933F934F935F936F937F938F939F938A
:1006A000AF93BF93EF93FF93E0910002F0910102AB
:1006B0001995FF91EF91BF91AF919F918F917F918C
:1006C0006F915F914F913F912F910F900BBE0F90C3
:1006D0000FBE0F901F9018951F920F920FB60F929A
:1006E00011240BB60F922F933F934F935F936F9309
:1006F0007F938F939F93AF93BF93EF93FF93E0917B
:100700000A02F0910B021995FF91EF91BF91AF9101
:100710009F918F917F916F915F914F913F912F9119
:100720000F900BBE0F900FBE0F901F9018951F9249
:100730000F920FB60F9211240BB60F922F933F9387
:100740004F935F936F937F938F939F93AF93BF93D9
:10075000EF93FF93E0910802F09109021995FF9140
:10076000EF91BF91AF919F918F917F916F915F9129
:100770004F913F912F910F900BBE0F900FBE0F9096
:100780001F9018951F920F920FB60F9211240BB65F
:100790000F922F933F934F935F936F937F938F931A
:1007A0009F93AF93BF93EF93FF93E0910602F09175
:1007B00007021995FF91EF91BF91AF919F918F9192
:1007C0007F916F915F914F913F912F910F900BBE51
:1007D0000F900FBE0F901F9018951F920F920FB69B
:1007E0000F9211240BB60F922F933F934F935F9369
:1007F0006F937F938F939F93AF93BF93EF93FF93E9
:10080000E0910402F09105021995FF91EF91BF91DB
:10081000AF919F918F917F916F915F914F913F9198
:100820002F910F900BBE0F900FBE0F901F90189539
:10083000EF92FF921F93CF93DF931F92CDB7DEB756
:100840007C01162F60E0FC018685498312DDF701EB
:10085000948585859CBD8DBD1EBD000049810DB46C
:1008600007FEFDCF8EB54EBD00000DB407FEFDCFD7
:100870001EB561E0F7018685FCDC812F0F90DF91CA
:10088000CF911F91FF90EF9008956F7740E0D0CF08
:10089000EF92FF921F93CF93DF931F92CDB7DEB7F6
:1008A0007C01DC01ED91FC910480F581E02D19952E
:1008B000892B81F06DE0C701E8DF482F60E0C701B8
:1008C0004983E3DF182F49816DE8C701B1DF812F2C
:1008D00090E002C08FEF9FEF0F90DF91CF911F91BB
:1008E000FF90EF900895CF93DF93EC01E881F981B9
:1008F0000480F581E02D1995892B51F08E899F890F
:1009000001969F8B8E8B60E0CE01BFDF90E002C02E
:100910008FEF9FEFDF91CF910895CF93DF93EC019D
:1009200063E1B3DF282F30E08E899F89A901481B3E
:10093000590BCA01DF91CF9108958F929F92AF9288
:10094000BF92CF92DF92FF920F931F93CF93DF93CB
:100950001F92CDB7DEB76C01B62E4A0162E27983F1
:1009600094DFF82E90E09C01280D391D79812F3FEE
:10097000310531F028F02FEF30E04901881A990A4B
:100980000B2D172F5801A80CB91C0A151B0539F09F
:10099000F80141918F0160E8C6014ADFF6CF482D8A
:1009A0004F0D62EAC60144DFC4010F90DF91CF9181
:1009B0001F910F91FF90DF90CF90BF90AF909F90CD
:1009C0008F900895CF92DF92EF92FF920F931F9333
:1009D000CF93DF936C017A018B01C0E0D0E0CE159C
:1009E000DF0589F0D8016D918D01D601ED91FC9163
:1009F0000190F081E02DC6011995892B11F47E013B
:100A000002C02196ECCFC701DF91CF911F910F91CA
:100A1000FF90EF90DF90CF90089590E0FC01E853B5
:100A2000FE4F2491FC01EE57FE4F8491882399F0EC
:100A300090E0880F991FFC01E859FE4FA591B491F1
:100A4000FC01E25BFE4F859194918FB7F894EC9195
:100A5000E22BEC938FBF089510924D0210924C023E
:100A60006DE184E392E011DF482F4E7F6DE984E36E
:100A700092E0DECE4F925F926F927F92EF92FF9262
:100A80000F931F93CF93DF93CDB7DEB7A1970FB628
:100A9000F894DEBF0FBECDBF7C01FA01CB0119A2D5
:100AA000223008F42AE08E010F5D1F4F422E512C98
:100AB000612C712CBF01A301920195D5F901CA01E6
:100AC000015011096A3014F4605D01C0695CD801FD
:100AD0006C93232B242B252B69F70115110591F01D
:100AE000F80101900020E9F73197AF01401B510B4D
:100AF000D701ED91FC910280F381E02DB801C7018F
:100B0000199502C080E090E0A1960FB6F894DEBF80
:100B10000FBECDBFDF91CF911F910F91FF90EF904E
:100B20007F906F905F904F900895CF93DF9300D0A8
:100B300000D0CDB7DEB7789484B5826084BD84B52B
:100B4000816084BD85B5826085BD85B5816085BDC8
:100B500080916E00816080936E0010928100809180
:100B60008100826080938100809181008160809308
:100B70008100809180008160809380008091B1002D
:100B800084608093B1008091B00081608093B00058
:100B900080919100826080939100809191008160AA
:100BA000809391008091900081608093900080916B
:100BB000A10082608093A1008091A1008160809358
:100BC000A1008091A00081608093A000809121010C
:100BD00082608093210180912101816080932101B5
:100BE0008091200181608093200180917A0084604F
:100BF00080937A0080917A00826080937A0080915D
:100C00007A00816080937A0080917A008068809376
:100C10007A001092C10080914202FFDE809144026E
:100C2000FCDE60E08091440224DB6AE070E080E05A
:100C300090E0C1DB61E0809144021BDB6AE070E080
:100C400080E090E0B8DB61E08091420212DB1FB7E8
:100C5000F89480913302811120C0E7EBF1E0849198
:100C6000EDEFF1E09491E82FF0E0EE0FFF1FE8596F
:100C7000FE4FA591B491EC91E92319F461E085E36D
:100C8000F8DA85E3CADE8CB580618CBD8CB58064F2
:100C90008CBD84E3C2DE83E3C0DE809133028F5FCC
:100CA000809333021FBF62E484E392E0EEDD823181
:100CB00009F03DC040E861E884E392E0B9DD80EAF4
:100CC00097E2909349028093480249ED66E884E3F5
:100CD00092E0AEDD46E067E884E392E0A9DD46E617
:100CE00068E884E392E0A4DD40E06EE884E392E00B
:100CF0009FDD40E06FE884E392E09ADD6CE084E3FE
:100D000092E0C3DD482F43606CE884E392E090DD1D
:100D100044E066EA84E392E08BDD4FE869E884E32F
:100D200092E086DD41E861E884E392E081DD6DE1F7
:100D300084E392E0AADD8F70482F40686DE984E378
:100D400092E076DD8091F304863308F0865390912B
:100D50007B00282F2870977F922B90937B008770C1
:100D6000806480937C0080917A00806480937A0014
:100D700080917A0086FDFCCF6091780080917900A7
:100D800070E0782B8091F704680F711D072E000C1E
:100D9000880B990B611571058105910509F0EED35A
:100DA0001091F704E8D328EE33E040E050E0EFD3B1
:100DB000212F30E0620F731F6230710540F0660F23
:100DC000771F660F771FCB0105970197F1F710E0AA
:100DD000412E10E0512EBCE83B2E4EE552E05A83E6
:100DE00049836A01612C712C80E690E09C838B839F
:100DF000E12CF12C80E090E0009709F05AC062E10C
:100E000084E392E042DD182F27DE412F62E984E37C
:100E100092E00EDD16FF27C015FD25C010924B0293
:100E200010924A0280914C0290914D02892B11F050
:100E300062E201C063E184E392E027DD082F10E065
:100E400060E184E392E021DD482F6DE884E392E0E5
:100E5000EFDC41E861E884E392E0EADC011511058A
:100E600009F1460111C061E084E392E00EDD8638AD
:100E7000C9F040E06DE884E392E0DADC46E861E83E
:100E800084E392E0D5DC0EC084E392E046DD892B5A
:100E900039F084E392E027DDD4018D934D01F4CF46
:100EA000C80102C08FEF9FEF8F3FBFEF9B0709F490
:100EB00004C20197E114F10469F420915E023091BB
:100EC000F7042317A1F1222391F12091F6042111B7
:100ED0002EC0F3C1E1E0EE16F10449F520915F0266
:100EE0004091540250915502422740FF05C0309175
:100EF000F604332309F4E1C130915E02311104C0DC
:100F0000322F3C7009F0D9C123FF02C021FFD5C1A7
:100F1000322F307426FF02C025FFCFC1772473948F
:100F2000311101C0712C622E661C6624661C262DB0
:100F300030E0A9014E5F5F4FE416F50679F47110B9
:100F40000DC0D6016C91E62FF0E0FC83EB83BF016E
:100F5000655071096C35710508F0AFC1B9016D5F5D
:100F60007F4FE616F706A9F4772099F0F60131973E
:100F7000608170E0B62FAA27F6016081FD01E62BA3
:100F8000FC83EB83BF01655071096C35710508F076
:100F900094C16091540270915502DB01A170BB278E
:100FA000BE83AD8360FF25C060915F0260FF21C0FA
:100FB0006091F60461111DC0672D70E0460F571F48
:100FC0004E155F05B0F4A901495F5F4F460F571FEB
:100FD000E416F50670F4A701421B530B461B570B92
:100FE000DA01A05BBD4F13965C91F601408154136A
:100FF00064C1FFEFEF1AFF0A4FEFC41AD40AAB81A6
:10100000BC81EA16FB0608F4F7CE60915F0265FF2B
:101010004AC0CD01865A9D4FAD01CC24CA94DC2C28
:1010200076014430510511F1E981FA817191FA8319
:10103000E983C72679E07150B1F046015701B694B3
:10104000A79497948794C0FE0BC075016401F0E2E9
:10105000CF26F3E8DF26F8EBEF26FDEEFF26EBCFF9
:1010600075016401E8CF41505109DBCFC094D094A1
:10107000E094F094DC0140E050E07D91CA01489694
:101080004601570104C0B694A794979487948A9513
:10109000D2F7781129C048505109403E8FEF5807C8
:1010A00061F711E022C0A0E0B0E090E04B815C81EC
:1010B000A417B507B9F0AD01405B5D4FFA01568545
:1010C00048E0792F7527892F90E08C0115950795B9
:1010D000902F70FF02C0932D90275595415089F7AE
:1010E0001196E4CF11E0911110E062FF4BC08091A6
:1010F0005E02882309F446C08091F004863909F421
:1011000041C08091F60481113DC08D819E81892B63
:10111000A9F060FF37C0270D311DF901EF59FD4FD0
:10112000A6E5B2E0CF01049631912D9132132AC089
:10113000E817F907C9F7112309F4BFC041E861E8CE
:1011400084E392E075DB88DC40E06DE884E392E0C4
:101150006FDB40E062EA84E392E06ADB66E084E30E
:1011600092E063D943E861E884E392E061DB62E105
:1011700084E392E08ADB83FFFACF48E062E984E30C
:1011800092E056DB112309F498C080915E028093AF
:10119000C20240915F02842F881F8827881F46FB68
:1011A000EE27E0F9242F30E0882329F090916002A7
:1011B000B901792B01C0B9017093BF026093BE02DF
:1011C000E80FDB01A270BB2760FF27C08E2F90E0E5
:1011D000FC01EF59FD4FC080D180E280F380C092C6
:1011E000C302D092C402E092C502F092C602AB2BB9
:1011F000E1F0FC01EB59FD4FC080D180E280F3802B
:10120000C092C802D092C902E092CA02F092CB0208
:10121000FC01E05BFD4F818D06C0AB2B31F0F0E0AF
:10122000E05BFD4F81898093C702E091F404F09167
:10123000F5042F3F310521F42091540230915502DD
:10124000C9018270992720FF04C0892B31F495E0F1
:1012500007C0892B21F491E003C09AE001C092E01D
:1012600026FD02C081E001C082E0980F27FD02C088
:1012700051E001C052E0950F25FD02C051E001C0D0
:1012800054E0892F850F23FD02C090E001C092E059
:10129000980F892F90E06B817C81681B790B45FD4D
:1012A00003C021E030E002C024E030E0821B930B59
:1012B0004EEB52E0825A9D4F19954114510409F4A6
:1012C0008CCD0E94000087CD88E292E09093F904D3
:1012D0008093F8041092FA041092FB041092FC041C
:1012E0001092FD04109237021092360228E132E08B
:1012F000309335022093340220E52093400221E010
:10130000209341024AE050E050934302409342024E
:1013100049E050E0509345024093440242E050E0DF
:10132000509347024093460210924902109248029D
:1013300010924B0210924A0210924D0210924C02EF
:1013400010924F0210924E021092380210923902FF
:1013500010923A0210923B029093FF048093FE0495
:1013600010920005109201051092020510920305DB
:1013700090930505809304051092060510920705C9
:10138000109208051092090590930B0580930A05A9
:1013900010920C0510920D0510920E0510920F057B
:1013A000909319058093180510921A0510921B0549
:1013B00010921C0510921D05909311058093100545
:1013C0001092120510921305109214051092150533
:1013D00090931F0580931E05109220051092210501
:1013E00010922205109223059093250580932405E1
:1013F00010922605109227051092280510922905B3
:1014000090932B0580932A0510922C0510922D05A0
:1014100010922E0510922F05109250021092510238
:10142000109252021092530286E090E0909355027F
:101430008093540210925602109257021092580252
:101440001092590210925A0210925B0210925C02A2
:1014500010925D021092BF021092BE021092C10261
:101460001092C0021092C2021092C7022093ED04A3
:101470001092F2041092F10486E38093F304109228
:10148000F6048CE28093F70487E98093F0048BE202
:1014900092E09093EF048093EE048CE292E09093BC
:1014A000F5048093F404E3E3F3E0118210821282E6
:1014B000138214821582DF01A756B1091C92E359E9
:1014C000FF4F85E0E435F80781F70895EE0FFF1F21
:1014D000881F8BBF0790F691E02D199481E090E072
:1014E000F894B2C08F929F92AF92BF92CF92DF9248
:1014F000EF92FF92CF93DF93EC01688179818A812B
:101500009B81611571058105910521F464E279EDF6
:101510008BE597E02DE133EF41E050E038D0490111
:101520005A019B01AC01A7EAB1E44DD06B017C01EB
:10153000ACEEB4EFA501940152D0DC01CB018C0DCF
:101540009D1DAE1DBF1DB7FF03C00197A109B04887
:1015500088839983AA83BB83BC01CD019F77DF91E8
:10156000CF91FF90EF90DF90CF90BF90AF909F9082
:101570008F900895B7CF80E192E0B4CF60931002CE
:101580007093110280931202909313020895052E16
:1015900097FB16F400940FD057FD05D024D007FC1C
:1015A00002D046F408C050954095309521953F4FA4
:1015B0004F4F5F4F089590958095709561957F4F3F
:1015C0008F4F9F4F089531D0A59F900DB49F900DE0
:1015D000A49F800D911D11240895B7FFF4CFF3DF70
:1015E000821B930B0895A1E21A2EAA1BBB1BFD01BF
:1015F0000DC0AA1FBB1FEE1FFF1FA217B307E407F2
:10160000F50720F0A21BB30BE40BF50B661F771F49
:10161000881F991F1A9469F7609570958095909529
:101620009B01AC01BD01CF010895A29FB001B39F02
:10163000C001A39F700D811D1124911DB29F700DDB
:0C164000811D1124911D0895F894FFCF26
:10164C0013021302130213021302130213021302E6
:10165C00010000000000000015029D048D047304BD
:0A166C0048041402000000002D02E3
:00000001FF
